{
  "contractName": "History",
  "abi": [
    {
      "constant": true,
      "inputs": [
        {
          "name": "data",
          "type": "uint256[]"
        },
        {
          "name": "indices",
          "type": "uint256[]"
        }
      ],
      "name": "sortWithIndex",
      "outputs": [
        {
          "name": "",
          "type": "uint256[]"
        }
      ],
      "payable": false,
      "stateMutability": "pure",
      "type": "function"
    },
    {
      "constant": true,
      "inputs": [
        {
          "name": "",
          "type": "uint256"
        }
      ],
      "name": "_history",
      "outputs": [
        {
          "name": "buyer",
          "type": "address"
        },
        {
          "name": "seller",
          "type": "address"
        },
        {
          "name": "averagePrice",
          "type": "uint256"
        },
        {
          "name": "quantity",
          "type": "uint256"
        },
        {
          "name": "timeStamp",
          "type": "uint256"
        }
      ],
      "payable": false,
      "stateMutability": "view",
      "type": "function"
    },
    {
      "constant": false,
      "inputs": [],
      "name": "renounceOwnership",
      "outputs": [],
      "payable": false,
      "stateMutability": "nonpayable",
      "type": "function"
    },
    {
      "constant": true,
      "inputs": [],
      "name": "owner",
      "outputs": [
        {
          "name": "",
          "type": "address"
        }
      ],
      "payable": false,
      "stateMutability": "view",
      "type": "function"
    },
    {
      "constant": true,
      "inputs": [],
      "name": "isOwner",
      "outputs": [
        {
          "name": "",
          "type": "bool"
        }
      ],
      "payable": false,
      "stateMutability": "view",
      "type": "function"
    },
    {
      "constant": true,
      "inputs": [
        {
          "name": "data",
          "type": "uint256[]"
        }
      ],
      "name": "sort",
      "outputs": [
        {
          "name": "",
          "type": "uint256[]"
        }
      ],
      "payable": false,
      "stateMutability": "pure",
      "type": "function"
    },
    {
      "constant": true,
      "inputs": [
        {
          "name": "data",
          "type": "uint256[]"
        }
      ],
      "name": "reverseSort",
      "outputs": [
        {
          "name": "",
          "type": "uint256[]"
        }
      ],
      "payable": false,
      "stateMutability": "pure",
      "type": "function"
    },
    {
      "constant": true,
      "inputs": [
        {
          "name": "data",
          "type": "uint256[]"
        },
        {
          "name": "indices",
          "type": "uint256[]"
        }
      ],
      "name": "reverseSortWithIndex",
      "outputs": [
        {
          "name": "",
          "type": "uint256[]"
        }
      ],
      "payable": false,
      "stateMutability": "pure",
      "type": "function"
    },
    {
      "constant": false,
      "inputs": [
        {
          "name": "newOwner",
          "type": "address"
        }
      ],
      "name": "transferOwnership",
      "outputs": [],
      "payable": false,
      "stateMutability": "nonpayable",
      "type": "function"
    },
    {
      "inputs": [],
      "payable": false,
      "stateMutability": "nonpayable",
      "type": "constructor"
    },
    {
      "anonymous": false,
      "inputs": [
        {
          "indexed": false,
          "name": "buyer",
          "type": "address"
        },
        {
          "indexed": false,
          "name": "seller",
          "type": "address"
        },
        {
          "indexed": false,
          "name": "price",
          "type": "uint256"
        },
        {
          "indexed": false,
          "name": "quantity",
          "type": "uint256"
        }
      ],
      "name": "HistoryAdded",
      "type": "event"
    },
    {
      "anonymous": false,
      "inputs": [
        {
          "indexed": true,
          "name": "previousOwner",
          "type": "address"
        }
      ],
      "name": "OwnershipRenounced",
      "type": "event"
    },
    {
      "anonymous": false,
      "inputs": [
        {
          "indexed": true,
          "name": "previousOwner",
          "type": "address"
        },
        {
          "indexed": true,
          "name": "newOwner",
          "type": "address"
        }
      ],
      "name": "OwnershipTransferred",
      "type": "event"
    },
    {
      "constant": true,
      "inputs": [
        {
          "name": "from",
          "type": "uint256"
        },
        {
          "name": "to",
          "type": "uint256"
        }
      ],
      "name": "averageValueTradedInPeriod",
      "outputs": [
        {
          "name": "",
          "type": "uint256"
        }
      ],
      "payable": false,
      "stateMutability": "view",
      "type": "function"
    },
    {
      "constant": true,
      "inputs": [
        {
          "name": "from",
          "type": "uint256"
        },
        {
          "name": "to",
          "type": "uint256"
        }
      ],
      "name": "totalValueTradedInPeriod",
      "outputs": [
        {
          "name": "",
          "type": "uint256"
        }
      ],
      "payable": false,
      "stateMutability": "view",
      "type": "function"
    },
    {
      "constant": true,
      "inputs": [
        {
          "name": "from",
          "type": "uint256"
        },
        {
          "name": "to",
          "type": "uint256"
        }
      ],
      "name": "totalVolumeTradedInPeriod",
      "outputs": [
        {
          "name": "",
          "type": "uint256"
        }
      ],
      "payable": false,
      "stateMutability": "view",
      "type": "function"
    },
    {
      "constant": true,
      "inputs": [
        {
          "name": "numberOfTrades",
          "type": "uint256"
        }
      ],
      "name": "getHistory",
      "outputs": [
        {
          "name": "",
          "type": "address[]"
        },
        {
          "name": "",
          "type": "address[]"
        },
        {
          "name": "",
          "type": "uint256[]"
        },
        {
          "name": "",
          "type": "uint256[]"
        },
        {
          "name": "",
          "type": "uint256[]"
        }
      ],
      "payable": false,
      "stateMutability": "view",
      "type": "function"
    },
    {
      "constant": true,
      "inputs": [],
      "name": "getTradeCount",
      "outputs": [
        {
          "name": "",
          "type": "uint256"
        }
      ],
      "payable": false,
      "stateMutability": "view",
      "type": "function"
    },
    {
      "constant": false,
      "inputs": [
        {
          "name": "buyer",
          "type": "address"
        },
        {
          "name": "seller",
          "type": "address"
        },
        {
          "name": "price",
          "type": "uint256"
        },
        {
          "name": "quantity",
          "type": "uint256"
        }
      ],
      "name": "addHistory",
      "outputs": [],
      "payable": false,
      "stateMutability": "nonpayable",
      "type": "function"
    },
    {
      "constant": false,
      "inputs": [
        {
          "name": "who",
          "type": "address"
        }
      ],
      "name": "addWriter",
      "outputs": [],
      "payable": false,
      "stateMutability": "nonpayable",
      "type": "function"
    },
    {
      "constant": false,
      "inputs": [
        {
          "name": "who",
          "type": "address"
        }
      ],
      "name": "denyWriter",
      "outputs": [],
      "payable": false,
      "stateMutability": "nonpayable",
      "type": "function"
    }
  ],
  "bytecode": "0x608060405234801561001057600080fd5b50336000806101000a81548173ffffffffffffffffffffffffffffffffffffffff021916908373ffffffffffffffffffffffffffffffffffffffff1602179055506001600260003373ffffffffffffffffffffffffffffffffffffffff1673ffffffffffffffffffffffffffffffffffffffff16815260200190815260200160002060006101000a81548160ff0219169083151502179055506122fd806100b86000396000f3006080604052600436106100f1576000357c0100000000000000000000000000000000000000000000000000000000900463ffffffff1680630c38d8c0146100f6578063210ec48814610141578063246161b41461023f5780633856cb4b146102f457806359ebfd511461036b5780636d748100146103ae578063715018a6146103f95780638da5cb5b146104105780638f32d59b146104675780639ec8b02614610496578063a3031b7714610551578063aa4489971461057c578063c08a956514610637578063c8691b2a14610682578063d01fbaf914610824578063da2824a814610922578063f2fde38b14610965575b600080fd5b34801561010257600080fd5b5061012b60048036038101908080359060200190929190803590602001909291905050506109a8565b6040518082815260200191505060405180910390f35b34801561014d57600080fd5b506101e86004803603810190808035906020019082018035906020019080806020026020016040519081016040528093929190818152602001838360200280828437820191505050505050919291929080359060200190820180359060200190808060200260200160405190810160405280939291908181526020018383602002808284378201915050505050509192919290505050610a99565b6040518080602001828103825283818151815260200191508051906020019060200280838360005b8381101561022b578082015181840152602081019050610210565b505050509050019250505060405180910390f35b34801561024b57600080fd5b5061026a60048036038101908080359060200190929190505050610ab5565b604051808673ffffffffffffffffffffffffffffffffffffffff1673ffffffffffffffffffffffffffffffffffffffff1681526020018573ffffffffffffffffffffffffffffffffffffffff1673ffffffffffffffffffffffffffffffffffffffff1681526020018481526020018381526020018281526020019550505050505060405180910390f35b34801561030057600080fd5b50610369600480360381019080803573ffffffffffffffffffffffffffffffffffffffff169060200190929190803573ffffffffffffffffffffffffffffffffffffffff1690602001909291908035906020019092919080359060200190929190505050610b3a565b005b34801561037757600080fd5b506103ac600480360381019080803573ffffffffffffffffffffffffffffffffffffffff169060200190929190505050610f96565b005b3480156103ba57600080fd5b506103e36004803603810190808035906020019092919080359060200190929190505050611093565b6040518082815260200191505060405180910390f35b34801561040557600080fd5b5061040e611150565b005b34801561041c57600080fd5b50610425611299565b604051808273ffffffffffffffffffffffffffffffffffffffff1673ffffffffffffffffffffffffffffffffffffffff16815260200191505060405180910390f35b34801561047357600080fd5b5061047c6112c2565b604051808215151515815260200191505060405180910390f35b3480156104a257600080fd5b506104fa60048036038101908080359060200190820180359060200190808060200260200160405190810160405280939291908181526020018383602002808284378201915050505050509192919290505050611319565b6040518080602001828103825283818151815260200191508051906020019060200280838360005b8381101561053d578082015181840152602081019050610522565b505050509050019250505060405180910390f35b34801561055d57600080fd5b50610566611333565b6040518082815260200191505060405180910390f35b34801561058857600080fd5b506105e060048036038101908080359060200190820180359060200190808060200260200160405190810160405280939291908181526020018383602002808284378201915050505050509192919290505050611340565b6040518080602001828103825283818151815260200191508051906020019060200280838360005b83811015610623578082015181840152602081019050610608565b505050509050019250505060405180910390f35b34801561064357600080fd5b5061066c600480360381019080803590602001909291908035906020019092919050505061135a565b6040518082815260200191505060405180910390f35b34801561068e57600080fd5b506106ad60048036038101908080359060200190929190505050611417565b60405180806020018060200180602001806020018060200186810386528b818151815260200191508051906020019060200280838360005b838110156107005780820151818401526020810190506106e5565b5050505090500186810385528a818151815260200191508051906020019060200280838360005b83811015610742578082015181840152602081019050610727565b50505050905001868103845289818151815260200191508051906020019060200280838360005b83811015610784578082015181840152602081019050610769565b50505050905001868103835288818151815260200191508051906020019060200280838360005b838110156107c65780820151818401526020810190506107ab565b50505050905001868103825287818151815260200191508051906020019060200280838360005b838110156108085780820151818401526020810190506107ed565b505050509050019a505050505050505050505060405180910390f35b34801561083057600080fd5b506108cb60048036038101908080359060200190820180359060200190808060200260200160405190810160405280939291908181526020018383602002808284378201915050505050509192919290803590602001908201803590602001908080602002602001604051908101604052809392919081815260200183836020028082843782019150505050505091929192905050506117d5565b6040518080602001828103825283818151815260200191508051906020019060200280838360005b8381101561090e5780820151818401526020810190506108f3565b505050509050019250505060405180910390f35b34801561092e57600080fd5b50610963600480360381019080803573ffffffffffffffffffffffffffffffffffffffff1690602001909291905050506117f1565b005b34801561097157600080fd5b506109a6600480360381019080803573ffffffffffffffffffffffffffffffffffffffff1690602001909291905050506118ee565b005b6000806000806000925060009150600090505b600180549050811015610a6857856001828154811015156109d857fe5b90600052602060002090600502016004015410158015610a18575084600182815481101515610a0357fe5b90600052602060002090600502016004015411155b15610a5b57610a50600182815481101515610a2f57fe5b9060005260206000209060050201600201548461199c90919063ffffffff16565b925081806001019250505b80806001019150506109bb565b6000821415610a7a5760009350610a90565b610a8d82846119ba90919063ffffffff16565b93505b50505092915050565b6060610aac8383600060018751036119d5565b81905092915050565b600181815481101515610ac457fe5b90600052602060002090600502016000915090508060000160009054906101000a900473ffffffffffffffffffffffffffffffffffffffff16908060010160009054906101000a900473ffffffffffffffffffffffffffffffffffffffff16908060020154908060030154908060040154905085565b6040805190810160405280601c81526020017f4f6e6c7920777269746572732063616e2061646420686973746f72790000000081525060011515600260003373ffffffffffffffffffffffffffffffffffffffff1673ffffffffffffffffffffffffffffffffffffffff16815260200190815260200160002060009054906101000a900460ff1615151481901515610c6d576040517f08c379a00000000000000000000000000000000000000000000000000000000081526004018080602001828103825283818151815260200191508051906020019080838360005b83811015610c32578082015181840152602081019050610c17565b50505050905090810190601f168015610c5f5780820380516001836020036101000a031916815260200191505b509250505060405180910390fd5b50600073ffffffffffffffffffffffffffffffffffffffff168573ffffffffffffffffffffffffffffffffffffffff1614151515610d13576040517f08c379a000000000000000000000000000000000000000000000000000000000815260040180806020018281038252600f8152602001807f496e76616c69642061646472657373000000000000000000000000000000000081525060200191505060405180910390fd5b600073ffffffffffffffffffffffffffffffffffffffff168473ffffffffffffffffffffffffffffffffffffffff1614151515610db8576040517f08c379a000000000000000000000000000000000000000000000000000000000815260040180806020018281038252600f8152602001807f496e76616c69642061646472657373000000000000000000000000000000000081525060200191505060405180910390fd5b600160a0604051908101604052808773ffffffffffffffffffffffffffffffffffffffff1681526020018673ffffffffffffffffffffffffffffffffffffffff168152602001858152602001848152602001428152509080600181540180825580915050906001820390600052602060002090600502016000909192909190915060008201518160000160006101000a81548173ffffffffffffffffffffffffffffffffffffffff021916908373ffffffffffffffffffffffffffffffffffffffff16021790555060208201518160010160006101000a81548173ffffffffffffffffffffffffffffffffffffffff021916908373ffffffffffffffffffffffffffffffffffffffff1602179055506040820151816002015560608201518160030155608082015181600401555050507fbb9874a45ae6522a2b4b6f6bc85dfeeb5c77782586c28c46302173a72de4d8ff85858585604051808573ffffffffffffffffffffffffffffffffffffffff1673ffffffffffffffffffffffffffffffffffffffff1681526020018473ffffffffffffffffffffffffffffffffffffffff1673ffffffffffffffffffffffffffffffffffffffff16815260200183815260200182815260200194505050505060405180910390a15050505050565b610f9e6112c2565b1515611038576040517f08c379a00000000000000000000000000000000000000000000000000000000081526004018080602001828103825260268152602001807f4f6e6c7920746865206f776e65722063616e20706572666f726d20746869732081526020017f616374696f6e000000000000000000000000000000000000000000000000000081525060400191505060405180910390fd5b6000600260008373ffffffffffffffffffffffffffffffffffffffff1673ffffffffffffffffffffffffffffffffffffffff16815260200190815260200160002060006101000a81548160ff02191690831515021790555050565b6000806000809150600090505b60018054905081101561114557846001828154811015156110bd57fe5b906000526020600020906005020160040154101580156110fd5750836001828154811015156110e857fe5b90600052602060002090600502016004015411155b156111385761113560018281548110151561111457fe5b9060005260206000209060050201600201548361199c90919063ffffffff16565b91505b80806001019150506110a0565b819250505092915050565b6111586112c2565b15156111f2576040517f08c379a00000000000000000000000000000000000000000000000000000000081526004018080602001828103825260268152602001807f4f6e6c7920746865206f776e65722063616e20706572666f726d20746869732081526020017f616374696f6e000000000000000000000000000000000000000000000000000081525060400191505060405180910390fd5b6000809054906101000a900473ffffffffffffffffffffffffffffffffffffffff1673ffffffffffffffffffffffffffffffffffffffff167ff8df31144d9c2f0f6b59d69b8b98abd5459d07f2742c4df920b25aae33c6482060405160405180910390a260008060006101000a81548173ffffffffffffffffffffffffffffffffffffffff021916908373ffffffffffffffffffffffffffffffffffffffff160217905550565b60008060009054906101000a900473ffffffffffffffffffffffffffffffffffffffff16905090565b60008060009054906101000a900473ffffffffffffffffffffffffffffffffffffffff1673ffffffffffffffffffffffffffffffffffffffff163373ffffffffffffffffffffffffffffffffffffffff1614905090565b606061132b8260006001855103611ba0565b819050919050565b6000600180549050905090565b60606113528260006001855103611d00565b819050919050565b6000806000809150600090505b60018054905081101561140c578460018281548110151561138457fe5b906000526020600020906005020160040154101580156113c45750836001828154811015156113af57fe5b90600052602060002090600502016004015411155b156113ff576113fc6001828154811015156113db57fe5b9060005260206000209060050201600301548361199c90919063ffffffff16565b91505b8080600101915050611367565b819250505092915050565b6060806060806060600060608060608060608060008d6001805490501061143e578d611445565b6001805490505b97506103e8881115611457576103e897505b61145f611e60565b9650876040519080825280602002602001820160405280156114905781602001602082028038833980820191505090505b509550876040519080825280602002602001820160405280156114c25781602001602082028038833980820191505090505b509450876040519080825280602002602001820160405280156114f45781602001602082028038833980820191505090505b509350876040519080825280602002602001820160405280156115265781602001602082028038833980820191505090505b509250876040519080825280602002602001820160405280156115585781602001602082028038833980820191505090505b509150600090505b878110156117b5576001878281518110151561157857fe5b9060200190602002015181548110151561158e57fe5b906000526020600020906005020160000160009054906101000a900473ffffffffffffffffffffffffffffffffffffffff1686828151811015156115ce57fe5b9060200190602002019073ffffffffffffffffffffffffffffffffffffffff16908173ffffffffffffffffffffffffffffffffffffffff16815250506001878281518110151561161a57fe5b9060200190602002015181548110151561163057fe5b906000526020600020906005020160010160009054906101000a900473ffffffffffffffffffffffffffffffffffffffff16858281518110151561167057fe5b9060200190602002019073ffffffffffffffffffffffffffffffffffffffff16908173ffffffffffffffffffffffffffffffffffffffff1681525050600187828151811015156116bc57fe5b906020019060200201518154811015156116d257fe5b90600052602060002090600502016002015484828151811015156116f257fe5b90602001906020020181815250506001878281518110151561171057fe5b9060200190602002015181548110151561172657fe5b906000526020600020906005020160030154838281518110151561174657fe5b90602001906020020181815250506001878281518110151561176457fe5b9060200190602002015181548110151561177a57fe5b906000526020600020906005020160040154828281518110151561179a57fe5b90602001906020020181815250508080600101915050611560565b85858585859c509c509c509c509c50505050505050505091939590929450565b60606117e8838360006001875103611f7d565b81905092915050565b6117f96112c2565b1515611893576040517f08c379a00000000000000000000000000000000000000000000000000000000081526004018080602001828103825260268152602001807f4f6e6c7920746865206f776e65722063616e20706572666f726d20746869732081526020017f616374696f6e000000000000000000000000000000000000000000000000000081525060400191505060405180910390fd5b6001600260008373ffffffffffffffffffffffffffffffffffffffff1673ffffffffffffffffffffffffffffffffffffffff16815260200190815260200160002060006101000a81548160ff02191690831515021790555050565b6118f66112c2565b1515611990576040517f08c379a00000000000000000000000000000000000000000000000000000000081526004018080602001828103825260268152602001807f4f6e6c7920746865206f776e65722063616e20706572666f726d20746869732081526020017f616374696f6e000000000000000000000000000000000000000000000000000081525060400191505060405180910390fd5b61199981612148565b50565b60008082840190508381101515156119b057fe5b8091505092915050565b60008082848115156119c857fe5b0490508091505092915050565b6000806000849250839150818314156119ed57611b97565b8660028686038115156119fc57fe5b058601815181101515611a0b57fe5b9060200190602002015190505b8183131515611b6c575b808784815181101515611a3157fe5b906020019060200201511015611a4e578280600101935050611a22565b5b8682815181101515611a5d57fe5b90602001906020020151811015611a7c57818060019003925050611a4f565b8183131515611b67578682815181101515611a9357fe5b906020019060200201518784815181101515611aab57fe5b906020019060200201518885815181101515611ac357fe5b9060200190602002018985815181101515611ada57fe5b906020019060200201828152508281525050508582815181101515611afb57fe5b906020019060200201518684815181101515611b1357fe5b906020019060200201518785815181101515611b2b57fe5b9060200190602002018885815181101515611b4257fe5b9060200190602002018281525082815250505082806001019350508180600190039250505b611a18565b81851215611b8157611b80878787856119d5565b5b83831215611b9657611b95878785876119d5565b5b5b50505050505050565b600080600084925083915081831415611bb857611cf8565b856002868603811515611bc757fe5b058601815181101515611bd657fe5b9060200190602002015190505b8183131515611ccf575b808684815181101515611bfc57fe5b906020019060200201511015611c19578280600101935050611bed565b5b8582815181101515611c2857fe5b90602001906020020151811015611c4757818060019003925050611c1a565b8183131515611cca578582815181101515611c5e57fe5b906020019060200201518684815181101515611c7657fe5b906020019060200201518785815181101515611c8e57fe5b9060200190602002018885815181101515611ca557fe5b9060200190602002018281525082815250505082806001019350508180600190039250505b611be3565b81851215611ce357611ce2868684611ba0565b5b83831215611cf757611cf6868486611ba0565b5b5b505050505050565b600080600084925083915081831415611d1857611e58565b856002868603811515611d2757fe5b058601815181101515611d3657fe5b9060200190602002015190505b8183131515611e2f575b808684815181101515611d5c57fe5b906020019060200201511115611d79578280600101935050611d4d565b5b8582815181101515611d8857fe5b90602001906020020151811115611da757818060019003925050611d7a565b8183131515611e2a578582815181101515611dbe57fe5b906020019060200201518684815181101515611dd657fe5b906020019060200201518785815181101515611dee57fe5b9060200190602002018885815181101515611e0557fe5b9060200190602002018281525082815250505082806001019350508180600190039250505b611d43565b81851215611e4357611e42868684611d00565b5b83831215611e5757611e56868486611d00565b5b5b505050505050565b606080606060006060600180549050604051908082528060200260200182016040528015611e9d5781602001602082028038833980820191505090505b509350600180549050604051908082528060200260200182016040528015611ed45781602001602082028038833980820191505090505b50925060006001805490501415611eed57829450611f76565b600091505b600180549050821015611f6657600182815481101515611f0e57fe5b9060005260206000209060050201600401548483815181101515611f2e57fe5b9060200190602002018181525050818383815181101515611f4b57fe5b90602001906020020181815250508180600101925050611ef2565b611f7084846117d5565b90508094505b5050505090565b600080600084925083915081831415611f955761213f565b866002868603811515611fa457fe5b058601815181101515611fb357fe5b9060200190602002015190505b8183131515612114575b808784815181101515611fd957fe5b906020019060200201511115611ff6578280600101935050611fca565b5b868281518110151561200557fe5b9060200190602002015181111561202457818060019003925050611ff7565b818313151561210f57868281518110151561203b57fe5b90602001906020020151878481518110151561205357fe5b90602001906020020151888581518110151561206b57fe5b906020019060200201898581518110151561208257fe5b9060200190602002018281525082815250505085828151811015156120a357fe5b9060200190602002015186848151811015156120bb57fe5b9060200190602002015187858151811015156120d357fe5b90602001906020020188858151811015156120ea57fe5b9060200190602002018281525082815250505082806001019350508180600190039250505b611fc0565b818512156121295761212887878785611f7d565b5b8383121561213e5761213d87878587611f7d565b5b5b50505050505050565b600073ffffffffffffffffffffffffffffffffffffffff168173ffffffffffffffffffffffffffffffffffffffff1614151515612213576040517f08c379a00000000000000000000000000000000000000000000000000000000081526004018080602001828103825260278152602001807f596f752063616e6e6f74207472616e7366657220746f20746865207a65726f2081526020017f616464726573730000000000000000000000000000000000000000000000000081525060400191505060405180910390fd5b8073ffffffffffffffffffffffffffffffffffffffff166000809054906101000a900473ffffffffffffffffffffffffffffffffffffffff1673ffffffffffffffffffffffffffffffffffffffff167f8be0079c531659141344cd1fd0a4f28419497f9722a3daafe3b4186f6b6457e060405160405180910390a3806000806101000a81548173ffffffffffffffffffffffffffffffffffffffff021916908373ffffffffffffffffffffffffffffffffffffffff160217905550505600a165627a7a723058204b475677ed1419e06f4a768f4b3f728a26ae18c59c84213f1bc320eab967cc220029",
  "source": "pragma solidity ^0.4.24;\n\nimport \"./SafeMath.sol\";\nimport \"./QuickSort.sol\";\nimport \"./Ownable.sol\";\n\ncontract History is QuickSort, Ownable {\n    using SafeMath for uint;\n\n    struct Trade {\n        address buyer;\n        address seller;\n        uint256 averagePrice;\n        uint256 quantity;\n        uint256 timeStamp;\n    }\n\n    Trade[] public _history;\n    mapping(address => bool) private _allowedWriters;\n\n    constructor() public {\n        _allowedWriters[msg.sender] = true;\n    }\n\n    function averageValueTradedInPeriod(uint256 from, uint256 to) public view returns(uint256) {\n        uint256 total = 0;\n        uint256 numberOfMatches = 0;\n\n        for (uint i = 0; i < _history.length; i++) {\n            if (_history[i].timeStamp >= from && _history[i].timeStamp <= to) {\n                total = total.add(_history[i].averagePrice);\n                numberOfMatches++;\n            }\n        }\n\n        if (numberOfMatches == 0) {\n            return 0;\n        }\n\n        return total.div(numberOfMatches);\n    }\n\n    function totalValueTradedInPeriod(uint256 from, uint256 to) public view returns(uint256) {\n        uint256 total = 0;\n\n        for (uint i = 0; i < _history.length; i++) {\n            if (_history[i].timeStamp >= from && _history[i].timeStamp <= to) {\n                total = total.add(_history[i].averagePrice);\n            }\n        }\n\n        return total;\n    }\n\n    function totalVolumeTradedInPeriod(uint256 from, uint256 to) public view returns(uint256) {\n        uint256 total = 0;\n\n        for (uint i = 0; i < _history.length; i++) {\n            if (_history[i].timeStamp >= from && _history[i].timeStamp <= to) {\n                total = total.add(_history[i].quantity);\n            }\n        }\n\n        return total;\n    }\n\n    function getHistory(uint256 numberOfTrades) public view returns(address[], address[], uint256[], uint256[], uint256[]) {\n        uint256 max = _history.length < numberOfTrades ? _history.length : numberOfTrades;\n\n        if (max > 1000) {\n            max = 1000;\n        }\n\n        uint256[] memory sortedIndexes = getTimeHistory();\n\n        address[] memory buyers = new address[](max);\n        address[] memory sellers = new address[](max);\n        uint256[] memory averagePrices = new uint256[](max);\n        uint256[] memory quantities = new uint256[](max);\n        uint256[] memory timeStamps = new uint256[](max);\n\n        for(uint256 i = 0; i < max; i++) {\n            buyers[i] = _history[sortedIndexes[i]].buyer;\n            sellers[i] = _history[sortedIndexes[i]].seller;\n            averagePrices[i] = _history[sortedIndexes[i]].averagePrice;\n            quantities[i] = _history[sortedIndexes[i]].quantity;\n            timeStamps[i] = _history[sortedIndexes[i]].timeStamp;\n        }\n\n        return (buyers, sellers, averagePrices, quantities, timeStamps);\n    }\n\n    function getTradeCount() public view returns (uint) {\n        return _history.length;\n    }\n\n    function getTimeHistory() internal view returns(uint256[]) {\n\n        uint256[] memory timeStamps = new uint256[](_history.length);\n        uint256[] memory indexes = new uint256[](_history.length);\n\n        if (_history.length == 0) {\n            return indexes;\n        }\n\n        for (uint i = 0; i < _history.length; i++) {\n            timeStamps[i] = _history[i].timeStamp;\n            indexes[i] = i;\n        }\n\n        uint256[] memory sortedIndexes = reverseSortWithIndex(timeStamps, indexes);\n        return sortedIndexes;\n    }\n\n    function addHistory(address buyer, address seller, uint256 price, uint256 quantity) external onlyWriters(\"Only writers can add history\") {\n        require(buyer != address(0), \"Invalid address\");\n        require(seller != address(0), \"Invalid address\");\n        _history.push(Trade(buyer, seller, price, quantity, now));\n\n        emit HistoryAdded(buyer, seller, price, quantity);\n    }\n\n    function addWriter(address who) public onlyOwner {\n        _allowedWriters[who] = true;\n    }\n\n    function denyWriter(address who) public onlyOwner {\n        _allowedWriters[who] = false;\n    }\n\n    modifier onlyWriters(string error) {\n        require(_allowedWriters[msg.sender] == true, error);\n        _;\n    }\n\n    event HistoryAdded(address buyer, address seller, uint256 price, uint256 quantity);\n}",
  "sourcePath": "/Users/mattb/Code/waterledger/contracts/contracts/History.sol",
  "compiler": {
    "name": "solc",
    "version": "0.4.24+commit.e67f0147.Emscripten.clang"
  },
  "schemaVersion": "3.0.19",
  "updatedAt": "2019-11-19T19:29:26.670Z",
  "devdoc": {
    "methods": {}
  },
  "userdoc": {
    "methods": {}
  }
}