{
  "contractName": "HistoryTesting",
  "abi": [
    {
      "constant": true,
      "inputs": [
        {
          "name": "from",
          "type": "uint256"
        },
        {
          "name": "to",
          "type": "uint256"
        }
      ],
      "name": "averageValueTradedInPeriod",
      "outputs": [
        {
          "name": "",
          "type": "uint256"
        }
      ],
      "payable": false,
      "stateMutability": "view",
      "type": "function"
    },
    {
      "constant": true,
      "inputs": [
        {
          "name": "data",
          "type": "uint256[]"
        },
        {
          "name": "indices",
          "type": "uint256[]"
        }
      ],
      "name": "sortWithIndex",
      "outputs": [
        {
          "name": "",
          "type": "uint256[]"
        }
      ],
      "payable": false,
      "stateMutability": "pure",
      "type": "function"
    },
    {
      "constant": true,
      "inputs": [
        {
          "name": "",
          "type": "uint256"
        }
      ],
      "name": "_history",
      "outputs": [
        {
          "name": "buyer",
          "type": "address"
        },
        {
          "name": "seller",
          "type": "address"
        },
        {
          "name": "averagePrice",
          "type": "uint256"
        },
        {
          "name": "quantity",
          "type": "uint256"
        },
        {
          "name": "timeStamp",
          "type": "uint256"
        }
      ],
      "payable": false,
      "stateMutability": "view",
      "type": "function"
    },
    {
      "constant": false,
      "inputs": [
        {
          "name": "buyer",
          "type": "address"
        },
        {
          "name": "seller",
          "type": "address"
        },
        {
          "name": "price",
          "type": "uint256"
        },
        {
          "name": "quantity",
          "type": "uint256"
        }
      ],
      "name": "addHistory",
      "outputs": [],
      "payable": false,
      "stateMutability": "nonpayable",
      "type": "function"
    },
    {
      "constant": false,
      "inputs": [
        {
          "name": "who",
          "type": "address"
        }
      ],
      "name": "denyWriter",
      "outputs": [],
      "payable": false,
      "stateMutability": "nonpayable",
      "type": "function"
    },
    {
      "constant": true,
      "inputs": [
        {
          "name": "from",
          "type": "uint256"
        },
        {
          "name": "to",
          "type": "uint256"
        }
      ],
      "name": "totalValueTradedInPeriod",
      "outputs": [
        {
          "name": "",
          "type": "uint256"
        }
      ],
      "payable": false,
      "stateMutability": "view",
      "type": "function"
    },
    {
      "constant": false,
      "inputs": [],
      "name": "renounceOwnership",
      "outputs": [],
      "payable": false,
      "stateMutability": "nonpayable",
      "type": "function"
    },
    {
      "constant": true,
      "inputs": [],
      "name": "owner",
      "outputs": [
        {
          "name": "",
          "type": "address"
        }
      ],
      "payable": false,
      "stateMutability": "view",
      "type": "function"
    },
    {
      "constant": true,
      "inputs": [],
      "name": "isOwner",
      "outputs": [
        {
          "name": "",
          "type": "bool"
        }
      ],
      "payable": false,
      "stateMutability": "view",
      "type": "function"
    },
    {
      "constant": true,
      "inputs": [
        {
          "name": "data",
          "type": "uint256[]"
        }
      ],
      "name": "sort",
      "outputs": [
        {
          "name": "",
          "type": "uint256[]"
        }
      ],
      "payable": false,
      "stateMutability": "pure",
      "type": "function"
    },
    {
      "constant": true,
      "inputs": [],
      "name": "getTradeCount",
      "outputs": [
        {
          "name": "",
          "type": "uint256"
        }
      ],
      "payable": false,
      "stateMutability": "view",
      "type": "function"
    },
    {
      "constant": true,
      "inputs": [
        {
          "name": "data",
          "type": "uint256[]"
        }
      ],
      "name": "reverseSort",
      "outputs": [
        {
          "name": "",
          "type": "uint256[]"
        }
      ],
      "payable": false,
      "stateMutability": "pure",
      "type": "function"
    },
    {
      "constant": true,
      "inputs": [
        {
          "name": "from",
          "type": "uint256"
        },
        {
          "name": "to",
          "type": "uint256"
        }
      ],
      "name": "totalVolumeTradedInPeriod",
      "outputs": [
        {
          "name": "",
          "type": "uint256"
        }
      ],
      "payable": false,
      "stateMutability": "view",
      "type": "function"
    },
    {
      "constant": true,
      "inputs": [
        {
          "name": "numberOfTrades",
          "type": "uint256"
        }
      ],
      "name": "getHistory",
      "outputs": [
        {
          "name": "",
          "type": "address[]"
        },
        {
          "name": "",
          "type": "address[]"
        },
        {
          "name": "",
          "type": "uint256[]"
        },
        {
          "name": "",
          "type": "uint256[]"
        },
        {
          "name": "",
          "type": "uint256[]"
        }
      ],
      "payable": false,
      "stateMutability": "view",
      "type": "function"
    },
    {
      "constant": true,
      "inputs": [
        {
          "name": "data",
          "type": "uint256[]"
        },
        {
          "name": "indices",
          "type": "uint256[]"
        }
      ],
      "name": "reverseSortWithIndex",
      "outputs": [
        {
          "name": "",
          "type": "uint256[]"
        }
      ],
      "payable": false,
      "stateMutability": "pure",
      "type": "function"
    },
    {
      "constant": false,
      "inputs": [
        {
          "name": "who",
          "type": "address"
        }
      ],
      "name": "addWriter",
      "outputs": [],
      "payable": false,
      "stateMutability": "nonpayable",
      "type": "function"
    },
    {
      "constant": false,
      "inputs": [
        {
          "name": "newOwner",
          "type": "address"
        }
      ],
      "name": "transferOwnership",
      "outputs": [],
      "payable": false,
      "stateMutability": "nonpayable",
      "type": "function"
    },
    {
      "anonymous": false,
      "inputs": [
        {
          "indexed": false,
          "name": "buyer",
          "type": "address"
        },
        {
          "indexed": false,
          "name": "seller",
          "type": "address"
        },
        {
          "indexed": false,
          "name": "price",
          "type": "uint256"
        },
        {
          "indexed": false,
          "name": "quantity",
          "type": "uint256"
        }
      ],
      "name": "HistoryAdded",
      "type": "event"
    },
    {
      "anonymous": false,
      "inputs": [
        {
          "indexed": true,
          "name": "previousOwner",
          "type": "address"
        }
      ],
      "name": "OwnershipRenounced",
      "type": "event"
    },
    {
      "anonymous": false,
      "inputs": [
        {
          "indexed": true,
          "name": "previousOwner",
          "type": "address"
        },
        {
          "indexed": true,
          "name": "newOwner",
          "type": "address"
        }
      ],
      "name": "OwnershipTransferred",
      "type": "event"
    },
    {
      "constant": false,
      "inputs": [
        {
          "name": "buyer",
          "type": "address"
        },
        {
          "name": "seller",
          "type": "address"
        },
        {
          "name": "price",
          "type": "uint256"
        },
        {
          "name": "quantity",
          "type": "uint256"
        },
        {
          "name": "timeStamp",
          "type": "uint256"
        }
      ],
      "name": "manualHistoryAdd",
      "outputs": [],
      "payable": false,
      "stateMutability": "nonpayable",
      "type": "function"
    }
  ],
  "bytecode": "0x6080604052336000806101000a81548173ffffffffffffffffffffffffffffffffffffffff021916908373ffffffffffffffffffffffffffffffffffffffff1602179055506001600260003373ffffffffffffffffffffffffffffffffffffffff1673ffffffffffffffffffffffffffffffffffffffff16815260200190815260200160002060006101000a81548160ff021916908315150217905550612567806100ab6000396000f3006080604052600436106100fc576000357c0100000000000000000000000000000000000000000000000000000000900463ffffffff1680630c38d8c014610101578063210ec4881461014c578063246161b41461024a5780633856cb4b146102ff57806359ebfd51146103765780636d748100146103b9578063715018a6146104045780637dbe0f6a1461041b5780638da5cb5b1461049c5780638f32d59b146104f35780639ec8b02614610522578063a3031b77146105dd578063aa44899714610608578063c08a9565146106c3578063c8691b2a1461070e578063d01fbaf9146108b0578063da2824a8146109ae578063f2fde38b146109f1575b600080fd5b34801561010d57600080fd5b506101366004803603810190808035906020019092919080359060200190929190505050610a34565b6040518082815260200191505060405180910390f35b34801561015857600080fd5b506101f36004803603810190808035906020019082018035906020019080806020026020016040519081016040528093929190818152602001838360200280828437820191505050505050919291929080359060200190820180359060200190808060200260200160405190810160405280939291908181526020018383602002808284378201915050505050509192919290505050610b25565b6040518080602001828103825283818151815260200191508051906020019060200280838360005b8381101561023657808201518184015260208101905061021b565b505050509050019250505060405180910390f35b34801561025657600080fd5b5061027560048036038101908080359060200190929190505050610b41565b604051808673ffffffffffffffffffffffffffffffffffffffff1673ffffffffffffffffffffffffffffffffffffffff1681526020018573ffffffffffffffffffffffffffffffffffffffff1673ffffffffffffffffffffffffffffffffffffffff1681526020018481526020018381526020018281526020019550505050505060405180910390f35b34801561030b57600080fd5b50610374600480360381019080803573ffffffffffffffffffffffffffffffffffffffff169060200190929190803573ffffffffffffffffffffffffffffffffffffffff1690602001909291908035906020019092919080359060200190929190505050610bc6565b005b34801561038257600080fd5b506103b7600480360381019080803573ffffffffffffffffffffffffffffffffffffffff169060200190929190505050611022565b005b3480156103c557600080fd5b506103ee600480360381019080803590602001909291908035906020019092919050505061111f565b6040518082815260200191505060405180910390f35b34801561041057600080fd5b506104196111dc565b005b34801561042757600080fd5b5061049a600480360381019080803573ffffffffffffffffffffffffffffffffffffffff169060200190929190803573ffffffffffffffffffffffffffffffffffffffff169060200190929190803590602001909291908035906020019092919080359060200190929190505050611325565b005b3480156104a857600080fd5b506104b1611503565b604051808273ffffffffffffffffffffffffffffffffffffffff1673ffffffffffffffffffffffffffffffffffffffff16815260200191505060405180910390f35b3480156104ff57600080fd5b5061050861152c565b604051808215151515815260200191505060405180910390f35b34801561052e57600080fd5b5061058660048036038101908080359060200190820180359060200190808060200260200160405190810160405280939291908181526020018383602002808284378201915050505050509192919290505050611583565b6040518080602001828103825283818151815260200191508051906020019060200280838360005b838110156105c95780820151818401526020810190506105ae565b505050509050019250505060405180910390f35b3480156105e957600080fd5b506105f261159d565b6040518082815260200191505060405180910390f35b34801561061457600080fd5b5061066c600480360381019080803590602001908201803590602001908080602002602001604051908101604052809392919081815260200183836020028082843782019150505050505091929192905050506115aa565b6040518080602001828103825283818151815260200191508051906020019060200280838360005b838110156106af578082015181840152602081019050610694565b505050509050019250505060405180910390f35b3480156106cf57600080fd5b506106f860048036038101908080359060200190929190803590602001909291905050506115c4565b6040518082815260200191505060405180910390f35b34801561071a57600080fd5b5061073960048036038101908080359060200190929190505050611681565b60405180806020018060200180602001806020018060200186810386528b818151815260200191508051906020019060200280838360005b8381101561078c578082015181840152602081019050610771565b5050505090500186810385528a818151815260200191508051906020019060200280838360005b838110156107ce5780820151818401526020810190506107b3565b50505050905001868103845289818151815260200191508051906020019060200280838360005b838110156108105780820151818401526020810190506107f5565b50505050905001868103835288818151815260200191508051906020019060200280838360005b83811015610852578082015181840152602081019050610837565b50505050905001868103825287818151815260200191508051906020019060200280838360005b83811015610894578082015181840152602081019050610879565b505050509050019a505050505050505050505060405180910390f35b3480156108bc57600080fd5b506109576004803603810190808035906020019082018035906020019080806020026020016040519081016040528093929190818152602001838360200280828437820191505050505050919291929080359060200190820180359060200190808060200260200160405190810160405280939291908181526020018383602002808284378201915050505050509192919290505050611a3f565b6040518080602001828103825283818151815260200191508051906020019060200280838360005b8381101561099a57808201518184015260208101905061097f565b505050509050019250505060405180910390f35b3480156109ba57600080fd5b506109ef600480360381019080803573ffffffffffffffffffffffffffffffffffffffff169060200190929190505050611a5b565b005b3480156109fd57600080fd5b50610a32600480360381019080803573ffffffffffffffffffffffffffffffffffffffff169060200190929190505050611b58565b005b6000806000806000925060009150600090505b600180549050811015610af45785600182815481101515610a6457fe5b90600052602060002090600502016004015410158015610aa4575084600182815481101515610a8f57fe5b90600052602060002090600502016004015411155b15610ae757610adc600182815481101515610abb57fe5b90600052602060002090600502016002015484611c0690919063ffffffff16565b925081806001019250505b8080600101915050610a47565b6000821415610b065760009350610b1c565b610b198284611c2490919063ffffffff16565b93505b50505092915050565b6060610b38838360006001875103611c3f565b81905092915050565b600181815481101515610b5057fe5b90600052602060002090600502016000915090508060000160009054906101000a900473ffffffffffffffffffffffffffffffffffffffff16908060010160009054906101000a900473ffffffffffffffffffffffffffffffffffffffff16908060020154908060030154908060040154905085565b6040805190810160405280601c81526020017f4f6e6c7920777269746572732063616e2061646420686973746f72790000000081525060011515600260003373ffffffffffffffffffffffffffffffffffffffff1673ffffffffffffffffffffffffffffffffffffffff16815260200190815260200160002060009054906101000a900460ff1615151481901515610cf9576040517f08c379a00000000000000000000000000000000000000000000000000000000081526004018080602001828103825283818151815260200191508051906020019080838360005b83811015610cbe578082015181840152602081019050610ca3565b50505050905090810190601f168015610ceb5780820380516001836020036101000a031916815260200191505b509250505060405180910390fd5b50600073ffffffffffffffffffffffffffffffffffffffff168573ffffffffffffffffffffffffffffffffffffffff1614151515610d9f576040517f08c379a000000000000000000000000000000000000000000000000000000000815260040180806020018281038252600f8152602001807f496e76616c69642061646472657373000000000000000000000000000000000081525060200191505060405180910390fd5b600073ffffffffffffffffffffffffffffffffffffffff168473ffffffffffffffffffffffffffffffffffffffff1614151515610e44576040517f08c379a000000000000000000000000000000000000000000000000000000000815260040180806020018281038252600f8152602001807f496e76616c69642061646472657373000000000000000000000000000000000081525060200191505060405180910390fd5b600160a0604051908101604052808773ffffffffffffffffffffffffffffffffffffffff1681526020018673ffffffffffffffffffffffffffffffffffffffff168152602001858152602001848152602001428152509080600181540180825580915050906001820390600052602060002090600502016000909192909190915060008201518160000160006101000a81548173ffffffffffffffffffffffffffffffffffffffff021916908373ffffffffffffffffffffffffffffffffffffffff16021790555060208201518160010160006101000a81548173ffffffffffffffffffffffffffffffffffffffff021916908373ffffffffffffffffffffffffffffffffffffffff1602179055506040820151816002015560608201518160030155608082015181600401555050507fbb9874a45ae6522a2b4b6f6bc85dfeeb5c77782586c28c46302173a72de4d8ff85858585604051808573ffffffffffffffffffffffffffffffffffffffff1673ffffffffffffffffffffffffffffffffffffffff1681526020018473ffffffffffffffffffffffffffffffffffffffff1673ffffffffffffffffffffffffffffffffffffffff16815260200183815260200182815260200194505050505060405180910390a15050505050565b61102a61152c565b15156110c4576040517f08c379a00000000000000000000000000000000000000000000000000000000081526004018080602001828103825260268152602001807f4f6e6c7920746865206f776e65722063616e20706572666f726d20746869732081526020017f616374696f6e000000000000000000000000000000000000000000000000000081525060400191505060405180910390fd5b6000600260008373ffffffffffffffffffffffffffffffffffffffff1673ffffffffffffffffffffffffffffffffffffffff16815260200190815260200160002060006101000a81548160ff02191690831515021790555050565b6000806000809150600090505b6001805490508110156111d1578460018281548110151561114957fe5b9060005260206000209060050201600401541015801561118957508360018281548110151561117457fe5b90600052602060002090600502016004015411155b156111c4576111c16001828154811015156111a057fe5b90600052602060002090600502016002015483611c0690919063ffffffff16565b91505b808060010191505061112c565b819250505092915050565b6111e461152c565b151561127e576040517f08c379a00000000000000000000000000000000000000000000000000000000081526004018080602001828103825260268152602001807f4f6e6c7920746865206f776e65722063616e20706572666f726d20746869732081526020017f616374696f6e000000000000000000000000000000000000000000000000000081525060400191505060405180910390fd5b6000809054906101000a900473ffffffffffffffffffffffffffffffffffffffff1673ffffffffffffffffffffffffffffffffffffffff167ff8df31144d9c2f0f6b59d69b8b98abd5459d07f2742c4df920b25aae33c6482060405160405180910390a260008060006101000a81548173ffffffffffffffffffffffffffffffffffffffff021916908373ffffffffffffffffffffffffffffffffffffffff160217905550565b600160a0604051908101604052808773ffffffffffffffffffffffffffffffffffffffff1681526020018673ffffffffffffffffffffffffffffffffffffffff168152602001858152602001848152602001838152509080600181540180825580915050906001820390600052602060002090600502016000909192909190915060008201518160000160006101000a81548173ffffffffffffffffffffffffffffffffffffffff021916908373ffffffffffffffffffffffffffffffffffffffff16021790555060208201518160010160006101000a81548173ffffffffffffffffffffffffffffffffffffffff021916908373ffffffffffffffffffffffffffffffffffffffff1602179055506040820151816002015560608201518160030155608082015181600401555050507fbb9874a45ae6522a2b4b6f6bc85dfeeb5c77782586c28c46302173a72de4d8ff85858585604051808573ffffffffffffffffffffffffffffffffffffffff1673ffffffffffffffffffffffffffffffffffffffff1681526020018473ffffffffffffffffffffffffffffffffffffffff1673ffffffffffffffffffffffffffffffffffffffff16815260200183815260200182815260200194505050505060405180910390a15050505050565b60008060009054906101000a900473ffffffffffffffffffffffffffffffffffffffff16905090565b60008060009054906101000a900473ffffffffffffffffffffffffffffffffffffffff1673ffffffffffffffffffffffffffffffffffffffff163373ffffffffffffffffffffffffffffffffffffffff1614905090565b60606115958260006001855103611e0a565b819050919050565b6000600180549050905090565b60606115bc8260006001855103611f6a565b819050919050565b6000806000809150600090505b60018054905081101561167657846001828154811015156115ee57fe5b9060005260206000209060050201600401541015801561162e57508360018281548110151561161957fe5b90600052602060002090600502016004015411155b156116695761166660018281548110151561164557fe5b90600052602060002090600502016003015483611c0690919063ffffffff16565b91505b80806001019150506115d1565b819250505092915050565b6060806060806060600060608060608060608060008d600180549050106116a8578d6116af565b6001805490505b97506103e88811156116c1576103e897505b6116c96120ca565b9650876040519080825280602002602001820160405280156116fa5781602001602082028038833980820191505090505b5095508760405190808252806020026020018201604052801561172c5781602001602082028038833980820191505090505b5094508760405190808252806020026020018201604052801561175e5781602001602082028038833980820191505090505b509350876040519080825280602002602001820160405280156117905781602001602082028038833980820191505090505b509250876040519080825280602002602001820160405280156117c25781602001602082028038833980820191505090505b509150600090505b87811015611a1f57600187828151811015156117e257fe5b906020019060200201518154811015156117f857fe5b906000526020600020906005020160000160009054906101000a900473ffffffffffffffffffffffffffffffffffffffff16868281518110151561183857fe5b9060200190602002019073ffffffffffffffffffffffffffffffffffffffff16908173ffffffffffffffffffffffffffffffffffffffff16815250506001878281518110151561188457fe5b9060200190602002015181548110151561189a57fe5b906000526020600020906005020160010160009054906101000a900473ffffffffffffffffffffffffffffffffffffffff1685828151811015156118da57fe5b9060200190602002019073ffffffffffffffffffffffffffffffffffffffff16908173ffffffffffffffffffffffffffffffffffffffff16815250506001878281518110151561192657fe5b9060200190602002015181548110151561193c57fe5b906000526020600020906005020160020154848281518110151561195c57fe5b90602001906020020181815250506001878281518110151561197a57fe5b9060200190602002015181548110151561199057fe5b90600052602060002090600502016003015483828151811015156119b057fe5b9060200190602002018181525050600187828151811015156119ce57fe5b906020019060200201518154811015156119e457fe5b9060005260206000209060050201600401548282815181101515611a0457fe5b906020019060200201818152505080806001019150506117ca565b85858585859c509c509c509c509c50505050505050505091939590929450565b6060611a528383600060018751036121e7565b81905092915050565b611a6361152c565b1515611afd576040517f08c379a00000000000000000000000000000000000000000000000000000000081526004018080602001828103825260268152602001807f4f6e6c7920746865206f776e65722063616e20706572666f726d20746869732081526020017f616374696f6e000000000000000000000000000000000000000000000000000081525060400191505060405180910390fd5b6001600260008373ffffffffffffffffffffffffffffffffffffffff1673ffffffffffffffffffffffffffffffffffffffff16815260200190815260200160002060006101000a81548160ff02191690831515021790555050565b611b6061152c565b1515611bfa576040517f08c379a00000000000000000000000000000000000000000000000000000000081526004018080602001828103825260268152602001807f4f6e6c7920746865206f776e65722063616e20706572666f726d20746869732081526020017f616374696f6e000000000000000000000000000000000000000000000000000081525060400191505060405180910390fd5b611c03816123b2565b50565b6000808284019050838110151515611c1a57fe5b8091505092915050565b6000808284811515611c3257fe5b0490508091505092915050565b600080600084925083915081831415611c5757611e01565b866002868603811515611c6657fe5b058601815181101515611c7557fe5b9060200190602002015190505b8183131515611dd6575b808784815181101515611c9b57fe5b906020019060200201511015611cb8578280600101935050611c8c565b5b8682815181101515611cc757fe5b90602001906020020151811015611ce657818060019003925050611cb9565b8183131515611dd1578682815181101515611cfd57fe5b906020019060200201518784815181101515611d1557fe5b906020019060200201518885815181101515611d2d57fe5b9060200190602002018985815181101515611d4457fe5b906020019060200201828152508281525050508582815181101515611d6557fe5b906020019060200201518684815181101515611d7d57fe5b906020019060200201518785815181101515611d9557fe5b9060200190602002018885815181101515611dac57fe5b9060200190602002018281525082815250505082806001019350508180600190039250505b611c82565b81851215611deb57611dea87878785611c3f565b5b83831215611e0057611dff87878587611c3f565b5b5b50505050505050565b600080600084925083915081831415611e2257611f62565b856002868603811515611e3157fe5b058601815181101515611e4057fe5b9060200190602002015190505b8183131515611f39575b808684815181101515611e6657fe5b906020019060200201511015611e83578280600101935050611e57565b5b8582815181101515611e9257fe5b90602001906020020151811015611eb157818060019003925050611e84565b8183131515611f34578582815181101515611ec857fe5b906020019060200201518684815181101515611ee057fe5b906020019060200201518785815181101515611ef857fe5b9060200190602002018885815181101515611f0f57fe5b9060200190602002018281525082815250505082806001019350508180600190039250505b611e4d565b81851215611f4d57611f4c868684611e0a565b5b83831215611f6157611f60868486611e0a565b5b5b505050505050565b600080600084925083915081831415611f82576120c2565b856002868603811515611f9157fe5b058601815181101515611fa057fe5b9060200190602002015190505b8183131515612099575b808684815181101515611fc657fe5b906020019060200201511115611fe3578280600101935050611fb7565b5b8582815181101515611ff257fe5b9060200190602002015181111561201157818060019003925050611fe4565b818313151561209457858281518110151561202857fe5b90602001906020020151868481518110151561204057fe5b90602001906020020151878581518110151561205857fe5b906020019060200201888581518110151561206f57fe5b9060200190602002018281525082815250505082806001019350508180600190039250505b611fad565b818512156120ad576120ac868684611f6a565b5b838312156120c1576120c0868486611f6a565b5b5b505050505050565b6060806060600060606001805490506040519080825280602002602001820160405280156121075781602001602082028038833980820191505090505b50935060018054905060405190808252806020026020018201604052801561213e5781602001602082028038833980820191505090505b50925060006001805490501415612157578294506121e0565b600091505b6001805490508210156121d05760018281548110151561217857fe5b906000526020600020906005020160040154848381518110151561219857fe5b90602001906020020181815250508183838151811015156121b557fe5b9060200190602002018181525050818060010192505061215c565b6121da8484611a3f565b90508094505b5050505090565b6000806000849250839150818314156121ff576123a9565b86600286860381151561220e57fe5b05860181518110151561221d57fe5b9060200190602002015190505b818313151561237e575b80878481518110151561224357fe5b906020019060200201511115612260578280600101935050612234565b5b868281518110151561226f57fe5b9060200190602002015181111561228e57818060019003925050612261565b81831315156123795786828151811015156122a557fe5b9060200190602002015187848151811015156122bd57fe5b9060200190602002015188858151811015156122d557fe5b90602001906020020189858151811015156122ec57fe5b90602001906020020182815250828152505050858281518110151561230d57fe5b90602001906020020151868481518110151561232557fe5b90602001906020020151878581518110151561233d57fe5b906020019060200201888581518110151561235457fe5b9060200190602002018281525082815250505082806001019350508180600190039250505b61222a565b8185121561239357612392878787856121e7565b5b838312156123a8576123a7878785876121e7565b5b5b50505050505050565b600073ffffffffffffffffffffffffffffffffffffffff168173ffffffffffffffffffffffffffffffffffffffff161415151561247d576040517f08c379a00000000000000000000000000000000000000000000000000000000081526004018080602001828103825260278152602001807f596f752063616e6e6f74207472616e7366657220746f20746865207a65726f2081526020017f616464726573730000000000000000000000000000000000000000000000000081525060400191505060405180910390fd5b8073ffffffffffffffffffffffffffffffffffffffff166000809054906101000a900473ffffffffffffffffffffffffffffffffffffffff1673ffffffffffffffffffffffffffffffffffffffff167f8be0079c531659141344cd1fd0a4f28419497f9722a3daafe3b4186f6b6457e060405160405180910390a3806000806101000a81548173ffffffffffffffffffffffffffffffffffffffff021916908373ffffffffffffffffffffffffffffffffffffffff160217905550505600a165627a7a723058203f85fd72548de4b49aa0e4ae4d922028f1cfb82a6732f5e1f3626428fa11f6080029",
  "source": "pragma solidity ^0.4.24;\n\nimport \"./History.sol\";\n\ncontract HistoryTesting is History {\n    function manualHistoryAdd(address buyer, address seller, uint256 price, uint256 quantity, uint timeStamp) public {\n\n        _history.push(Trade(buyer, seller, price, quantity, timeStamp));\n\n        emit HistoryAdded(buyer, seller, price, quantity);\n    }\n}",
  "sourcePath": "/Users/mattb/Code/waterledger/contracts/contracts/HistoryTesting.sol",
  "compiler": {
    "name": "solc",
    "version": "0.4.24+commit.e67f0147.Emscripten.clang"
  },
  "schemaVersion": "3.0.19",
  "updatedAt": "2019-11-19T19:29:26.673Z",
  "devdoc": {
    "methods": {}
  },
  "userdoc": {
    "methods": {}
  }
}