{
  "contractName": "OrderBook",
  "abi": [
    {
      "constant": true,
      "inputs": [
        {
          "name": "",
          "type": "uint256"
        }
      ],
      "name": "_buys",
      "outputs": [
        {
          "name": "orderType",
          "type": "uint8"
        },
        {
          "name": "owner",
          "type": "address"
        },
        {
          "name": "price",
          "type": "uint256"
        },
        {
          "name": "quantity",
          "type": "uint256"
        },
        {
          "name": "timeStamp",
          "type": "uint256"
        },
        {
          "name": "matchedTimeStamp",
          "type": "uint256"
        }
      ],
      "payable": false,
      "stateMutability": "view",
      "type": "function"
    },
    {
      "constant": true,
      "inputs": [
        {
          "name": "data",
          "type": "uint256[]"
        },
        {
          "name": "indices",
          "type": "uint256[]"
        }
      ],
      "name": "sortWithIndex",
      "outputs": [
        {
          "name": "",
          "type": "uint256[]"
        }
      ],
      "payable": false,
      "stateMutability": "pure",
      "type": "function"
    },
    {
      "constant": true,
      "inputs": [],
      "name": "_aud",
      "outputs": [
        {
          "name": "",
          "type": "address"
        }
      ],
      "payable": false,
      "stateMutability": "view",
      "type": "function"
    },
    {
      "constant": true,
      "inputs": [],
      "name": "_stats",
      "outputs": [
        {
          "name": "",
          "type": "address"
        }
      ],
      "payable": false,
      "stateMutability": "view",
      "type": "function"
    },
    {
      "constant": false,
      "inputs": [],
      "name": "renounceOwnership",
      "outputs": [],
      "payable": false,
      "stateMutability": "nonpayable",
      "type": "function"
    },
    {
      "constant": true,
      "inputs": [],
      "name": "owner",
      "outputs": [
        {
          "name": "",
          "type": "address"
        }
      ],
      "payable": false,
      "stateMutability": "view",
      "type": "function"
    },
    {
      "constant": true,
      "inputs": [],
      "name": "isOwner",
      "outputs": [
        {
          "name": "",
          "type": "bool"
        }
      ],
      "payable": false,
      "stateMutability": "view",
      "type": "function"
    },
    {
      "constant": true,
      "inputs": [
        {
          "name": "data",
          "type": "uint256[]"
        }
      ],
      "name": "sort",
      "outputs": [
        {
          "name": "",
          "type": "uint256[]"
        }
      ],
      "payable": false,
      "stateMutability": "pure",
      "type": "function"
    },
    {
      "constant": true,
      "inputs": [
        {
          "name": "data",
          "type": "uint256[]"
        }
      ],
      "name": "reverseSort",
      "outputs": [
        {
          "name": "",
          "type": "uint256[]"
        }
      ],
      "payable": false,
      "stateMutability": "pure",
      "type": "function"
    },
    {
      "constant": true,
      "inputs": [
        {
          "name": "",
          "type": "uint256"
        }
      ],
      "name": "_sells",
      "outputs": [
        {
          "name": "orderType",
          "type": "uint8"
        },
        {
          "name": "owner",
          "type": "address"
        },
        {
          "name": "price",
          "type": "uint256"
        },
        {
          "name": "quantity",
          "type": "uint256"
        },
        {
          "name": "timeStamp",
          "type": "uint256"
        },
        {
          "name": "matchedTimeStamp",
          "type": "uint256"
        }
      ],
      "payable": false,
      "stateMutability": "view",
      "type": "function"
    },
    {
      "constant": true,
      "inputs": [],
      "name": "_water",
      "outputs": [
        {
          "name": "",
          "type": "address"
        }
      ],
      "payable": false,
      "stateMutability": "view",
      "type": "function"
    },
    {
      "constant": true,
      "inputs": [
        {
          "name": "data",
          "type": "uint256[]"
        },
        {
          "name": "indices",
          "type": "uint256[]"
        }
      ],
      "name": "reverseSortWithIndex",
      "outputs": [
        {
          "name": "",
          "type": "uint256[]"
        }
      ],
      "payable": false,
      "stateMutability": "pure",
      "type": "function"
    },
    {
      "constant": true,
      "inputs": [],
      "name": "_history",
      "outputs": [
        {
          "name": "",
          "type": "address"
        }
      ],
      "payable": false,
      "stateMutability": "view",
      "type": "function"
    },
    {
      "constant": false,
      "inputs": [
        {
          "name": "newOwner",
          "type": "address"
        }
      ],
      "name": "transferOwnership",
      "outputs": [],
      "payable": false,
      "stateMutability": "nonpayable",
      "type": "function"
    },
    {
      "constant": true,
      "inputs": [],
      "name": "_tradingZones",
      "outputs": [
        {
          "name": "",
          "type": "address"
        }
      ],
      "payable": false,
      "stateMutability": "view",
      "type": "function"
    },
    {
      "inputs": [
        {
          "name": "audContract",
          "type": "address"
        },
        {
          "name": "historyContract",
          "type": "address"
        },
        {
          "name": "statsContract",
          "type": "address"
        },
        {
          "name": "waterContract",
          "type": "address"
        },
        {
          "name": "tradingZonesContract",
          "type": "address"
        }
      ],
      "payable": false,
      "stateMutability": "nonpayable",
      "type": "constructor"
    },
    {
      "anonymous": false,
      "inputs": [
        {
          "indexed": false,
          "name": "_stats",
          "type": "address"
        }
      ],
      "name": "OrderAdded",
      "type": "event"
    },
    {
      "anonymous": false,
      "inputs": [
        {
          "indexed": true,
          "name": "owner",
          "type": "address"
        },
        {
          "indexed": false,
          "name": "price",
          "type": "uint256"
        },
        {
          "indexed": false,
          "name": "quantity",
          "type": "uint256"
        }
      ],
      "name": "Matched",
      "type": "event"
    },
    {
      "anonymous": false,
      "inputs": [
        {
          "indexed": true,
          "name": "previousOwner",
          "type": "address"
        }
      ],
      "name": "OwnershipRenounced",
      "type": "event"
    },
    {
      "anonymous": false,
      "inputs": [
        {
          "indexed": true,
          "name": "previousOwner",
          "type": "address"
        },
        {
          "indexed": true,
          "name": "newOwner",
          "type": "address"
        }
      ],
      "name": "OwnershipTransferred",
      "type": "event"
    },
    {
      "constant": true,
      "inputs": [
        {
          "name": "index",
          "type": "uint256"
        }
      ],
      "name": "getBuyOrderStructByIndex",
      "outputs": [
        {
          "components": [
            {
              "name": "orderType",
              "type": "uint8"
            },
            {
              "name": "owner",
              "type": "address"
            },
            {
              "name": "price",
              "type": "uint256"
            },
            {
              "name": "quantity",
              "type": "uint256"
            },
            {
              "name": "timeStamp",
              "type": "uint256"
            },
            {
              "name": "matchedTimeStamp",
              "type": "uint256"
            }
          ],
          "name": "",
          "type": "tuple"
        }
      ],
      "payable": false,
      "stateMutability": "view",
      "type": "function"
    },
    {
      "constant": true,
      "inputs": [],
      "name": "getTradingZone",
      "outputs": [
        {
          "name": "",
          "type": "uint256"
        },
        {
          "name": "",
          "type": "string"
        }
      ],
      "payable": false,
      "stateMutability": "view",
      "type": "function"
    },
    {
      "constant": false,
      "inputs": [
        {
          "name": "tradingZoneId",
          "type": "uint256"
        }
      ],
      "name": "setTradingZone",
      "outputs": [],
      "payable": false,
      "stateMutability": "nonpayable",
      "type": "function"
    },
    {
      "constant": false,
      "inputs": [
        {
          "name": "price",
          "type": "uint256"
        },
        {
          "name": "quantity",
          "type": "uint256"
        }
      ],
      "name": "addSellLimitOrder",
      "outputs": [],
      "payable": false,
      "stateMutability": "nonpayable",
      "type": "function"
    },
    {
      "constant": false,
      "inputs": [
        {
          "name": "price",
          "type": "uint256"
        },
        {
          "name": "quantity",
          "type": "uint256"
        }
      ],
      "name": "addBuyLimitOrder",
      "outputs": [],
      "payable": false,
      "stateMutability": "nonpayable",
      "type": "function"
    },
    {
      "constant": true,
      "inputs": [],
      "name": "getOrderBook",
      "outputs": [
        {
          "name": "",
          "type": "uint8[]"
        },
        {
          "name": "",
          "type": "address[]"
        },
        {
          "name": "",
          "type": "uint256[]"
        },
        {
          "name": "",
          "type": "uint256[]"
        },
        {
          "name": "",
          "type": "uint256[]"
        }
      ],
      "payable": false,
      "stateMutability": "view",
      "type": "function"
    },
    {
      "constant": true,
      "inputs": [
        {
          "name": "numberOfOrders",
          "type": "uint256"
        }
      ],
      "name": "getOrderBookSells",
      "outputs": [
        {
          "name": "",
          "type": "uint8[]"
        },
        {
          "name": "",
          "type": "address[]"
        },
        {
          "name": "",
          "type": "uint256[]"
        },
        {
          "name": "",
          "type": "uint256[]"
        },
        {
          "name": "",
          "type": "uint256[]"
        }
      ],
      "payable": false,
      "stateMutability": "view",
      "type": "function"
    },
    {
      "constant": true,
      "inputs": [
        {
          "name": "numberOfOrders",
          "type": "uint256"
        }
      ],
      "name": "getOrderBookBuys",
      "outputs": [
        {
          "name": "",
          "type": "uint8[]"
        },
        {
          "name": "",
          "type": "address[]"
        },
        {
          "name": "",
          "type": "uint256[]"
        },
        {
          "name": "",
          "type": "uint256[]"
        },
        {
          "name": "",
          "type": "uint256[]"
        }
      ],
      "payable": false,
      "stateMutability": "view",
      "type": "function"
    },
    {
      "constant": true,
      "inputs": [],
      "name": "lowestSell",
      "outputs": [
        {
          "name": "",
          "type": "address"
        },
        {
          "name": "",
          "type": "uint256"
        },
        {
          "name": "",
          "type": "uint256"
        },
        {
          "name": "",
          "type": "uint256"
        }
      ],
      "payable": false,
      "stateMutability": "view",
      "type": "function"
    },
    {
      "constant": true,
      "inputs": [],
      "name": "highestBuy",
      "outputs": [
        {
          "name": "",
          "type": "address"
        },
        {
          "name": "",
          "type": "uint256"
        },
        {
          "name": "",
          "type": "uint256"
        },
        {
          "name": "",
          "type": "uint256"
        }
      ],
      "payable": false,
      "stateMutability": "view",
      "type": "function"
    },
    {
      "constant": true,
      "inputs": [],
      "name": "getSellsCount",
      "outputs": [
        {
          "name": "",
          "type": "uint256"
        }
      ],
      "payable": false,
      "stateMutability": "view",
      "type": "function"
    },
    {
      "constant": true,
      "inputs": [],
      "name": "getBuysCount",
      "outputs": [
        {
          "name": "",
          "type": "uint256"
        }
      ],
      "payable": false,
      "stateMutability": "view",
      "type": "function"
    }
  ],
  "bytecode": "0x60806040523480156200001157600080fd5b5060405160a08062004c388339810180604052620000339190810190620001d9565b336000806101000a81548173ffffffffffffffffffffffffffffffffffffffff021916908373ffffffffffffffffffffffffffffffffffffffff16021790555084600260006101000a81548173ffffffffffffffffffffffffffffffffffffffff021916908373ffffffffffffffffffffffffffffffffffffffff16021790555083600460006101000a81548173ffffffffffffffffffffffffffffffffffffffff021916908373ffffffffffffffffffffffffffffffffffffffff16021790555082600360006101000a81548173ffffffffffffffffffffffffffffffffffffffff021916908373ffffffffffffffffffffffffffffffffffffffff16021790555081600160006101000a81548173ffffffffffffffffffffffffffffffffffffffff021916908373ffffffffffffffffffffffffffffffffffffffff16021790555080600560006101000a81548173ffffffffffffffffffffffffffffffffffffffff021916908373ffffffffffffffffffffffffffffffffffffffff16021790555050505050506200027b565b6000620001d182516200025b565b905092915050565b600080600080600060a08688031215620001f257600080fd5b60006200020288828901620001c3565b95505060206200021588828901620001c3565b94505060406200022888828901620001c3565b93505060606200023b88828901620001c3565b92505060806200024e88828901620001c3565b9150509295509295909350565b600073ffffffffffffffffffffffffffffffffffffffff82169050919050565b6149ad806200028b6000396000f30060806040526004361061015f576000357c0100000000000000000000000000000000000000000000000000000000900463ffffffff168063035bbaba1461016457806313b44c3e1461018d578063210ec488146101cf578063378ef32f1461020c5780635b14e6c5146102385780635f712dbf1461026357806365f127ee1461028e5780636922bcf6146102cf578063715018a6146102fa578063724d850b146103115780638da5cb5b1461033c5780638f32d59b146103675780639ec8b02614610392578063a2d7143a146103cf578063a9d9a454146103fd578063aa4489971461042b578063b248c4ef14610468578063b3540c8b14610497578063b7cb03d1146104d9578063c330a29714610502578063d01fbaf91461052d578063dc3eeb341461056a578063e20d966b14610595578063e5bd4f1e146105be578063f21aecad146105fb578063f2fde38b1461063c578063f8adf06c14610665575b600080fd5b34801561017057600080fd5b5061018b60048036036101869190810190613faf565b610690565b005b34801561019957600080fd5b506101b460048036036101af9190810190613f5d565b6110e1565b6040516101c6969594939291906145a8565b60405180910390f35b3480156101db57600080fd5b506101f660048036036101f19190810190613e74565b611159565b60405161020391906144ff565b60405180910390f35b34801561021857600080fd5b50610221611175565b60405161022f9291906146ff565b60405180910390f35b34801561024457600080fd5b5061024d611283565b60405161025a9190614557565b60405180910390f35b34801561026f57600080fd5b506102786112a9565b6040516102859190614572565b60405180910390f35b34801561029a57600080fd5b506102b560048036036102b09190810190613f5d565b6112cf565b6040516102c6959493929190614489565b60405180910390f35b3480156102db57600080fd5b506102e4611666565b6040516102f191906146e4565b60405180910390f35b34801561030657600080fd5b5061030f611673565b005b34801561031d57600080fd5b50610326611763565b60405161033391906146e4565b60405180910390f35b34801561034857600080fd5b50610351611770565b60405161035e91906143bb565b60405180910390f35b34801561037357600080fd5b5061037c611799565b6040516103899190614521565b60405180910390f35b34801561039e57600080fd5b506103b960048036036103b49190810190613e33565b6117f0565b6040516103c691906144ff565b60405180910390f35b3480156103db57600080fd5b506103e461180a565b6040516103f49493929190614444565b60405180910390f35b34801561040957600080fd5b50610412611919565b6040516104229493929190614444565b60405180910390f35b34801561043757600080fd5b50610452600480360361044d9190810190613e33565b611a28565b60405161045f91906144ff565b60405180910390f35b34801561047457600080fd5b5061047d611a42565b60405161048e959493929190614489565b60405180910390f35b3480156104a357600080fd5b506104be60048036036104b99190810190613f5d565b611f7f565b6040516104d0969594939291906145a8565b60405180910390f35b3480156104e557600080fd5b5061050060048036036104fb9190810190613f5d565b611ff7565b005b34801561050e57600080fd5b5061051761214b565b6040516105249190614557565b60405180910390f35b34801561053957600080fd5b50610554600480360361054f9190810190613e74565b612171565b60405161056191906144ff565b60405180910390f35b34801561057657600080fd5b5061057f61218d565b60405161058c919061453c565b60405180910390f35b3480156105a157600080fd5b506105bc60048036036105b79190810190613faf565b6121b3565b005b3480156105ca57600080fd5b506105e560048036036105e09190810190613f5d565b612ca8565b6040516105f291906146c9565b60405180910390f35b34801561060757600080fd5b50610622600480360361061d9190810190613f5d565b612d8b565b604051610633959493929190614489565b60405180910390f35b34801561064857600080fd5b50610663600480360361065e9190810190613e0a565b613122565b005b34801561067157600080fd5b5061067a613177565b604051610687919061458d565b60405180910390f35b6000806000806060600080871180156106a95750600088115b15156106ea576040517f08c379a00000000000000000000000000000000000000000000000000000000081526004016106e190614629565b60405180910390fd5b868802600260009054906101000a900473ffffffffffffffffffffffffffffffffffffffff1673ffffffffffffffffffffffffffffffffffffffff166370a08231336040518263ffffffff167c010000000000000000000000000000000000000000000000000000000002815260040161076491906143bb565b602060405180830381600087803b15801561077e57600080fd5b505af1158015610792573d6000803e3d6000fd5b505050506040513d601f19601f820116820180604052506107b69190810190613f86565b101515156107f9576040517f08c379a00000000000000000000000000000000000000000000000000000000081526004016107f090614669565b60405180910390fd5b600660c06040519081016040528060018081111561081357fe5b81526020013373ffffffffffffffffffffffffffffffffffffffff1681526020018a815260200189815260200142815260200160008152509080600181540180825580915050906001820390600052602060002090600502016000909192909190915060008201518160000160006101000a81548160ff0219169083600181111561089a57fe5b021790555060208201518160000160016101000a81548173ffffffffffffffffffffffffffffffffffffffff021916908373ffffffffffffffffffffffffffffffffffffffff16021790555060408201518160010155606082015181600201556080820151816003015560a0820151816004015550509550600186039450600260009054906101000a900473ffffffffffffffffffffffffffffffffffffffff1673ffffffffffffffffffffffffffffffffffffffff1663067b3bac33898b026040518363ffffffff167c010000000000000000000000000000000000000000000000000000000002815260040161099392919061441b565b602060405180830381600087803b1580156109ad57600080fd5b505af11580156109c1573d6000803e3d6000fd5b505050506040513d601f19601f820116820180604052506109e59190810190613ee0565b507f9b0548ddacd7b2f31852ad0ce5af1d780efea21568275e609c14741246bfaeea33604051610a1591906143bb565b60405180910390a160009350600060078054905011156110d75760009250610a3b61319d565b91505b8684108015610a4d5750815183105b156110d6578183815181101515610a6057fe5b9060200190602002015190506000600782815481101515610a7d57fe5b906000526020600020906005020160040154148015610abc575087600782815481101515610aa757fe5b90600052602060002090600502016001015411155b8015610ae95750838703600782815481101515610ad557fe5b906000526020600020906005020160020154145b156110c957600460009054906101000a900473ffffffffffffffffffffffffffffffffffffffff1673ffffffffffffffffffffffffffffffffffffffff16633856cb4b33600784815481101515610b3c57fe5b906000526020600020906005020160000160019054906101000a900473ffffffffffffffffffffffffffffffffffffffff16600785815481101515610b7d57fe5b906000526020600020906005020160010154600786815481101515610b9e57fe5b9060005260206000209060050201600201546040518563ffffffff167c0100000000000000000000000000000000000000000000000000000000028152600401610beb94939291906143d6565b600060405180830381600087803b158015610c0557600080fd5b505af1158015610c19573d6000803e3d6000fd5b5050505042600782815481101515610c2d57fe5b90600052602060002090600502016004018190555042600686815481101515610c5257fe5b906000526020600020906005020160040181905550600781815481101515610c7657fe5b90600052602060002090600502016002015484019350600260009054906101000a900473ffffffffffffffffffffffffffffffffffffffff1673ffffffffffffffffffffffffffffffffffffffff1663d5bd9d7e600783815481101515610cd957fe5b906000526020600020906005020160000160019054906101000a900473ffffffffffffffffffffffffffffffffffffffff168a600785815481101515610d1b57fe5b906000526020600020906005020160020154026040518363ffffffff167c0100000000000000000000000000000000000000000000000000000000028152600401610d6792919061441b565b602060405180830381600087803b158015610d8157600080fd5b505af1158015610d95573d6000803e3d6000fd5b505050506040513d601f19601f82011682018060405250610db99190810190613ee0565b50600160009054906101000a900473ffffffffffffffffffffffffffffffffffffffff1673ffffffffffffffffffffffffffffffffffffffff1663d5bd9d7e33600784815481101515610e0857fe5b9060005260206000209060050201600201546040518363ffffffff167c0100000000000000000000000000000000000000000000000000000000028152600401610e5392919061441b565b602060405180830381600087803b158015610e6d57600080fd5b505af1158015610e81573d6000803e3d6000fd5b505050506040513d601f19601f82011682018060405250610ea59190810190613ee0565b50600360009054906101000a900473ffffffffffffffffffffffffffffffffffffffff1673ffffffffffffffffffffffffffffffffffffffff166361a8da05886040518263ffffffff167c0100000000000000000000000000000000000000000000000000000000028152600401610f1d91906146e4565b600060405180830381600087803b158015610f3757600080fd5b505af1158015610f4b573d6000803e3d6000fd5b50505050600360009054906101000a900473ffffffffffffffffffffffffffffffffffffffff1673ffffffffffffffffffffffffffffffffffffffff1663aa0dc65c896040518263ffffffff167c0100000000000000000000000000000000000000000000000000000000028152600401610fc691906146e4565b600060405180830381600087803b158015610fe057600080fd5b505af1158015610ff4573d6000803e3d6000fd5b5050505060078181548110151561100757fe5b906000526020600020906005020160000160019054906101000a900473ffffffffffffffffffffffffffffffffffffffff1673ffffffffffffffffffffffffffffffffffffffff167f77c1df43cb7be54edd24d14189148a7ab0e489aa034e7887a49aabeea2e51f1860078381548110151561107f57fe5b9060005260206000209060050201600101546007848154811015156110a057fe5b9060005260206000209060050201600201546040516110c092919061472f565b60405180910390a25b8280600101935050610a3e565b5b5050505050505050565b6006818154811015156110f057fe5b90600052602060002090600502016000915090508060000160009054906101000a900460ff16908060000160019054906101000a900473ffffffffffffffffffffffffffffffffffffffff16908060010154908060020154908060030154908060040154905086565b606061116c8383600060018751036132ee565b81905092915050565b60006060806000600854111561126557600560009054906101000a900473ffffffffffffffffffffffffffffffffffffffff1673ffffffffffffffffffffffffffffffffffffffff1663ea2443616008546040518263ffffffff167c01000000000000000000000000000000000000000000000000000000000281526004016111fe91906146e4565b600060405180830381600087803b15801561121857600080fd5b505af115801561122c573d6000803e3d6000fd5b505050506040513d6000823e3d601f19601f820116820180604052506112559190810190613f09565b509050600854819250925061127e565b6008546020604051908101604052806000815250925092505b509091565b600260009054906101000a900473ffffffffffffffffffffffffffffffffffffffff1681565b600360009054906101000a900473ffffffffffffffffffffffffffffffffffffffff1681565b6060806060806060600060608060608060608060008d6112ed6134b9565b106112f8578d611301565b6113006134b9565b5b9750600a88111561131157600a97505b61131961319d565b96508760405190808252806020026020018201604052801561134a5781602001602082028038833980820191505090505b5095508760405190808252806020026020018201604052801561137c5781602001602082028038833980820191505090505b509450876040519080825280602002602001820160405280156113ae5781602001602082028038833980820191505090505b509350876040519080825280602002602001820160405280156113e05781602001602082028038833980820191505090505b509250876040519080825280602002602001820160405280156114125781602001602082028038833980820191505090505b509150600090505b87811015611646576007878281518110151561143257fe5b9060200190602002015181548110151561144857fe5b906000526020600020906005020160000160009054906101000a900460ff16868281518110151561147557fe5b90602001906020020190600181111561148a57fe5b9081600181111561149757fe5b81525050600787828151811015156114ab57fe5b906020019060200201518154811015156114c157fe5b906000526020600020906005020160000160019054906101000a900473ffffffffffffffffffffffffffffffffffffffff16858281518110151561150157fe5b9060200190602002019073ffffffffffffffffffffffffffffffffffffffff16908173ffffffffffffffffffffffffffffffffffffffff16815250506007878281518110151561154d57fe5b9060200190602002015181548110151561156357fe5b906000526020600020906005020160010154848281518110151561158357fe5b9060200190602002018181525050600787828151811015156115a157fe5b906020019060200201518154811015156115b757fe5b90600052602060002090600502016002015483828151811015156115d757fe5b9060200190602002018181525050600787828151811015156115f557fe5b9060200190602002015181548110151561160b57fe5b906000526020600020906005020160030154828281518110151561162b57fe5b9060200190602002018181525050808060010191505061141a565b85858585859c509c509c509c509c50505050505050505091939590929450565b6000600680549050905090565b61167b611799565b15156116bc576040517f08c379a00000000000000000000000000000000000000000000000000000000081526004016116b390614649565b60405180910390fd5b6000809054906101000a900473ffffffffffffffffffffffffffffffffffffffff1673ffffffffffffffffffffffffffffffffffffffff167ff8df31144d9c2f0f6b59d69b8b98abd5459d07f2742c4df920b25aae33c6482060405160405180910390a260008060006101000a81548173ffffffffffffffffffffffffffffffffffffffff021916908373ffffffffffffffffffffffffffffffffffffffff160217905550565b6000600780549050905090565b60008060009054906101000a900473ffffffffffffffffffffffffffffffffffffffff16905090565b60008060009054906101000a900473ffffffffffffffffffffffffffffffffffffffff1673ffffffffffffffffffffffffffffffffffffffff163373ffffffffffffffffffffffffffffffffffffffff1614905090565b6060611802826000600185510361351a565b819050919050565b600080600080606060008061181d6134b9565b11156118f95761182b61319d565b915081600081518110151561183c57fe5b90602001906020020151905060078181548110151561185757fe5b906000526020600020906005020160000160019054906101000a900473ffffffffffffffffffffffffffffffffffffffff1660078281548110151561189857fe5b9060005260206000209060050201600101546007838154811015156118b957fe5b9060005260206000209060050201600201546007848154811015156118da57fe5b9060005260206000209060050201600301549550955095509550611911565b60008060008082925081915080905095509550955095505b505090919293565b600080600080606060008061192c61367a565b1115611a085761193a6136db565b915081600081518110151561194b57fe5b90602001906020020151905060068181548110151561196657fe5b906000526020600020906005020160000160019054906101000a900473ffffffffffffffffffffffffffffffffffffffff166006828154811015156119a757fe5b9060005260206000209060050201600101546006838154811015156119c857fe5b9060005260206000209060050201600201546006848154811015156119e957fe5b9060005260206000209060050201600301549550955095509550611a20565b60008060008082925081915080905095509550955095505b505090919293565b6060611a3a826000600185510361382c565b819050919050565b606080606080606060006060806060806060600080611a5f61367a565b611a676134b9565b01975087604051908082528060200260200182016040528015611a995781602001602082028038833980820191505090505b50965087604051908082528060200260200182016040528015611acb5781602001602082028038833980820191505090505b50955087604051908082528060200260200182016040528015611afd5781602001602082028038833980820191505090505b50945087604051908082528060200260200182016040528015611b2f5781602001602082028038833980820191505090505b50935087604051908082528060200260200182016040528015611b615781602001602082028038833980820191505090505b509250600091505b600780549050821015611d51576000600783815481101515611b8757fe5b9060005260206000209060050201600401541415611d4457600782815481101515611bae57fe5b906000526020600020906005020160000160009054906101000a900460ff168783815181101515611bdb57fe5b906020019060200201906001811115611bf057fe5b90816001811115611bfd57fe5b81525050600782815481101515611c1057fe5b906000526020600020906005020160000160019054906101000a900473ffffffffffffffffffffffffffffffffffffffff168683815181101515611c5057fe5b9060200190602002019073ffffffffffffffffffffffffffffffffffffffff16908173ffffffffffffffffffffffffffffffffffffffff1681525050600782815481101515611c9b57fe5b9060005260206000209060050201600101548583815181101515611cbb57fe5b9060200190602002018181525050600782815481101515611cd857fe5b9060005260206000209060050201600201548483815181101515611cf857fe5b9060200190602002018181525050600782815481101515611d1557fe5b9060005260206000209060050201600301548383815181101515611d3557fe5b90602001906020020181815250505b8180600101925050611b69565b600090505b600680549050811015611f61576000600682815481101515611d7457fe5b9060005260206000209060050201600401541415611f5457600681815481101515611d9b57fe5b906000526020600020906005020160000160009054906101000a900460ff16878260078054905001815181101515611dcf57fe5b906020019060200201906001811115611de457fe5b90816001811115611df157fe5b81525050600681815481101515611e0457fe5b906000526020600020906005020160000160019054906101000a900473ffffffffffffffffffffffffffffffffffffffff16868260078054905001815181101515611e4b57fe5b9060200190602002019073ffffffffffffffffffffffffffffffffffffffff16908173ffffffffffffffffffffffffffffffffffffffff1681525050600681815481101515611e9657fe5b906000526020600020906005020160010154858260078054905001815181101515611ebd57fe5b9060200190602002018181525050600681815481101515611eda57fe5b906000526020600020906005020160020154848260078054905001815181101515611f0157fe5b9060200190602002018181525050600681815481101515611f1e57fe5b906000526020600020906005020160030154838260078054905001815181101515611f4557fe5b90602001906020020181815250505b8080600101915050611d56565b86868686869c509c509c509c509c5050505050505050509091929394565b600781815481101515611f8e57fe5b90600052602060002090600502016000915090508060000160009054906101000a900460ff16908060000160019054906101000a900473ffffffffffffffffffffffffffffffffffffffff16908060010154908060020154908060030154908060040154905086565b611fff611799565b1515612040576040517f08c379a000000000000000000000000000000000000000000000000000000000815260040161203790614649565b60405180910390fd5b600560009054906101000a900473ffffffffffffffffffffffffffffffffffffffff1673ffffffffffffffffffffffffffffffffffffffff1663ab9c2d136040518163ffffffff167c0100000000000000000000000000000000000000000000000000000000028152600401602060405180830381600087803b1580156120c657600080fd5b505af11580156120da573d6000803e3d6000fd5b505050506040513d601f19601f820116820180604052506120fe9190810190613f86565b81101515612141576040517f08c379a0000000000000000000000000000000000000000000000000000000008152600401612138906146a9565b60405180910390fd5b8060088190555050565b600160009054906101000a900473ffffffffffffffffffffffffffffffffffffffff1681565b606061218483836000600187510361398c565b81905092915050565b600460009054906101000a900473ffffffffffffffffffffffffffffffffffffffff1681565b6000806000806060600080871180156121cc5750600088115b151561220d576040517f08c379a000000000000000000000000000000000000000000000000000000000815260040161220490614629565b60405180910390fd5b86600160009054906101000a900473ffffffffffffffffffffffffffffffffffffffff1673ffffffffffffffffffffffffffffffffffffffff166370a08231336040518263ffffffff167c010000000000000000000000000000000000000000000000000000000002815260040161228591906143bb565b602060405180830381600087803b15801561229f57600080fd5b505af11580156122b3573d6000803e3d6000fd5b505050506040513d601f19601f820116820180604052506122d79190810190613f86565b1015151561231a576040517f08c379a000000000000000000000000000000000000000000000000000000000815260040161231190614689565b60405180910390fd5b600760c0604051908101604052806000600181111561233557fe5b81526020013373ffffffffffffffffffffffffffffffffffffffff1681526020018a815260200189815260200142815260200160008152509080600181540180825580915050906001820390600052602060002090600502016000909192909190915060008201518160000160006101000a81548160ff021916908360018111156123bc57fe5b021790555060208201518160000160016101000a81548173ffffffffffffffffffffffffffffffffffffffff021916908373ffffffffffffffffffffffffffffffffffffffff16021790555060408201518160010155606082015181600201556080820151816003015560a0820151816004015550509550600186039450600360009054906101000a900473ffffffffffffffffffffffffffffffffffffffff1673ffffffffffffffffffffffffffffffffffffffff166396455e13886040518263ffffffff167c01000000000000000000000000000000000000000000000000000000000281526004016124b191906146e4565b600060405180830381600087803b1580156124cb57600080fd5b505af11580156124df573d6000803e3d6000fd5b50505050600160009054906101000a900473ffffffffffffffffffffffffffffffffffffffff1673ffffffffffffffffffffffffffffffffffffffff1663067b3bac33896040518363ffffffff167c010000000000000000000000000000000000000000000000000000000002815260040161255c92919061441b565b602060405180830381600087803b15801561257657600080fd5b505af115801561258a573d6000803e3d6000fd5b505050506040513d601f19601f820116820180604052506125ae9190810190613ee0565b507f9b0548ddacd7b2f31852ad0ce5af1d780efea21568275e609c14741246bfaeea336040516125de91906143bb565b60405180910390a16000935060006006805490501115612c9e57600092506126046136db565b91505b86841080156126165750815183105b15612c9d57818381518110151561262957fe5b906020019060200201519050600060068281548110151561264657fe5b90600052602060002090600502016004015414801561268557508760068281548110151561267057fe5b90600052602060002090600502016001015410155b80156126b057508660068281548110151561269c57fe5b906000526020600020906005020160020154145b15612c9057600260009054906101000a900473ffffffffffffffffffffffffffffffffffffffff1673ffffffffffffffffffffffffffffffffffffffff1663d5bd9d7e338a60068581548110151561270457fe5b906000526020600020906005020160020154026040518363ffffffff167c010000000000000000000000000000000000000000000000000000000002815260040161275092919061441b565b602060405180830381600087803b15801561276a57600080fd5b505af115801561277e573d6000803e3d6000fd5b505050506040513d601f19601f820116820180604052506127a29190810190613ee0565b50600160009054906101000a900473ffffffffffffffffffffffffffffffffffffffff1673ffffffffffffffffffffffffffffffffffffffff1663d5bd9d7e6006838154811015156127f057fe5b906000526020600020906005020160000160019054906101000a900473ffffffffffffffffffffffffffffffffffffffff1660068481548110151561283157fe5b9060005260206000209060050201600201546040518363ffffffff167c010000000000000000000000000000000000000000000000000000000002815260040161287c92919061441b565b602060405180830381600087803b15801561289657600080fd5b505af11580156128aa573d6000803e3d6000fd5b505050506040513d601f19601f820116820180604052506128ce9190810190613ee0565b50600360009054906101000a900473ffffffffffffffffffffffffffffffffffffffff1673ffffffffffffffffffffffffffffffffffffffff166361a8da05886040518263ffffffff167c010000000000000000000000000000000000000000000000000000000002815260040161294691906146e4565b600060405180830381600087803b15801561296057600080fd5b505af1158015612974573d6000803e3d6000fd5b50505050600360009054906101000a900473ffffffffffffffffffffffffffffffffffffffff1673ffffffffffffffffffffffffffffffffffffffff1663aa0dc65c896040518263ffffffff167c01000000000000000000000000000000000000000000000000000000000281526004016129ef91906146e4565b600060405180830381600087803b158015612a0957600080fd5b505af1158015612a1d573d6000803e3d6000fd5b50505050600460009054906101000a900473ffffffffffffffffffffffffffffffffffffffff1673ffffffffffffffffffffffffffffffffffffffff16633856cb4b33600684815481101515612a6f57fe5b906000526020600020906005020160000160019054906101000a900473ffffffffffffffffffffffffffffffffffffffff16600685815481101515612ab057fe5b906000526020600020906005020160010154600686815481101515612ad157fe5b9060005260206000209060050201600201546040518563ffffffff167c0100000000000000000000000000000000000000000000000000000000028152600401612b1e94939291906143d6565b600060405180830381600087803b158015612b3857600080fd5b505af1158015612b4c573d6000803e3d6000fd5b5050505042600682815481101515612b6057fe5b90600052602060002090600502016004018190555042600786815481101515612b8557fe5b906000526020600020906005020160040181905550600681815481101515612ba957fe5b90600052602060002090600502016002015484019350600681815481101515612bce57fe5b906000526020600020906005020160000160019054906101000a900473ffffffffffffffffffffffffffffffffffffffff1673ffffffffffffffffffffffffffffffffffffffff167f77c1df43cb7be54edd24d14189148a7ab0e489aa034e7887a49aabeea2e51f18600683815481101515612c4657fe5b906000526020600020906005020160010154600684815481101515612c6757fe5b906000526020600020906005020160020154604051612c8792919061472f565b60405180910390a25b8280600101935050612607565b5b5050505050505050565b612cb0613c87565b600682815481101515612cbf57fe5b906000526020600020906005020160c060405190810160405290816000820160009054906101000a900460ff166001811115612cf757fe5b6001811115612d0257fe5b81526020016000820160019054906101000a900473ffffffffffffffffffffffffffffffffffffffff1673ffffffffffffffffffffffffffffffffffffffff1673ffffffffffffffffffffffffffffffffffffffff1681526020016001820154815260200160028201548152602001600382015481526020016004820154815250509050919050565b6060806060806060600060608060608060608060008d612da961367a565b10612db4578d612dbd565b612dbc61367a565b5b9750600a881115612dcd57600a97505b612dd56136db565b965087604051908082528060200260200182016040528015612e065781602001602082028038833980820191505090505b50955087604051908082528060200260200182016040528015612e385781602001602082028038833980820191505090505b50945087604051908082528060200260200182016040528015612e6a5781602001602082028038833980820191505090505b50935087604051908082528060200260200182016040528015612e9c5781602001602082028038833980820191505090505b50925087604051908082528060200260200182016040528015612ece5781602001602082028038833980820191505090505b509150600090505b878110156131025760068782815181101515612eee57fe5b90602001906020020151815481101515612f0457fe5b906000526020600020906005020160000160009054906101000a900460ff168682815181101515612f3157fe5b906020019060200201906001811115612f4657fe5b90816001811115612f5357fe5b8152505060068782815181101515612f6757fe5b90602001906020020151815481101515612f7d57fe5b906000526020600020906005020160000160019054906101000a900473ffffffffffffffffffffffffffffffffffffffff168582815181101515612fbd57fe5b9060200190602002019073ffffffffffffffffffffffffffffffffffffffff16908173ffffffffffffffffffffffffffffffffffffffff16815250506006878281518110151561300957fe5b9060200190602002015181548110151561301f57fe5b906000526020600020906005020160010154848281518110151561303f57fe5b90602001906020020181815250506006878281518110151561305d57fe5b9060200190602002015181548110151561307357fe5b906000526020600020906005020160020154838281518110151561309357fe5b9060200190602002018181525050600687828151811015156130b157fe5b906020019060200201518154811015156130c757fe5b90600052602060002090600502016003015482828151811015156130e757fe5b90602001906020020181815250508080600101915050612ed6565b85858585859c509c509c509c509c50505050505050505091939590929450565b61312a611799565b151561316b576040517f08c379a000000000000000000000000000000000000000000000000000000000815260040161316290614649565b60405180910390fd5b61317481613b57565b50565b600560009054906101000a900473ffffffffffffffffffffffffffffffffffffffff1681565b6060600060608060008060606131b16134b9565b9550856040519080825280602002602001820160405280156131e25781602001602082028038833980820191505090505b509450856040519080825280602002602001820160405280156132145781602001602082028038833980820191505090505b5093506000861415613228578396506132e5565b60009250600091505b6007805490508210156132d557600060078381548110151561324f57fe5b90600052602060002090600502016004015414156132c85760078281548110151561327657fe5b906000526020600020906005020160010154858481518110151561329657fe5b90602001906020020181815250508184848151811015156132b357fe5b90602001906020020181815250506001830192505b8180600101925050613231565b6132df8585611159565b90508096505b50505050505090565b600080600084925083915081831415613306576134b0565b86600286860381151561331557fe5b05860181518110151561332457fe5b9060200190602002015190505b8183131515613485575b80878481518110151561334a57fe5b90602001906020020151101561336757828060010193505061333b565b5b868281518110151561337657fe5b9060200190602002015181101561339557818060019003925050613368565b81831315156134805786828151811015156133ac57fe5b9060200190602002015187848151811015156133c457fe5b9060200190602002015188858151811015156133dc57fe5b90602001906020020189858151811015156133f357fe5b90602001906020020182815250828152505050858281518110151561341457fe5b90602001906020020151868481518110151561342c57fe5b90602001906020020151878581518110151561344457fe5b906020019060200201888581518110151561345b57fe5b9060200190602002018281525082815250505082806001019350508180600190039250505b613331565b8185121561349a57613499878787856132ee565b5b838312156134af576134ae878785876132ee565b5b5b50505050505050565b6000806000809150600090505b6007805490508110156135125760006007828154811015156134e457fe5b90600052602060002090600502016004015414156135055781806001019250505b80806001019150506134c6565b819250505090565b60008060008492508391508183141561353257613672565b85600286860381151561354157fe5b05860181518110151561355057fe5b9060200190602002015190505b8183131515613649575b80868481518110151561357657fe5b906020019060200201511015613593578280600101935050613567565b5b85828151811015156135a257fe5b906020019060200201518110156135c157818060019003925050613594565b81831315156136445785828151811015156135d857fe5b9060200190602002015186848151811015156135f057fe5b90602001906020020151878581518110151561360857fe5b906020019060200201888581518110151561361f57fe5b9060200190602002018281525082815250505082806001019350508180600190039250505b61355d565b8185121561365d5761365c86868461351a565b5b838312156136715761367086848661351a565b5b5b505050505050565b6000806000809150600090505b6006805490508110156136d35760006006828154811015156136a557fe5b90600052602060002090600502016004015414156136c65781806001019250505b8080600101915050613687565b819250505090565b6060600060608060008060606136ef61367a565b9550856040519080825280602002602001820160405280156137205781602001602082028038833980820191505090505b509450856040519080825280602002602001820160405280156137525781602001602082028038833980820191505090505b509350600086141561376657839650613823565b60009250600091505b60068054905082101561381357600060068381548110151561378d57fe5b9060005260206000209060050201600401541415613806576006828154811015156137b457fe5b90600052602060002090600502016001015485848151811015156137d457fe5b90602001906020020181815250508184848151811015156137f157fe5b90602001906020020181815250506001830192505b818060010192505061376f565b61381d8585612171565b90508096505b50505050505090565b60008060008492508391508183141561384457613984565b85600286860381151561385357fe5b05860181518110151561386257fe5b9060200190602002015190505b818313151561395b575b80868481518110151561388857fe5b9060200190602002015111156138a5578280600101935050613879565b5b85828151811015156138b457fe5b906020019060200201518111156138d3578180600190039250506138a6565b81831315156139565785828151811015156138ea57fe5b90602001906020020151868481518110151561390257fe5b90602001906020020151878581518110151561391a57fe5b906020019060200201888581518110151561393157fe5b9060200190602002018281525082815250505082806001019350508180600190039250505b61386f565b8185121561396f5761396e86868461382c565b5b838312156139835761398286848661382c565b5b5b505050505050565b6000806000849250839150818314156139a457613b4e565b8660028686038115156139b357fe5b0586018151811015156139c257fe5b9060200190602002015190505b8183131515613b23575b8087848151811015156139e857fe5b906020019060200201511115613a055782806001019350506139d9565b5b8682815181101515613a1457fe5b90602001906020020151811115613a3357818060019003925050613a06565b8183131515613b1e578682815181101515613a4a57fe5b906020019060200201518784815181101515613a6257fe5b906020019060200201518885815181101515613a7a57fe5b9060200190602002018985815181101515613a9157fe5b906020019060200201828152508281525050508582815181101515613ab257fe5b906020019060200201518684815181101515613aca57fe5b906020019060200201518785815181101515613ae257fe5b9060200190602002018885815181101515613af957fe5b9060200190602002018281525082815250505082806001019350508180600190039250505b6139cf565b81851215613b3857613b378787878561398c565b5b83831215613b4d57613b4c8787858761398c565b5b5b50505050505050565b600073ffffffffffffffffffffffffffffffffffffffff168173ffffffffffffffffffffffffffffffffffffffff1614151515613bc9576040517f08c379a0000000000000000000000000000000000000000000000000000000008152600401613bc090614609565b60405180910390fd5b8073ffffffffffffffffffffffffffffffffffffffff166000809054906101000a900473ffffffffffffffffffffffffffffffffffffffff1673ffffffffffffffffffffffffffffffffffffffff167f8be0079c531659141344cd1fd0a4f28419497f9722a3daafe3b4186f6b6457e060405160405180910390a3806000806101000a81548173ffffffffffffffffffffffffffffffffffffffff021916908373ffffffffffffffffffffffffffffffffffffffff16021790555050565b60c06040519081016040528060006001811115613ca057fe5b8152602001600073ffffffffffffffffffffffffffffffffffffffff168152602001600081526020016000815260200160008152602001600081525090565b6000613ceb823561489f565b905092915050565b600082601f8301121515613d0657600080fd5b8135613d19613d1482614785565b614758565b91508181835260208401935060208101905083856020840282011115613d3e57600080fd5b60005b83811015613d6e5781613d548882613de2565b845260208401935060208301925050600181019050613d41565b5050505092915050565b6000613d8482516148bf565b905092915050565b600082601f8301121515613d9f57600080fd5b8151613db2613dad826147ad565b614758565b91508082526020830160208301858383011115613dce57600080fd5b613dd983828461492f565b50505092915050565b6000613dee82356148cb565b905092915050565b6000613e0282516148cb565b905092915050565b600060208284031215613e1c57600080fd5b6000613e2a84828501613cdf565b91505092915050565b600060208284031215613e4557600080fd5b600082013567ffffffffffffffff811115613e5f57600080fd5b613e6b84828501613cf3565b91505092915050565b60008060408385031215613e8757600080fd5b600083013567ffffffffffffffff811115613ea157600080fd5b613ead85828601613cf3565b925050602083013567ffffffffffffffff811115613eca57600080fd5b613ed685828601613cf3565b9150509250929050565b600060208284031215613ef257600080fd5b6000613f0084828501613d78565b91505092915050565b60008060408385031215613f1c57600080fd5b600083015167ffffffffffffffff811115613f3657600080fd5b613f4285828601613d8c565b9250506020613f5385828601613d78565b9150509250929050565b600060208284031215613f6f57600080fd5b6000613f7d84828501613de2565b91505092915050565b600060208284031215613f9857600080fd5b6000613fa684828501613df6565b91505092915050565b60008060408385031215613fc257600080fd5b6000613fd085828601613de2565b9250506020613fe185828601613de2565b9150509250929050565b613ff481614853565b82525050565b600061400582614800565b808452602084019350614017836147d9565b60005b828110156140495761402d868351613feb565b6140368261482c565b915060208601955060018101905061401a565b50849250505092915050565b60006140608261480b565b808452602084019350614072836147e6565b60005b828110156140a457614088868351614156565b61409182614839565b9150602086019550600181019050614075565b50849250505092915050565b60006140bb82614816565b8084526020840193506140cd836147f3565b60005b828110156140ff576140e38683516143ac565b6140ec82614846565b91506020860195506001810190506140d0565b50849250505092915050565b61411481614873565b82525050565b614123816148d5565b82525050565b614132816148e7565b82525050565b614141816148f9565b82525050565b6141508161490b565b82525050565b61415f8161491d565b82525050565b600061417082614821565b80845261418481602086016020860161492f565b61418d81614962565b602085010191505092915050565b6000602782527f596f752063616e6e6f74207472616e7366657220746f20746865207a65726f2060208301527f61646472657373000000000000000000000000000000000000000000000000006040830152606082019050919050565b6000601d82527f56616c756573206d7573742062652067726561746572207468616e20300000006020830152604082019050919050565b6000602682527f4f6e6c7920746865206f776e65722063616e20706572666f726d20746869732060208301527f616374696f6e00000000000000000000000000000000000000000000000000006040830152606082019050919050565b6000601b82527f496e73756666696369656e742041554420616c6c6f636174696f6e00000000006020830152604082019050919050565b6000601d82527f496e73756666696369656e7420776174657220616c6c6f636174696f6e0000006020830152604082019050919050565b6000601482527f496e76616c69642074726164696e67207a6f6e650000000000000000000000006020830152604082019050919050565b60c0820160008201516143476000850182614156565b50602082015161435a6020850182613feb565b50604082015161436d60408501826143ac565b50606082015161438060608501826143ac565b50608082015161439360808501826143ac565b5060a08201516143a660a08501826143ac565b50505050565b6143b581614895565b82525050565b60006020820190506143d06000830184613feb565b92915050565b60006080820190506143eb6000830187613feb565b6143f86020830186613feb565b61440560408301856143ac565b61441260608301846143ac565b95945050505050565b60006040820190506144306000830185613feb565b61443d60208301846143ac565b9392505050565b60006080820190506144596000830187613feb565b61446660208301866143ac565b61447360408301856143ac565b61448060608301846143ac565b95945050505050565b600060a08201905081810360008301526144a38188614055565b905081810360208301526144b78187613ffa565b905081810360408301526144cb81866140b0565b905081810360608301526144df81856140b0565b905081810360808301526144f381846140b0565b90509695505050505050565b6000602082019050818103600083015261451981846140b0565b905092915050565b6000602082019050614536600083018461410b565b92915050565b6000602082019050614551600083018461411a565b92915050565b600060208201905061456c6000830184614129565b92915050565b60006020820190506145876000830184614138565b92915050565b60006020820190506145a26000830184614147565b92915050565b600060c0820190506145bd6000830189614156565b6145ca6020830188613feb565b6145d760408301876143ac565b6145e460608301866143ac565b6145f160808301856143ac565b6145fe60a08301846143ac565b979650505050505050565b600060208201905081810360008301526146228161419b565b9050919050565b60006020820190508181036000830152614642816141f8565b9050919050565b600060208201905081810360008301526146628161422f565b9050919050565b600060208201905081810360008301526146828161428c565b9050919050565b600060208201905081810360008301526146a2816142c3565b9050919050565b600060208201905081810360008301526146c2816142fa565b9050919050565b600060c0820190506146de6000830184614331565b92915050565b60006020820190506146f960008301846143ac565b92915050565b600060408201905061471460008301856143ac565b81810360208301526147268184614165565b90509392505050565b600060408201905061474460008301856143ac565b61475160208301846143ac565b9392505050565b6000604051905081810181811067ffffffffffffffff8211171561477b57600080fd5b8060405250919050565b600067ffffffffffffffff82111561479c57600080fd5b602082029050602081019050919050565b600067ffffffffffffffff8211156147c457600080fd5b601f19601f8301169050602081019050919050565b6000602082019050919050565b6000602082019050919050565b6000602082019050919050565b600081519050919050565b600081519050919050565b600081519050919050565b600081519050919050565b6000602082019050919050565b6000602082019050919050565b6000602082019050919050565b600073ffffffffffffffffffffffffffffffffffffffff82169050919050565b60008115159050919050565b600060028210151561488d57fe5b819050919050565b6000819050919050565b600073ffffffffffffffffffffffffffffffffffffffff82169050919050565b60008115159050919050565b6000819050919050565b60006148e082614853565b9050919050565b60006148f282614853565b9050919050565b600061490482614853565b9050919050565b600061491682614853565b9050919050565b60006149288261487f565b9050919050565b60005b8381101561494d578082015181840152602081019050614932565b8381111561495c576000848401525b50505050565b6000601f19601f83011690509190505600a265627a7a72305820a0e9a8ab89981ce9591fda1dcb25e7c94bb3197b9457343aa33a1dd0f2e2a43e6c6578706572696d656e74616cf50037",
  "source": "pragma solidity ^0.4.24;\npragma experimental ABIEncoderV2;\n\nimport \"./Ownable.sol\";\nimport \"./Water.sol\";\nimport \"./Stats.sol\";\nimport \"./AUD.sol\";\nimport \"./IERC20.sol\";\nimport \"./IOrderBook.sol\";\nimport \"./QuickSort.sol\";\nimport \"./SafeMath.sol\";\nimport \"./History.sol\";\nimport \"./TradingZones.sol\";\n\ncontract OrderBook is IOrderBook, QuickSort, Ownable {\n    using SafeMath for uint;\n\n    IERC20 public _water;\n    IERC20 public _aud;\n    Stats public _stats;\n    History public _history;\n    TradingZones public _tradingZones;\n\n    enum OrderType { Sell, Buy }\n\n    struct Order {\n        OrderType orderType;\n        address owner;\n        uint256 price;\n        uint256 quantity;\n        uint256 timeStamp;\n        uint256 matchedTimeStamp;\n    }\n\n    Order[] public _buys;\n    Order[] public _sells;\n\n    uint256 private _tradingZoneId;\n\n    constructor (address audContract, address historyContract, address statsContract, address waterContract, address tradingZonesContract) public {\n        _aud = AUD(audContract);\n        _history = History(historyContract);\n        _stats = Stats(statsContract);\n        _water = Water(waterContract);\n        _tradingZones = TradingZones(tradingZonesContract);\n    }\n\n    function getBuyOrderStructByIndex(uint index) public view returns (Order) {\n        return _buys[index];\n    }\n\n    function getTradingZone() public view returns(uint256, string) {\n        if(_tradingZoneId > 0) {\n            (string memory tradingZoneName, ) = _tradingZones.tradingZoneById(_tradingZoneId);\n            return (_tradingZoneId, tradingZoneName);\n        }\n        return (_tradingZoneId, \"\");\n    }\n\n    function setTradingZone(uint256 tradingZoneId) public onlyOwner {\n        require(tradingZoneId < _tradingZones.tradingZonesCount(), \"Invalid trading zone\");\n        _tradingZoneId = tradingZoneId;\n    }\n\n    function addSellLimitOrder(uint256 price, uint256 quantity) public {\n        require(quantity > 0 && price > 0, \"Values must be greater than 0\");\n        require(_water.balanceOf(msg.sender) >= quantity, \"Insufficient water allocation\");\n\n        uint256 sellCount = _sells.push(Order(OrderType.Sell, msg.sender, price, quantity, now, 0));\n        uint256 sellIndex = sellCount - 1;\n        _stats.updateVolumeAvailable(quantity);\n        _water.orderBookDebit(msg.sender, quantity);\n\n        emit OrderAdded(msg.sender);\n\n        uint256 matchedQuantity = 0;\n\n        if (_buys.length > 0) {\n\n            uint256 i = 0;\n            uint256[] memory sortedIndexes = getPriceTimeBuyOrders();\n\n            while (matchedQuantity < quantity && i < sortedIndexes.length) {\n\n                uint256 j = sortedIndexes[i];\n\n                if (_buys[j].matchedTimeStamp == 0 && _buys[j].price >= price && _buys[j].quantity == quantity) {\n\n                    //Credit the seller with AUD\n                    _aud.orderBookCredit(msg.sender, _buys[j].quantity * price);\n\n                    //Credit the buyer with water\n                    _water.orderBookCredit(_buys[j].owner, _buys[j].quantity);\n\n                    _stats.reduceVolumeAvailable(quantity);\n                    _stats.setLastTradePrice(price);\n\n                    _history.addHistory(msg.sender, _buys[j].owner, _buys[j].price, _buys[j].quantity);\n                    _buys[j].matchedTimeStamp = now;\n                    _sells[sellIndex].matchedTimeStamp = now;\n\n                    matchedQuantity += _buys[j].quantity;\n\n                    emit Matched(_buys[j].owner, _buys[j].price, _buys[j].quantity);\n                }\n\n                i++;\n            }\n        }\n    }\n\n    function addBuyLimitOrder(uint256 price, uint256 quantity) public {\n        require(quantity > 0 && price > 0, \"Values must be greater than 0\");\n        require(_aud.balanceOf(msg.sender) >= price * quantity, \"Insufficient AUD allocation\");\n\n        //Push to array first\n        uint256 buyCount = _buys.push(Order(OrderType.Buy, msg.sender, price, quantity, now, 0));\n        uint256 buyIndex = buyCount - 1;\n        _aud.orderBookDebit(msg.sender, price * quantity);\n\n        emit OrderAdded(msg.sender);\n\n        uint256 matchedQuantity = 0;\n\n        if (_sells.length > 0) {\n\n            uint256 i = 0;\n            uint256[] memory sortedIndexes = getPriceTimeSellOrders();\n\n            while (matchedQuantity < quantity && i < sortedIndexes.length) {\n\n                uint256 j = sortedIndexes[i];\n\n                if ( _sells[j].matchedTimeStamp == 0 && _sells[j].price <= price && _sells[j].quantity == (quantity - matchedQuantity)) {\n                    _history.addHistory(msg.sender, _sells[j].owner, _sells[j].price, _sells[j].quantity);\n\n                    _sells[j].matchedTimeStamp = now;\n                    _buys[buyIndex].matchedTimeStamp = now;\n\n                    matchedQuantity += _sells[j].quantity;\n\n                    //Credit the seller with AUD\n                    _aud.orderBookCredit(_sells[j].owner, _sells[j].quantity * price);\n\n                    //Credit the buyer with water\n                    _water.orderBookCredit(msg.sender, _sells[j].quantity);\n\n                    _stats.reduceVolumeAvailable(quantity);\n                    _stats.setLastTradePrice(price);\n\n                    emit Matched(_sells[j].owner, _sells[j].price, _sells[j].quantity);\n                }\n\n                i++;\n            }\n        }\n    }\n\n    function getOrderBook() public view returns (\n        OrderType[],\n        address[],\n        uint256[],\n        uint256[],\n        uint256[]\n    ) {\n        uint256 totalLength = getUnmatchedSellsCount() + getUnmatchedBuysCount();\n\n        OrderType[] memory orderTypes = new OrderType[](totalLength);\n\n        address[] memory owners = new address[](totalLength);\n        uint256[] memory prices = new uint256[](totalLength);\n        uint256[] memory quantities = new uint256[](totalLength);\n        uint256[] memory timeStamps = new uint256[](totalLength);\n\n        for(uint256 i = 0; i < _sells.length; i++) {\n            if (_sells[i].matchedTimeStamp == 0) {\n                orderTypes[i] = _sells[i].orderType;\n                owners[i] = _sells[i].owner;\n                prices[i] = _sells[i].price;\n                quantities[i] = _sells[i].quantity;\n                timeStamps[i] = _sells[i].timeStamp;\n            }\n        }\n\n        for(uint256 j = 0; j < _buys.length; j++) {\n            if (_buys[j].matchedTimeStamp == 0) {\n                orderTypes[_sells.length + j] = _buys[j].orderType;\n                owners[_sells.length + j] = _buys[j].owner;\n                prices[_sells.length + j] = _buys[j].price;\n                quantities[_sells.length + j] = _buys[j].quantity;\n                timeStamps[_sells.length + j] = _buys[j].timeStamp;\n            }\n        }\n\n        return (orderTypes, owners, prices, quantities, timeStamps);\n    }\n\n    function getOrderBookSells(uint256 numberOfOrders) public view returns (\n        OrderType[],\n        address[],\n        uint256[],\n        uint256[],\n        uint256[]\n    ) {\n\n        uint256 max = getUnmatchedSellsCount() < numberOfOrders ? getUnmatchedSellsCount() : numberOfOrders;\n\n        if (max > 10) {\n            max = 10;\n        }\n\n        uint256[] memory sortedIndexes = getPriceTimeSellOrders();\n\n        OrderType[] memory orderTypes = new OrderType[](max);\n        address[] memory owners = new address[](max);\n        uint256[] memory prices = new uint256[](max);\n        uint256[] memory quantities = new uint256[](max);\n        uint256[] memory timeStamps = new uint256[](max);\n\n        for(uint256 i = 0; i < max; i++) {\n            orderTypes[i] = _sells[sortedIndexes[i]].orderType;\n            owners[i] = _sells[sortedIndexes[i]].owner;\n            prices[i] = _sells[sortedIndexes[i]].price;\n            quantities[i] = _sells[sortedIndexes[i]].quantity;\n            timeStamps[i] = _sells[sortedIndexes[i]].timeStamp;\n        }\n\n        return (orderTypes, owners, prices, quantities, timeStamps);\n    }\n\n    function getOrderBookBuys(uint256 numberOfOrders) public view returns (\n        OrderType[],\n        address[],\n        uint256[],\n        uint256[],\n        uint256[]\n    ) {\n\n        uint256 max = getUnmatchedBuysCount() < numberOfOrders ? getUnmatchedBuysCount() : numberOfOrders;\n\n        if (max > 10) {\n            max = 10;\n        }\n\n        uint256[] memory sortedIndexes = getPriceTimeBuyOrders();\n\n        OrderType[] memory orderTypes = new OrderType[](max);\n        address[] memory owners = new address[](max);\n        uint256[] memory prices = new uint256[](max);\n        uint256[] memory quantities = new uint256[](max);\n        uint256[] memory timeStamps = new uint256[](max);\n\n        for(uint256 i = 0; i < max; i++) {\n            orderTypes[i] = _buys[sortedIndexes[i]].orderType;\n            owners[i] = _buys[sortedIndexes[i]].owner;\n            prices[i] = _buys[sortedIndexes[i]].price;\n            quantities[i] = _buys[sortedIndexes[i]].quantity;\n            timeStamps[i] = _buys[sortedIndexes[i]].timeStamp;\n        }\n\n        return (orderTypes, owners, prices, quantities, timeStamps);\n    }\n\n    function lowestSell() public view returns(address, uint256, uint256, uint256) {\n        if (getUnmatchedSellsCount() > 0) {\n            uint256[] memory sortedIndexes = getPriceTimeSellOrders();\n\n            uint i = sortedIndexes[0];\n            return (_sells[i].owner, _sells[i].price, _sells[i].quantity, _sells[i].timeStamp);\n        }\n\n        return (address(0), 0, 0, 0);\n    }\n\n    function highestBuy() public view returns(address, uint256, uint256, uint256) {\n        if (getUnmatchedBuysCount() > 0) {\n            uint256[] memory sortedIndexes = getPriceTimeBuyOrders();\n\n            uint i = sortedIndexes[0];\n            return (_buys[i].owner, _buys[i].price, _buys[i].quantity, _buys[i].timeStamp);\n        }\n\n        return (address(0), 0, 0, 0);\n    }\n\n    function getPriceTimeSellOrders() internal view returns(uint256[]) {\n        uint256 count = getUnmatchedSellsCount();\n\n        uint256[] memory prices = new uint256[](count);\n        uint256[] memory indexes = new uint256[](count);\n\n        if (count == 0) {\n            return indexes;\n        }\n\n        uint j = 0;\n        for (uint i = 0; i < _sells.length; i++) {\n            if (_sells[i].matchedTimeStamp == 0) {\n                prices[j] = _sells[i].price;\n                indexes[j] = i;\n                j += 1;\n            }\n        }\n\n        uint256[] memory sortedIndexes = sortWithIndex(prices, indexes);\n        return sortedIndexes;\n    }\n\n    function getPriceTimeBuyOrders() internal view returns(uint256[]) {\n        uint256 count = getUnmatchedBuysCount();\n\n        uint256[] memory prices = new uint256[](count);\n        uint256[] memory indexes = new uint256[](count);\n\n        if (count == 0) {\n            return indexes;\n        }\n\n        uint j = 0;\n        for (uint i = 0; i < _buys.length; i++) {\n            if (_buys[i].matchedTimeStamp == 0) {\n                prices[j] = _buys[i].price;\n                indexes[j] = i;\n                j += 1;\n            }\n        }\n\n        uint256[] memory sortedIndexes = reverseSortWithIndex(prices, indexes);\n        return sortedIndexes;\n    }\n\n    function getSellsCount() public view returns (uint) {\n        return _sells.length;\n    }\n\n    function getUnmatchedSellsCount() internal view returns (uint) {\n        uint count = 0;\n        for (uint i = 0; i < _sells.length; i++) {\n            if (_sells[i].matchedTimeStamp == 0) {\n                count++;\n            }\n        }\n\n        return count;\n    }\n\n    function getBuysCount() public view returns (uint) {\n        return _buys.length;\n    }\n\n    function getUnmatchedBuysCount() internal view returns (uint) {\n        uint count = 0;\n        for (uint i = 0; i < _buys.length; i++) {\n            if (_buys[i].matchedTimeStamp == 0) {\n                count++;\n            }\n        }\n\n        return count;\n    }\n\n    event OrderAdded(address _stats);\n    event Matched(address indexed owner, uint256 price, uint256 quantity);\n}",
  "sourcePath": "/Users/mattb/Code/waterledger/contracts/contracts/OrderBook.sol",
  "compiler": {
    "name": "solc",
    "version": "0.4.24+commit.e67f0147.Emscripten.clang"
  },
  "schemaVersion": "3.0.19",
  "updatedAt": "2020-01-13T18:17:43.473Z",
  "devdoc": {
    "methods": {}
  },
  "userdoc": {
    "methods": {}
  }
}