{
  "contractName": "OrderBook",
  "abi": [
    {
      "constant": true,
      "inputs": [
        {
          "name": "",
          "type": "uint256"
        }
      ],
      "name": "_buys",
      "outputs": [
        {
          "name": "orderType",
          "type": "uint8"
        },
        {
          "name": "owner",
          "type": "address"
        },
        {
          "name": "price",
          "type": "uint256"
        },
        {
          "name": "quantity",
          "type": "uint256"
        },
        {
          "name": "timeStamp",
          "type": "uint256"
        },
        {
          "name": "matchedTimeStamp",
          "type": "uint256"
        }
      ],
      "payable": false,
      "stateMutability": "view",
      "type": "function"
    },
    {
      "constant": true,
      "inputs": [
        {
          "name": "data",
          "type": "uint256[]"
        },
        {
          "name": "indices",
          "type": "uint256[]"
        }
      ],
      "name": "sortWithIndex",
      "outputs": [
        {
          "name": "",
          "type": "uint256[]"
        }
      ],
      "payable": false,
      "stateMutability": "pure",
      "type": "function"
    },
    {
      "constant": true,
      "inputs": [],
      "name": "_aud",
      "outputs": [
        {
          "name": "",
          "type": "address"
        }
      ],
      "payable": false,
      "stateMutability": "view",
      "type": "function"
    },
    {
      "constant": true,
      "inputs": [],
      "name": "_stats",
      "outputs": [
        {
          "name": "",
          "type": "address"
        }
      ],
      "payable": false,
      "stateMutability": "view",
      "type": "function"
    },
    {
      "constant": false,
      "inputs": [],
      "name": "renounceOwnership",
      "outputs": [],
      "payable": false,
      "stateMutability": "nonpayable",
      "type": "function"
    },
    {
      "constant": true,
      "inputs": [],
      "name": "owner",
      "outputs": [
        {
          "name": "",
          "type": "address"
        }
      ],
      "payable": false,
      "stateMutability": "view",
      "type": "function"
    },
    {
      "constant": true,
      "inputs": [],
      "name": "isOwner",
      "outputs": [
        {
          "name": "",
          "type": "bool"
        }
      ],
      "payable": false,
      "stateMutability": "view",
      "type": "function"
    },
    {
      "constant": true,
      "inputs": [
        {
          "name": "data",
          "type": "uint256[]"
        }
      ],
      "name": "sort",
      "outputs": [
        {
          "name": "",
          "type": "uint256[]"
        }
      ],
      "payable": false,
      "stateMutability": "pure",
      "type": "function"
    },
    {
      "constant": true,
      "inputs": [
        {
          "name": "data",
          "type": "uint256[]"
        }
      ],
      "name": "reverseSort",
      "outputs": [
        {
          "name": "",
          "type": "uint256[]"
        }
      ],
      "payable": false,
      "stateMutability": "pure",
      "type": "function"
    },
    {
      "constant": true,
      "inputs": [
        {
          "name": "",
          "type": "uint256"
        }
      ],
      "name": "_sells",
      "outputs": [
        {
          "name": "orderType",
          "type": "uint8"
        },
        {
          "name": "owner",
          "type": "address"
        },
        {
          "name": "price",
          "type": "uint256"
        },
        {
          "name": "quantity",
          "type": "uint256"
        },
        {
          "name": "timeStamp",
          "type": "uint256"
        },
        {
          "name": "matchedTimeStamp",
          "type": "uint256"
        }
      ],
      "payable": false,
      "stateMutability": "view",
      "type": "function"
    },
    {
      "constant": true,
      "inputs": [],
      "name": "_water",
      "outputs": [
        {
          "name": "",
          "type": "address"
        }
      ],
      "payable": false,
      "stateMutability": "view",
      "type": "function"
    },
    {
      "constant": true,
      "inputs": [
        {
          "name": "data",
          "type": "uint256[]"
        },
        {
          "name": "indices",
          "type": "uint256[]"
        }
      ],
      "name": "reverseSortWithIndex",
      "outputs": [
        {
          "name": "",
          "type": "uint256[]"
        }
      ],
      "payable": false,
      "stateMutability": "pure",
      "type": "function"
    },
    {
      "constant": true,
      "inputs": [],
      "name": "_history",
      "outputs": [
        {
          "name": "",
          "type": "address"
        }
      ],
      "payable": false,
      "stateMutability": "view",
      "type": "function"
    },
    {
      "constant": false,
      "inputs": [
        {
          "name": "newOwner",
          "type": "address"
        }
      ],
      "name": "transferOwnership",
      "outputs": [],
      "payable": false,
      "stateMutability": "nonpayable",
      "type": "function"
    },
    {
      "constant": true,
      "inputs": [],
      "name": "_tradingZones",
      "outputs": [
        {
          "name": "",
          "type": "address"
        }
      ],
      "payable": false,
      "stateMutability": "view",
      "type": "function"
    },
    {
      "inputs": [
        {
          "name": "audContract",
          "type": "address"
        },
        {
          "name": "historyContract",
          "type": "address"
        },
        {
          "name": "statsContract",
          "type": "address"
        },
        {
          "name": "waterContract",
          "type": "address"
        },
        {
          "name": "tradingZonesContract",
          "type": "address"
        }
      ],
      "payable": false,
      "stateMutability": "nonpayable",
      "type": "constructor"
    },
    {
      "anonymous": false,
      "inputs": [
        {
          "indexed": false,
          "name": "_stats",
          "type": "address"
        }
      ],
      "name": "OrderAdded",
      "type": "event"
    },
    {
      "anonymous": false,
      "inputs": [
        {
          "indexed": true,
          "name": "owner",
          "type": "address"
        },
        {
          "indexed": false,
          "name": "price",
          "type": "uint256"
        },
        {
          "indexed": false,
          "name": "quantity",
          "type": "uint256"
        }
      ],
      "name": "Matched",
      "type": "event"
    },
    {
      "anonymous": false,
      "inputs": [
        {
          "indexed": true,
          "name": "previousOwner",
          "type": "address"
        }
      ],
      "name": "OwnershipRenounced",
      "type": "event"
    },
    {
      "anonymous": false,
      "inputs": [
        {
          "indexed": true,
          "name": "previousOwner",
          "type": "address"
        },
        {
          "indexed": true,
          "name": "newOwner",
          "type": "address"
        }
      ],
      "name": "OwnershipTransferred",
      "type": "event"
    },
    {
      "constant": true,
      "inputs": [],
      "name": "getTradingZone",
      "outputs": [
        {
          "name": "",
          "type": "uint256"
        },
        {
          "name": "",
          "type": "string"
        }
      ],
      "payable": false,
      "stateMutability": "view",
      "type": "function"
    },
    {
      "constant": false,
      "inputs": [
        {
          "name": "tradingZoneId",
          "type": "uint256"
        }
      ],
      "name": "setTradingZone",
      "outputs": [],
      "payable": false,
      "stateMutability": "nonpayable",
      "type": "function"
    },
    {
      "constant": false,
      "inputs": [
        {
          "name": "price",
          "type": "uint256"
        },
        {
          "name": "quantity",
          "type": "uint256"
        }
      ],
      "name": "addSellLimitOrder",
      "outputs": [],
      "payable": false,
      "stateMutability": "nonpayable",
      "type": "function"
    },
    {
      "constant": false,
      "inputs": [
        {
          "name": "price",
          "type": "uint256"
        },
        {
          "name": "quantity",
          "type": "uint256"
        }
      ],
      "name": "addBuyLimitOrder",
      "outputs": [],
      "payable": false,
      "stateMutability": "nonpayable",
      "type": "function"
    },
    {
      "constant": true,
      "inputs": [],
      "name": "getOrderBook",
      "outputs": [
        {
          "name": "",
          "type": "uint8[]"
        },
        {
          "name": "",
          "type": "address[]"
        },
        {
          "name": "",
          "type": "uint256[]"
        },
        {
          "name": "",
          "type": "uint256[]"
        },
        {
          "name": "",
          "type": "uint256[]"
        }
      ],
      "payable": false,
      "stateMutability": "view",
      "type": "function"
    },
    {
      "constant": true,
      "inputs": [
        {
          "name": "numberOfOrders",
          "type": "uint256"
        }
      ],
      "name": "getOrderBookSells",
      "outputs": [
        {
          "name": "",
          "type": "uint8[]"
        },
        {
          "name": "",
          "type": "address[]"
        },
        {
          "name": "",
          "type": "uint256[]"
        },
        {
          "name": "",
          "type": "uint256[]"
        },
        {
          "name": "",
          "type": "uint256[]"
        }
      ],
      "payable": false,
      "stateMutability": "view",
      "type": "function"
    },
    {
      "constant": true,
      "inputs": [
        {
          "name": "numberOfOrders",
          "type": "uint256"
        }
      ],
      "name": "getOrderBookBuys",
      "outputs": [
        {
          "name": "",
          "type": "uint8[]"
        },
        {
          "name": "",
          "type": "address[]"
        },
        {
          "name": "",
          "type": "uint256[]"
        },
        {
          "name": "",
          "type": "uint256[]"
        },
        {
          "name": "",
          "type": "uint256[]"
        }
      ],
      "payable": false,
      "stateMutability": "view",
      "type": "function"
    },
    {
      "constant": true,
      "inputs": [],
      "name": "lowestSell",
      "outputs": [
        {
          "name": "",
          "type": "address"
        },
        {
          "name": "",
          "type": "uint256"
        },
        {
          "name": "",
          "type": "uint256"
        },
        {
          "name": "",
          "type": "uint256"
        }
      ],
      "payable": false,
      "stateMutability": "view",
      "type": "function"
    },
    {
      "constant": true,
      "inputs": [],
      "name": "highestBuy",
      "outputs": [
        {
          "name": "",
          "type": "address"
        },
        {
          "name": "",
          "type": "uint256"
        },
        {
          "name": "",
          "type": "uint256"
        },
        {
          "name": "",
          "type": "uint256"
        }
      ],
      "payable": false,
      "stateMutability": "view",
      "type": "function"
    },
    {
      "constant": true,
      "inputs": [],
      "name": "getSellsCount",
      "outputs": [
        {
          "name": "",
          "type": "uint256"
        }
      ],
      "payable": false,
      "stateMutability": "view",
      "type": "function"
    },
    {
      "constant": true,
      "inputs": [],
      "name": "getBuysCount",
      "outputs": [
        {
          "name": "",
          "type": "uint256"
        }
      ],
      "payable": false,
      "stateMutability": "view",
      "type": "function"
    }
  ],
  "bytecode": "0x608060405234801561001057600080fd5b5060405160a080614c998339810180604052810190808051906020019092919080519060200190929190805190602001909291908051906020019092919080519060200190929190505050336000806101000a81548173ffffffffffffffffffffffffffffffffffffffff021916908373ffffffffffffffffffffffffffffffffffffffff16021790555084600260006101000a81548173ffffffffffffffffffffffffffffffffffffffff021916908373ffffffffffffffffffffffffffffffffffffffff16021790555083600460006101000a81548173ffffffffffffffffffffffffffffffffffffffff021916908373ffffffffffffffffffffffffffffffffffffffff16021790555082600360006101000a81548173ffffffffffffffffffffffffffffffffffffffff021916908373ffffffffffffffffffffffffffffffffffffffff16021790555081600160006101000a81548173ffffffffffffffffffffffffffffffffffffffff021916908373ffffffffffffffffffffffffffffffffffffffff16021790555080600560006101000a81548173ffffffffffffffffffffffffffffffffffffffff021916908373ffffffffffffffffffffffffffffffffffffffff1602179055505050505050614aa5806101f46000396000f300608060405260043610610154576000357c0100000000000000000000000000000000000000000000000000000000900463ffffffff168063035bbaba1461015957806313b44c3e14610190578063210ec4881461022e578063378ef32f1461032c5780635b14e6c5146103c35780635f712dbf1461041a57806365f127ee146104715780636922bcf614610613578063715018a61461063e578063724d850b146106555780638da5cb5b146106805780638f32d59b146106d75780639ec8b02614610706578063a2d7143a146107c1578063a9d9a4541461082d578063aa44899714610899578063b248c4ef14610954578063b3540c8b14610ae0578063b7cb03d114610b7e578063c330a29714610bab578063d01fbaf914610c02578063dc3eeb3414610d00578063e20d966b14610d57578063f21aecad14610d8e578063f2fde38b14610f30578063f8adf06c14610f73575b600080fd5b34801561016557600080fd5b5061018e6004803603810190808035906020019092919080359060200190929190505050610fca565b005b34801561019c57600080fd5b506101bb60048036038101908080359060200190929190505050611beb565b604051808760018111156101cb57fe5b60ff1681526020018673ffffffffffffffffffffffffffffffffffffffff1673ffffffffffffffffffffffffffffffffffffffff168152602001858152602001848152602001838152602001828152602001965050505050505060405180910390f35b34801561023a57600080fd5b506102d56004803603810190808035906020019082018035906020019080806020026020016040519081016040528093929190818152602001838360200280828437820191505050505050919291929080359060200190820180359060200190808060200260200160405190810160405280939291908181526020018383602002808284378201915050505050509192919290505050611c63565b6040518080602001828103825283818151815260200191508051906020019060200280838360005b838110156103185780820151818401526020810190506102fd565b505050509050019250505060405180910390f35b34801561033857600080fd5b50610341611c7f565b6040518083815260200180602001828103825283818151815260200191508051906020019080838360005b8381101561038757808201518184015260208101905061036c565b50505050905090810190601f1680156103b45780820380516001836020036101000a031916815260200191505b50935050505060405180910390f35b3480156103cf57600080fd5b506103d8611dee565b604051808273ffffffffffffffffffffffffffffffffffffffff1673ffffffffffffffffffffffffffffffffffffffff16815260200191505060405180910390f35b34801561042657600080fd5b5061042f611e14565b604051808273ffffffffffffffffffffffffffffffffffffffff1673ffffffffffffffffffffffffffffffffffffffff16815260200191505060405180910390f35b34801561047d57600080fd5b5061049c60048036038101908080359060200190929190505050611e3a565b60405180806020018060200180602001806020018060200186810386528b818151815260200191508051906020019060200280838360005b838110156104ef5780820151818401526020810190506104d4565b5050505090500186810385528a818151815260200191508051906020019060200280838360005b83811015610531578082015181840152602081019050610516565b50505050905001868103845289818151815260200191508051906020019060200280838360005b83811015610573578082015181840152602081019050610558565b50505050905001868103835288818151815260200191508051906020019060200280838360005b838110156105b557808201518184015260208101905061059a565b50505050905001868103825287818151815260200191508051906020019060200280838360005b838110156105f75780820151818401526020810190506105dc565b505050509050019a505050505050505050505060405180910390f35b34801561061f57600080fd5b506106286121d1565b6040518082815260200191505060405180910390f35b34801561064a57600080fd5b506106536121de565b005b34801561066157600080fd5b5061066a612327565b6040518082815260200191505060405180910390f35b34801561068c57600080fd5b50610695612334565b604051808273ffffffffffffffffffffffffffffffffffffffff1673ffffffffffffffffffffffffffffffffffffffff16815260200191505060405180910390f35b3480156106e357600080fd5b506106ec61235d565b604051808215151515815260200191505060405180910390f35b34801561071257600080fd5b5061076a600480360381019080803590602001908201803590602001908080602002602001604051908101604052809392919081815260200183836020028082843782019150505050505091929192905050506123b4565b6040518080602001828103825283818151815260200191508051906020019060200280838360005b838110156107ad578082015181840152602081019050610792565b505050509050019250505060405180910390f35b3480156107cd57600080fd5b506107d66123ce565b604051808573ffffffffffffffffffffffffffffffffffffffff1673ffffffffffffffffffffffffffffffffffffffff16815260200184815260200183815260200182815260200194505050505060405180910390f35b34801561083957600080fd5b506108426124dd565b604051808573ffffffffffffffffffffffffffffffffffffffff1673ffffffffffffffffffffffffffffffffffffffff16815260200184815260200183815260200182815260200194505050505060405180910390f35b3480156108a557600080fd5b506108fd600480360381019080803590602001908201803590602001908080602002602001604051908101604052809392919081815260200183836020028082843782019150505050505091929192905050506125ec565b6040518080602001828103825283818151815260200191508051906020019060200280838360005b83811015610940578082015181840152602081019050610925565b505050509050019250505060405180910390f35b34801561096057600080fd5b50610969612606565b60405180806020018060200180602001806020018060200186810386528b818151815260200191508051906020019060200280838360005b838110156109bc5780820151818401526020810190506109a1565b5050505090500186810385528a818151815260200191508051906020019060200280838360005b838110156109fe5780820151818401526020810190506109e3565b50505050905001868103845289818151815260200191508051906020019060200280838360005b83811015610a40578082015181840152602081019050610a25565b50505050905001868103835288818151815260200191508051906020019060200280838360005b83811015610a82578082015181840152602081019050610a67565b50505050905001868103825287818151815260200191508051906020019060200280838360005b83811015610ac4578082015181840152602081019050610aa9565b505050509050019a505050505050505050505060405180910390f35b348015610aec57600080fd5b50610b0b60048036038101908080359060200190929190505050612b43565b60405180876001811115610b1b57fe5b60ff1681526020018673ffffffffffffffffffffffffffffffffffffffff1673ffffffffffffffffffffffffffffffffffffffff168152602001858152602001848152602001838152602001828152602001965050505050505060405180910390f35b348015610b8a57600080fd5b50610ba960048036038101908080359060200190929190505050612bbb565b005b348015610bb757600080fd5b50610bc0612d9e565b604051808273ffffffffffffffffffffffffffffffffffffffff1673ffffffffffffffffffffffffffffffffffffffff16815260200191505060405180910390f35b348015610c0e57600080fd5b50610ca96004803603810190808035906020019082018035906020019080806020026020016040519081016040528093929190818152602001838360200280828437820191505050505050919291929080359060200190820180359060200190808060200260200160405190810160405280939291908181526020018383602002808284378201915050505050509192919290505050612dc4565b6040518080602001828103825283818151815260200191508051906020019060200280838360005b83811015610cec578082015181840152602081019050610cd1565b505050509050019250505060405180910390f35b348015610d0c57600080fd5b50610d15612de0565b604051808273ffffffffffffffffffffffffffffffffffffffff1673ffffffffffffffffffffffffffffffffffffffff16815260200191505060405180910390f35b348015610d6357600080fd5b50610d8c6004803603810190808035906020019092919080359060200190929190505050612e06565b005b348015610d9a57600080fd5b50610db960048036038101908080359060200190929190505050613acb565b60405180806020018060200180602001806020018060200186810386528b818151815260200191508051906020019060200280838360005b83811015610e0c578082015181840152602081019050610df1565b5050505090500186810385528a818151815260200191508051906020019060200280838360005b83811015610e4e578082015181840152602081019050610e33565b50505050905001868103845289818151815260200191508051906020019060200280838360005b83811015610e90578082015181840152602081019050610e75565b50505050905001868103835288818151815260200191508051906020019060200280838360005b83811015610ed2578082015181840152602081019050610eb7565b50505050905001868103825287818151815260200191508051906020019060200280838360005b83811015610f14578082015181840152602081019050610ef9565b505050509050019a505050505050505050505060405180910390f35b348015610f3c57600080fd5b50610f71600480360381019080803573ffffffffffffffffffffffffffffffffffffffff169060200190929190505050613e62565b005b348015610f7f57600080fd5b50610f88613f10565b604051808273ffffffffffffffffffffffffffffffffffffffff1673ffffffffffffffffffffffffffffffffffffffff16815260200191505060405180910390f35b600080600080606060008087118015610fe35750600088115b1515611057576040517f08c379a000000000000000000000000000000000000000000000000000000000815260040180806020018281038252601d8152602001807f56616c756573206d7573742062652067726561746572207468616e203000000081525060200191505060405180910390fd5b868802600260009054906101000a900473ffffffffffffffffffffffffffffffffffffffff1673ffffffffffffffffffffffffffffffffffffffff166370a08231336040518263ffffffff167c0100000000000000000000000000000000000000000000000000000000028152600401808273ffffffffffffffffffffffffffffffffffffffff1673ffffffffffffffffffffffffffffffffffffffff168152602001915050602060405180830381600087803b15801561111757600080fd5b505af115801561112b573d6000803e3d6000fd5b505050506040513d602081101561114157600080fd5b8101908080519060200190929190505050101515156111c8576040517f08c379a000000000000000000000000000000000000000000000000000000000815260040180806020018281038252601b8152602001807f496e73756666696369656e742041554420616c6c6f636174696f6e000000000081525060200191505060405180910390fd5b600660c0604051908101604052806001808111156111e257fe5b81526020013373ffffffffffffffffffffffffffffffffffffffff1681526020018a815260200189815260200142815260200160008152509080600181540180825580915050906001820390600052602060002090600502016000909192909190915060008201518160000160006101000a81548160ff0219169083600181111561126957fe5b021790555060208201518160000160016101000a81548173ffffffffffffffffffffffffffffffffffffffff021916908373ffffffffffffffffffffffffffffffffffffffff16021790555060408201518160010155606082015181600201556080820151816003015560a0820151816004015550509550600186039450600260009054906101000a900473ffffffffffffffffffffffffffffffffffffffff1673ffffffffffffffffffffffffffffffffffffffff1663067b3bac33898b026040518363ffffffff167c0100000000000000000000000000000000000000000000000000000000028152600401808373ffffffffffffffffffffffffffffffffffffffff1673ffffffffffffffffffffffffffffffffffffffff16815260200182815260200192505050602060405180830381600087803b1580156113ae57600080fd5b505af11580156113c2573d6000803e3d6000fd5b505050506040513d60208110156113d857600080fd5b8101908080519060200190929190505050507f9b0548ddacd7b2f31852ad0ce5af1d780efea21568275e609c14741246bfaeea33604051808273ffffffffffffffffffffffffffffffffffffffff1673ffffffffffffffffffffffffffffffffffffffff16815260200191505060405180910390a16000935060006007805490501115611be1576000925061146b613f36565b91505b868410801561147d5750815183105b15611be057818381518110151561149057fe5b90602001906020020151905060006007828154811015156114ad57fe5b9060005260206000209060050201600401541480156114ec5750876007828154811015156114d757fe5b90600052602060002090600502016001015411155b8015611519575083870360078281548110151561150557fe5b906000526020600020906005020160020154145b15611bd357600460009054906101000a900473ffffffffffffffffffffffffffffffffffffffff1673ffffffffffffffffffffffffffffffffffffffff16633856cb4b3360078481548110151561156c57fe5b906000526020600020906005020160000160019054906101000a900473ffffffffffffffffffffffffffffffffffffffff166007858154811015156115ad57fe5b9060005260206000209060050201600101546007868154811015156115ce57fe5b9060005260206000209060050201600201546040518563ffffffff167c0100000000000000000000000000000000000000000000000000000000028152600401808573ffffffffffffffffffffffffffffffffffffffff1673ffffffffffffffffffffffffffffffffffffffff1681526020018473ffffffffffffffffffffffffffffffffffffffff1673ffffffffffffffffffffffffffffffffffffffff168152602001838152602001828152602001945050505050600060405180830381600087803b15801561169f57600080fd5b505af11580156116b3573d6000803e3d6000fd5b50505050426007828154811015156116c757fe5b906000526020600020906005020160040181905550426006868154811015156116ec57fe5b90600052602060002090600502016004018190555060078181548110151561171057fe5b90600052602060002090600502016002015484019350600260009054906101000a900473ffffffffffffffffffffffffffffffffffffffff1673ffffffffffffffffffffffffffffffffffffffff1663d5bd9d7e60078381548110151561177357fe5b906000526020600020906005020160000160019054906101000a900473ffffffffffffffffffffffffffffffffffffffff168a6007858154811015156117b557fe5b906000526020600020906005020160020154026040518363ffffffff167c0100000000000000000000000000000000000000000000000000000000028152600401808373ffffffffffffffffffffffffffffffffffffffff1673ffffffffffffffffffffffffffffffffffffffff16815260200182815260200192505050602060405180830381600087803b15801561184d57600080fd5b505af1158015611861573d6000803e3d6000fd5b505050506040513d602081101561187757600080fd5b810190808051906020019092919050505050600160009054906101000a900473ffffffffffffffffffffffffffffffffffffffff1673ffffffffffffffffffffffffffffffffffffffff1663d5bd9d7e336007848154811015156118d757fe5b9060005260206000209060050201600201546040518363ffffffff167c0100000000000000000000000000000000000000000000000000000000028152600401808373ffffffffffffffffffffffffffffffffffffffff1673ffffffffffffffffffffffffffffffffffffffff16815260200182815260200192505050602060405180830381600087803b15801561196e57600080fd5b505af1158015611982573d6000803e3d6000fd5b505050506040513d602081101561199857600080fd5b810190808051906020019092919050505050600360009054906101000a900473ffffffffffffffffffffffffffffffffffffffff1673ffffffffffffffffffffffffffffffffffffffff166361a8da05886040518263ffffffff167c010000000000000000000000000000000000000000000000000000000002815260040180828152602001915050600060405180830381600087803b158015611a3b57600080fd5b505af1158015611a4f573d6000803e3d6000fd5b50505050600360009054906101000a900473ffffffffffffffffffffffffffffffffffffffff1673ffffffffffffffffffffffffffffffffffffffff1663aa0dc65c896040518263ffffffff167c010000000000000000000000000000000000000000000000000000000002815260040180828152602001915050600060405180830381600087803b158015611ae457600080fd5b505af1158015611af8573d6000803e3d6000fd5b50505050600781815481101515611b0b57fe5b906000526020600020906005020160000160019054906101000a900473ffffffffffffffffffffffffffffffffffffffff1673ffffffffffffffffffffffffffffffffffffffff167f77c1df43cb7be54edd24d14189148a7ab0e489aa034e7887a49aabeea2e51f18600783815481101515611b8357fe5b906000526020600020906005020160010154600784815481101515611ba457fe5b906000526020600020906005020160020154604051808381526020018281526020019250505060405180910390a25b828060010193505061146e565b5b5050505050505050565b600681815481101515611bfa57fe5b90600052602060002090600502016000915090508060000160009054906101000a900460ff16908060000160019054906101000a900473ffffffffffffffffffffffffffffffffffffffff16908060010154908060020154908060030154908060040154905086565b6060611c76838360006001875103614087565b81905092915050565b600060608060006008541115611dd057600560009054906101000a900473ffffffffffffffffffffffffffffffffffffffff1673ffffffffffffffffffffffffffffffffffffffff1663ea2443616008546040518263ffffffff167c010000000000000000000000000000000000000000000000000000000002815260040180828152602001915050600060405180830381600087803b158015611d2257600080fd5b505af1158015611d36573d6000803e3d6000fd5b505050506040513d6000823e3d601f19601f820116820180604052506040811015611d6057600080fd5b810190808051640100000000811115611d7857600080fd5b82810190506020810184811115611d8e57600080fd5b8151856001820283011164010000000082111715611dab57600080fd5b5050929190602001805190602001909291905050505090506008548192509250611de9565b6008546020604051908101604052806000815250925092505b509091565b600260009054906101000a900473ffffffffffffffffffffffffffffffffffffffff1681565b600360009054906101000a900473ffffffffffffffffffffffffffffffffffffffff1681565b6060806060806060600060608060608060608060008d611e58614252565b10611e63578d611e6c565b611e6b614252565b5b9750600a881115611e7c57600a97505b611e84613f36565b965087604051908082528060200260200182016040528015611eb55781602001602082028038833980820191505090505b50955087604051908082528060200260200182016040528015611ee75781602001602082028038833980820191505090505b50945087604051908082528060200260200182016040528015611f195781602001602082028038833980820191505090505b50935087604051908082528060200260200182016040528015611f4b5781602001602082028038833980820191505090505b50925087604051908082528060200260200182016040528015611f7d5781602001602082028038833980820191505090505b509150600090505b878110156121b15760078782815181101515611f9d57fe5b90602001906020020151815481101515611fb357fe5b906000526020600020906005020160000160009054906101000a900460ff168682815181101515611fe057fe5b906020019060200201906001811115611ff557fe5b9081600181111561200257fe5b815250506007878281518110151561201657fe5b9060200190602002015181548110151561202c57fe5b906000526020600020906005020160000160019054906101000a900473ffffffffffffffffffffffffffffffffffffffff16858281518110151561206c57fe5b9060200190602002019073ffffffffffffffffffffffffffffffffffffffff16908173ffffffffffffffffffffffffffffffffffffffff1681525050600787828151811015156120b857fe5b906020019060200201518154811015156120ce57fe5b90600052602060002090600502016001015484828151811015156120ee57fe5b90602001906020020181815250506007878281518110151561210c57fe5b9060200190602002015181548110151561212257fe5b906000526020600020906005020160020154838281518110151561214257fe5b90602001906020020181815250506007878281518110151561216057fe5b9060200190602002015181548110151561217657fe5b906000526020600020906005020160030154828281518110151561219657fe5b90602001906020020181815250508080600101915050611f85565b85858585859c509c509c509c509c50505050505050505091939590929450565b6000600680549050905090565b6121e661235d565b1515612280576040517f08c379a00000000000000000000000000000000000000000000000000000000081526004018080602001828103825260268152602001807f4f6e6c7920746865206f776e65722063616e20706572666f726d20746869732081526020017f616374696f6e000000000000000000000000000000000000000000000000000081525060400191505060405180910390fd5b6000809054906101000a900473ffffffffffffffffffffffffffffffffffffffff1673ffffffffffffffffffffffffffffffffffffffff167ff8df31144d9c2f0f6b59d69b8b98abd5459d07f2742c4df920b25aae33c6482060405160405180910390a260008060006101000a81548173ffffffffffffffffffffffffffffffffffffffff021916908373ffffffffffffffffffffffffffffffffffffffff160217905550565b6000600780549050905090565b60008060009054906101000a900473ffffffffffffffffffffffffffffffffffffffff16905090565b60008060009054906101000a900473ffffffffffffffffffffffffffffffffffffffff1673ffffffffffffffffffffffffffffffffffffffff163373ffffffffffffffffffffffffffffffffffffffff1614905090565b60606123c682600060018551036142b3565b819050919050565b60008060008060606000806123e1614252565b11156124bd576123ef613f36565b915081600081518110151561240057fe5b90602001906020020151905060078181548110151561241b57fe5b906000526020600020906005020160000160019054906101000a900473ffffffffffffffffffffffffffffffffffffffff1660078281548110151561245c57fe5b90600052602060002090600502016001015460078381548110151561247d57fe5b90600052602060002090600502016002015460078481548110151561249e57fe5b90600052602060002090600502016003015495509550955095506124d5565b60008060008082925081915080905095509550955095505b505090919293565b60008060008060606000806124f0614413565b11156125cc576124fe614474565b915081600081518110151561250f57fe5b90602001906020020151905060068181548110151561252a57fe5b906000526020600020906005020160000160019054906101000a900473ffffffffffffffffffffffffffffffffffffffff1660068281548110151561256b57fe5b90600052602060002090600502016001015460068381548110151561258c57fe5b9060005260206000209060050201600201546006848154811015156125ad57fe5b90600052602060002090600502016003015495509550955095506125e4565b60008060008082925081915080905095509550955095505b505090919293565b60606125fe82600060018551036145c5565b819050919050565b606080606080606060006060806060806060600080612623614413565b61262b614252565b0197508760405190808252806020026020018201604052801561265d5781602001602082028038833980820191505090505b5096508760405190808252806020026020018201604052801561268f5781602001602082028038833980820191505090505b509550876040519080825280602002602001820160405280156126c15781602001602082028038833980820191505090505b509450876040519080825280602002602001820160405280156126f35781602001602082028038833980820191505090505b509350876040519080825280602002602001820160405280156127255781602001602082028038833980820191505090505b509250600091505b60078054905082101561291557600060078381548110151561274b57fe5b90600052602060002090600502016004015414156129085760078281548110151561277257fe5b906000526020600020906005020160000160009054906101000a900460ff16878381518110151561279f57fe5b9060200190602002019060018111156127b457fe5b908160018111156127c157fe5b815250506007828154811015156127d457fe5b906000526020600020906005020160000160019054906101000a900473ffffffffffffffffffffffffffffffffffffffff16868381518110151561281457fe5b9060200190602002019073ffffffffffffffffffffffffffffffffffffffff16908173ffffffffffffffffffffffffffffffffffffffff168152505060078281548110151561285f57fe5b906000526020600020906005020160010154858381518110151561287f57fe5b906020019060200201818152505060078281548110151561289c57fe5b90600052602060002090600502016002015484838151811015156128bc57fe5b90602001906020020181815250506007828154811015156128d957fe5b90600052602060002090600502016003015483838151811015156128f957fe5b90602001906020020181815250505b818060010192505061272d565b600090505b600680549050811015612b2557600060068281548110151561293857fe5b9060005260206000209060050201600401541415612b185760068181548110151561295f57fe5b906000526020600020906005020160000160009054906101000a900460ff1687826007805490500181518110151561299357fe5b9060200190602002019060018111156129a857fe5b908160018111156129b557fe5b815250506006818154811015156129c857fe5b906000526020600020906005020160000160019054906101000a900473ffffffffffffffffffffffffffffffffffffffff16868260078054905001815181101515612a0f57fe5b9060200190602002019073ffffffffffffffffffffffffffffffffffffffff16908173ffffffffffffffffffffffffffffffffffffffff1681525050600681815481101515612a5a57fe5b906000526020600020906005020160010154858260078054905001815181101515612a8157fe5b9060200190602002018181525050600681815481101515612a9e57fe5b906000526020600020906005020160020154848260078054905001815181101515612ac557fe5b9060200190602002018181525050600681815481101515612ae257fe5b906000526020600020906005020160030154838260078054905001815181101515612b0957fe5b90602001906020020181815250505b808060010191505061291a565b86868686869c509c509c509c509c5050505050505050509091929394565b600781815481101515612b5257fe5b90600052602060002090600502016000915090508060000160009054906101000a900460ff16908060000160019054906101000a900473ffffffffffffffffffffffffffffffffffffffff16908060010154908060020154908060030154908060040154905086565b612bc361235d565b1515612c5d576040517f08c379a00000000000000000000000000000000000000000000000000000000081526004018080602001828103825260268152602001807f4f6e6c7920746865206f776e65722063616e20706572666f726d20746869732081526020017f616374696f6e000000000000000000000000000000000000000000000000000081525060400191505060405180910390fd5b600560009054906101000a900473ffffffffffffffffffffffffffffffffffffffff1673ffffffffffffffffffffffffffffffffffffffff1663ab9c2d136040518163ffffffff167c0100000000000000000000000000000000000000000000000000000000028152600401602060405180830381600087803b158015612ce357600080fd5b505af1158015612cf7573d6000803e3d6000fd5b505050506040513d6020811015612d0d57600080fd5b810190808051906020019092919050505081101515612d94576040517f08c379a00000000000000000000000000000000000000000000000000000000081526004018080602001828103825260148152602001807f496e76616c69642074726164696e67207a6f6e6500000000000000000000000081525060200191505060405180910390fd5b8060088190555050565b600160009054906101000a900473ffffffffffffffffffffffffffffffffffffffff1681565b6060612dd7838360006001875103614725565b81905092915050565b600460009054906101000a900473ffffffffffffffffffffffffffffffffffffffff1681565b600080600080606060008087118015612e1f5750600088115b1515612e93576040517f08c379a000000000000000000000000000000000000000000000000000000000815260040180806020018281038252601d8152602001807f56616c756573206d7573742062652067726561746572207468616e203000000081525060200191505060405180910390fd5b86600160009054906101000a900473ffffffffffffffffffffffffffffffffffffffff1673ffffffffffffffffffffffffffffffffffffffff166370a08231336040518263ffffffff167c0100000000000000000000000000000000000000000000000000000000028152600401808273ffffffffffffffffffffffffffffffffffffffff1673ffffffffffffffffffffffffffffffffffffffff168152602001915050602060405180830381600087803b158015612f5157600080fd5b505af1158015612f65573d6000803e3d6000fd5b505050506040513d6020811015612f7b57600080fd5b810190808051906020019092919050505010151515613002576040517f08c379a000000000000000000000000000000000000000000000000000000000815260040180806020018281038252601d8152602001807f496e73756666696369656e7420776174657220616c6c6f636174696f6e00000081525060200191505060405180910390fd5b600760c0604051908101604052806000600181111561301d57fe5b81526020013373ffffffffffffffffffffffffffffffffffffffff1681526020018a815260200189815260200142815260200160008152509080600181540180825580915050906001820390600052602060002090600502016000909192909190915060008201518160000160006101000a81548160ff021916908360018111156130a457fe5b021790555060208201518160000160016101000a81548173ffffffffffffffffffffffffffffffffffffffff021916908373ffffffffffffffffffffffffffffffffffffffff16021790555060408201518160010155606082015181600201556080820151816003015560a0820151816004015550509550600186039450600360009054906101000a900473ffffffffffffffffffffffffffffffffffffffff1673ffffffffffffffffffffffffffffffffffffffff166396455e13886040518263ffffffff167c010000000000000000000000000000000000000000000000000000000002815260040180828152602001915050600060405180830381600087803b1580156131b357600080fd5b505af11580156131c7573d6000803e3d6000fd5b50505050600160009054906101000a900473ffffffffffffffffffffffffffffffffffffffff1673ffffffffffffffffffffffffffffffffffffffff1663067b3bac33896040518363ffffffff167c0100000000000000000000000000000000000000000000000000000000028152600401808373ffffffffffffffffffffffffffffffffffffffff1673ffffffffffffffffffffffffffffffffffffffff16815260200182815260200192505050602060405180830381600087803b15801561329057600080fd5b505af11580156132a4573d6000803e3d6000fd5b505050506040513d60208110156132ba57600080fd5b8101908080519060200190929190505050507f9b0548ddacd7b2f31852ad0ce5af1d780efea21568275e609c14741246bfaeea33604051808273ffffffffffffffffffffffffffffffffffffffff1673ffffffffffffffffffffffffffffffffffffffff16815260200191505060405180910390a16000935060006006805490501115613ac1576000925061334d614474565b91505b868410801561335f5750815183105b15613ac057818381518110151561337257fe5b906020019060200201519050600060068281548110151561338f57fe5b9060005260206000209060050201600401541480156133ce5750876006828154811015156133b957fe5b90600052602060002090600502016001015410155b80156133f95750866006828154811015156133e557fe5b906000526020600020906005020160020154145b15613ab357600260009054906101000a900473ffffffffffffffffffffffffffffffffffffffff1673ffffffffffffffffffffffffffffffffffffffff1663d5bd9d7e338a60068581548110151561344d57fe5b906000526020600020906005020160020154026040518363ffffffff167c0100000000000000000000000000000000000000000000000000000000028152600401808373ffffffffffffffffffffffffffffffffffffffff1673ffffffffffffffffffffffffffffffffffffffff16815260200182815260200192505050602060405180830381600087803b1580156134e557600080fd5b505af11580156134f9573d6000803e3d6000fd5b505050506040513d602081101561350f57600080fd5b810190808051906020019092919050505050600160009054906101000a900473ffffffffffffffffffffffffffffffffffffffff1673ffffffffffffffffffffffffffffffffffffffff1663d5bd9d7e60068381548110151561356e57fe5b906000526020600020906005020160000160019054906101000a900473ffffffffffffffffffffffffffffffffffffffff166006848154811015156135af57fe5b9060005260206000209060050201600201546040518363ffffffff167c0100000000000000000000000000000000000000000000000000000000028152600401808373ffffffffffffffffffffffffffffffffffffffff1673ffffffffffffffffffffffffffffffffffffffff16815260200182815260200192505050602060405180830381600087803b15801561364657600080fd5b505af115801561365a573d6000803e3d6000fd5b505050506040513d602081101561367057600080fd5b810190808051906020019092919050505050600360009054906101000a900473ffffffffffffffffffffffffffffffffffffffff1673ffffffffffffffffffffffffffffffffffffffff166361a8da05886040518263ffffffff167c010000000000000000000000000000000000000000000000000000000002815260040180828152602001915050600060405180830381600087803b15801561371357600080fd5b505af1158015613727573d6000803e3d6000fd5b50505050600360009054906101000a900473ffffffffffffffffffffffffffffffffffffffff1673ffffffffffffffffffffffffffffffffffffffff1663aa0dc65c896040518263ffffffff167c010000000000000000000000000000000000000000000000000000000002815260040180828152602001915050600060405180830381600087803b1580156137bc57600080fd5b505af11580156137d0573d6000803e3d6000fd5b50505050600460009054906101000a900473ffffffffffffffffffffffffffffffffffffffff1673ffffffffffffffffffffffffffffffffffffffff16633856cb4b3360068481548110151561382257fe5b906000526020600020906005020160000160019054906101000a900473ffffffffffffffffffffffffffffffffffffffff1660068581548110151561386357fe5b90600052602060002090600502016001015460068681548110151561388457fe5b9060005260206000209060050201600201546040518563ffffffff167c0100000000000000000000000000000000000000000000000000000000028152600401808573ffffffffffffffffffffffffffffffffffffffff1673ffffffffffffffffffffffffffffffffffffffff1681526020018473ffffffffffffffffffffffffffffffffffffffff1673ffffffffffffffffffffffffffffffffffffffff168152602001838152602001828152602001945050505050600060405180830381600087803b15801561395557600080fd5b505af1158015613969573d6000803e3d6000fd5b505050504260068281548110151561397d57fe5b906000526020600020906005020160040181905550426007868154811015156139a257fe5b9060005260206000209060050201600401819055506006818154811015156139c657fe5b906000526020600020906005020160020154840193506006818154811015156139eb57fe5b906000526020600020906005020160000160019054906101000a900473ffffffffffffffffffffffffffffffffffffffff1673ffffffffffffffffffffffffffffffffffffffff167f77c1df43cb7be54edd24d14189148a7ab0e489aa034e7887a49aabeea2e51f18600683815481101515613a6357fe5b906000526020600020906005020160010154600684815481101515613a8457fe5b906000526020600020906005020160020154604051808381526020018281526020019250505060405180910390a25b8280600101935050613350565b5b5050505050505050565b6060806060806060600060608060608060608060008d613ae9614413565b10613af4578d613afd565b613afc614413565b5b9750600a881115613b0d57600a97505b613b15614474565b965087604051908082528060200260200182016040528015613b465781602001602082028038833980820191505090505b50955087604051908082528060200260200182016040528015613b785781602001602082028038833980820191505090505b50945087604051908082528060200260200182016040528015613baa5781602001602082028038833980820191505090505b50935087604051908082528060200260200182016040528015613bdc5781602001602082028038833980820191505090505b50925087604051908082528060200260200182016040528015613c0e5781602001602082028038833980820191505090505b509150600090505b87811015613e425760068782815181101515613c2e57fe5b90602001906020020151815481101515613c4457fe5b906000526020600020906005020160000160009054906101000a900460ff168682815181101515613c7157fe5b906020019060200201906001811115613c8657fe5b90816001811115613c9357fe5b8152505060068782815181101515613ca757fe5b90602001906020020151815481101515613cbd57fe5b906000526020600020906005020160000160019054906101000a900473ffffffffffffffffffffffffffffffffffffffff168582815181101515613cfd57fe5b9060200190602002019073ffffffffffffffffffffffffffffffffffffffff16908173ffffffffffffffffffffffffffffffffffffffff168152505060068782815181101515613d4957fe5b90602001906020020151815481101515613d5f57fe5b9060005260206000209060050201600101548482815181101515613d7f57fe5b906020019060200201818152505060068782815181101515613d9d57fe5b90602001906020020151815481101515613db357fe5b9060005260206000209060050201600201548382815181101515613dd357fe5b906020019060200201818152505060068782815181101515613df157fe5b90602001906020020151815481101515613e0757fe5b9060005260206000209060050201600301548282815181101515613e2757fe5b90602001906020020181815250508080600101915050613c16565b85858585859c509c509c509c509c50505050505050505091939590929450565b613e6a61235d565b1515613f04576040517f08c379a00000000000000000000000000000000000000000000000000000000081526004018080602001828103825260268152602001807f4f6e6c7920746865206f776e65722063616e20706572666f726d20746869732081526020017f616374696f6e000000000000000000000000000000000000000000000000000081525060400191505060405180910390fd5b613f0d816148f0565b50565b600560009054906101000a900473ffffffffffffffffffffffffffffffffffffffff1681565b606060006060806000806060613f4a614252565b955085604051908082528060200260200182016040528015613f7b5781602001602082028038833980820191505090505b50945085604051908082528060200260200182016040528015613fad5781602001602082028038833980820191505090505b5093506000861415613fc15783965061407e565b60009250600091505b60078054905082101561406e576000600783815481101515613fe857fe5b90600052602060002090600502016004015414156140615760078281548110151561400f57fe5b906000526020600020906005020160010154858481518110151561402f57fe5b906020019060200201818152505081848481518110151561404c57fe5b90602001906020020181815250506001830192505b8180600101925050613fca565b6140788585611c63565b90508096505b50505050505090565b60008060008492508391508183141561409f57614249565b8660028686038115156140ae57fe5b0586018151811015156140bd57fe5b9060200190602002015190505b818313151561421e575b8087848151811015156140e357fe5b9060200190602002015110156141005782806001019350506140d4565b5b868281518110151561410f57fe5b9060200190602002015181101561412e57818060019003925050614101565b818313151561421957868281518110151561414557fe5b90602001906020020151878481518110151561415d57fe5b90602001906020020151888581518110151561417557fe5b906020019060200201898581518110151561418c57fe5b9060200190602002018281525082815250505085828151811015156141ad57fe5b9060200190602002015186848151811015156141c557fe5b9060200190602002015187858151811015156141dd57fe5b90602001906020020188858151811015156141f457fe5b9060200190602002018281525082815250505082806001019350508180600190039250505b6140ca565b818512156142335761423287878785614087565b5b838312156142485761424787878587614087565b5b5b50505050505050565b6000806000809150600090505b6007805490508110156142ab57600060078281548110151561427d57fe5b906000526020600020906005020160040154141561429e5781806001019250505b808060010191505061425f565b819250505090565b6000806000849250839150818314156142cb5761440b565b8560028686038115156142da57fe5b0586018151811015156142e957fe5b9060200190602002015190505b81831315156143e2575b80868481518110151561430f57fe5b90602001906020020151101561432c578280600101935050614300565b5b858281518110151561433b57fe5b9060200190602002015181101561435a5781806001900392505061432d565b81831315156143dd57858281518110151561437157fe5b90602001906020020151868481518110151561438957fe5b9060200190602002015187858151811015156143a157fe5b90602001906020020188858151811015156143b857fe5b9060200190602002018281525082815250505082806001019350508180600190039250505b6142f6565b818512156143f6576143f58686846142b3565b5b8383121561440a576144098684866142b3565b5b5b505050505050565b6000806000809150600090505b60068054905081101561446c57600060068281548110151561443e57fe5b906000526020600020906005020160040154141561445f5781806001019250505b8080600101915050614420565b819250505090565b606060006060806000806060614488614413565b9550856040519080825280602002602001820160405280156144b95781602001602082028038833980820191505090505b509450856040519080825280602002602001820160405280156144eb5781602001602082028038833980820191505090505b50935060008614156144ff578396506145bc565b60009250600091505b6006805490508210156145ac57600060068381548110151561452657fe5b906000526020600020906005020160040154141561459f5760068281548110151561454d57fe5b906000526020600020906005020160010154858481518110151561456d57fe5b906020019060200201818152505081848481518110151561458a57fe5b90602001906020020181815250506001830192505b8180600101925050614508565b6145b68585612dc4565b90508096505b50505050505090565b6000806000849250839150818314156145dd5761471d565b8560028686038115156145ec57fe5b0586018151811015156145fb57fe5b9060200190602002015190505b81831315156146f4575b80868481518110151561462157fe5b90602001906020020151111561463e578280600101935050614612565b5b858281518110151561464d57fe5b9060200190602002015181111561466c5781806001900392505061463f565b81831315156146ef57858281518110151561468357fe5b90602001906020020151868481518110151561469b57fe5b9060200190602002015187858151811015156146b357fe5b90602001906020020188858151811015156146ca57fe5b9060200190602002018281525082815250505082806001019350508180600190039250505b614608565b81851215614708576147078686846145c5565b5b8383121561471c5761471b8684866145c5565b5b5b505050505050565b60008060008492508391508183141561473d576148e7565b86600286860381151561474c57fe5b05860181518110151561475b57fe5b9060200190602002015190505b81831315156148bc575b80878481518110151561478157fe5b90602001906020020151111561479e578280600101935050614772565b5b86828151811015156147ad57fe5b906020019060200201518111156147cc5781806001900392505061479f565b81831315156148b75786828151811015156147e357fe5b9060200190602002015187848151811015156147fb57fe5b90602001906020020151888581518110151561481357fe5b906020019060200201898581518110151561482a57fe5b90602001906020020182815250828152505050858281518110151561484b57fe5b90602001906020020151868481518110151561486357fe5b90602001906020020151878581518110151561487b57fe5b906020019060200201888581518110151561489257fe5b9060200190602002018281525082815250505082806001019350508180600190039250505b614768565b818512156148d1576148d087878785614725565b5b838312156148e6576148e587878587614725565b5b5b50505050505050565b600073ffffffffffffffffffffffffffffffffffffffff168173ffffffffffffffffffffffffffffffffffffffff16141515156149bb576040517f08c379a00000000000000000000000000000000000000000000000000000000081526004018080602001828103825260278152602001807f596f752063616e6e6f74207472616e7366657220746f20746865207a65726f2081526020017f616464726573730000000000000000000000000000000000000000000000000081525060400191505060405180910390fd5b8073ffffffffffffffffffffffffffffffffffffffff166000809054906101000a900473ffffffffffffffffffffffffffffffffffffffff1673ffffffffffffffffffffffffffffffffffffffff167f8be0079c531659141344cd1fd0a4f28419497f9722a3daafe3b4186f6b6457e060405160405180910390a3806000806101000a81548173ffffffffffffffffffffffffffffffffffffffff021916908373ffffffffffffffffffffffffffffffffffffffff160217905550505600a165627a7a7230582062d23fa1b5f65997d361b3f6516e3cae19b62f72955dc6adf88df724e12b03830029",
  "source": "pragma solidity ^0.4.24;\n\nimport \"./Ownable.sol\";\nimport \"./Water.sol\";\nimport \"./Stats.sol\";\nimport \"./AUD.sol\";\nimport \"./IERC20.sol\";\nimport \"./IOrderBook.sol\";\nimport \"./QuickSort.sol\";\nimport \"./SafeMath.sol\";\nimport \"./History.sol\";\nimport \"./TradingZones.sol\";\n\ncontract OrderBook is IOrderBook, QuickSort, Ownable {\n    using SafeMath for uint;\n\n    IERC20 public _water;\n    IERC20 public _aud;\n    Stats public _stats;\n    History public _history;\n    TradingZones public _tradingZones;\n\n    enum OrderType { Sell, Buy }\n\n    struct Order {\n        OrderType orderType;\n        address owner;\n        uint256 price;\n        uint256 quantity;\n        uint256 timeStamp;\n        uint256 matchedTimeStamp;\n    }\n\n    Order[] public _buys;\n    Order[] public _sells;\n\n    uint256 private _tradingZoneId;\n\n    constructor (address audContract, address historyContract, address statsContract, address waterContract, address tradingZonesContract) public {\n        _aud = AUD(audContract);\n        _history = History(historyContract);\n        _stats = Stats(statsContract);\n        _water = Water(waterContract);\n        _tradingZones = TradingZones(tradingZonesContract);\n    }\n\n    function getTradingZone() public view returns(uint256, string) {\n        if(_tradingZoneId > 0) {\n            (string memory tradingZoneName, ) = _tradingZones.tradingZoneById(_tradingZoneId);\n            return (_tradingZoneId, tradingZoneName);\n        }\n        return (_tradingZoneId, \"\");\n    }\n\n    function setTradingZone(uint256 tradingZoneId) public onlyOwner {\n        require(tradingZoneId < _tradingZones.tradingZonesCount(), \"Invalid trading zone\");\n        _tradingZoneId = tradingZoneId;\n    }\n\n    function addSellLimitOrder(uint256 price, uint256 quantity) public {\n        require(quantity > 0 && price > 0, \"Values must be greater than 0\");\n        require(_water.balanceOf(msg.sender) >= quantity, \"Insufficient water allocation\");\n\n        uint256 sellCount = _sells.push(Order(OrderType.Sell, msg.sender, price, quantity, now, 0));\n        uint256 sellIndex = sellCount - 1;\n        _stats.updateVolumeAvailable(quantity);\n        _water.orderBookDebit(msg.sender, quantity);\n\n        emit OrderAdded(msg.sender);\n\n        uint256 matchedQuantity = 0;\n\n        if (_buys.length > 0) {\n\n            uint256 i = 0;\n            uint256[] memory sortedIndexes = getPriceTimeBuyOrders();\n\n            while (matchedQuantity < quantity && i < sortedIndexes.length) {\n\n                uint256 j = sortedIndexes[i];\n\n                if (_buys[j].matchedTimeStamp == 0 && _buys[j].price >= price && _buys[j].quantity == quantity) {\n\n                    //Credit the seller with AUD\n                    _aud.orderBookCredit(msg.sender, _buys[j].quantity * price);\n\n                    //Credit the buyer with water\n                    _water.orderBookCredit(_buys[j].owner, _buys[j].quantity);\n\n                    _stats.reduceVolumeAvailable(quantity);\n                    _stats.setLastTradePrice(price);\n\n                    _history.addHistory(msg.sender, _buys[j].owner, _buys[j].price, _buys[j].quantity);\n                    _buys[j].matchedTimeStamp = now;\n                    _sells[sellIndex].matchedTimeStamp = now;\n\n                    matchedQuantity += _buys[j].quantity;\n\n                    emit Matched(_buys[j].owner, _buys[j].price, _buys[j].quantity);\n                }\n\n                i++;\n            }\n        }\n    }\n\n    function addBuyLimitOrder(uint256 price, uint256 quantity) public {\n        require(quantity > 0 && price > 0, \"Values must be greater than 0\");\n        require(_aud.balanceOf(msg.sender) >= price * quantity, \"Insufficient AUD allocation\");\n\n        //Push to array first\n        uint256 buyCount = _buys.push(Order(OrderType.Buy, msg.sender, price, quantity, now, 0));\n        uint256 buyIndex = buyCount - 1;\n        _aud.orderBookDebit(msg.sender, price * quantity);\n\n        emit OrderAdded(msg.sender);\n\n        uint256 matchedQuantity = 0;\n\n        if (_sells.length > 0) {\n\n            uint256 i = 0;\n            uint256[] memory sortedIndexes = getPriceTimeSellOrders();\n\n            while (matchedQuantity < quantity && i < sortedIndexes.length) {\n\n                uint256 j = sortedIndexes[i];\n\n                if ( _sells[j].matchedTimeStamp == 0 && _sells[j].price <= price && _sells[j].quantity == (quantity - matchedQuantity)) {\n                    _history.addHistory(msg.sender, _sells[j].owner, _sells[j].price, _sells[j].quantity);\n\n                    _sells[j].matchedTimeStamp = now;\n                    _buys[buyIndex].matchedTimeStamp = now;\n\n                    matchedQuantity += _sells[j].quantity;\n\n                    //Credit the seller with AUD\n                    _aud.orderBookCredit(_sells[j].owner, _sells[j].quantity * price);\n\n                    //Credit the buyer with water\n                    _water.orderBookCredit(msg.sender, _sells[j].quantity);\n\n                    _stats.reduceVolumeAvailable(quantity);\n                    _stats.setLastTradePrice(price);\n\n                    emit Matched(_sells[j].owner, _sells[j].price, _sells[j].quantity);\n                }\n\n                i++;\n            }\n        }\n    }\n\n    function getOrderBook() public view returns (\n        OrderType[],\n        address[],\n        uint256[],\n        uint256[],\n        uint256[]\n    ) {\n        uint256 totalLength = getUnmatchedSellsCount() + getUnmatchedBuysCount();\n\n        OrderType[] memory orderTypes = new OrderType[](totalLength);\n\n        address[] memory owners = new address[](totalLength);\n        uint256[] memory prices = new uint256[](totalLength);\n        uint256[] memory quantities = new uint256[](totalLength);\n        uint256[] memory timeStamps = new uint256[](totalLength);\n\n        for(uint256 i = 0; i < _sells.length; i++) {\n            if (_sells[i].matchedTimeStamp == 0) {\n                orderTypes[i] = _sells[i].orderType;\n                owners[i] = _sells[i].owner;\n                prices[i] = _sells[i].price;\n                quantities[i] = _sells[i].quantity;\n                timeStamps[i] = _sells[i].timeStamp;\n            }\n        }\n\n        for(uint256 j = 0; j < _buys.length; j++) {\n            if (_buys[j].matchedTimeStamp == 0) {\n                orderTypes[_sells.length + j] = _buys[j].orderType;\n                owners[_sells.length + j] = _buys[j].owner;\n                prices[_sells.length + j] = _buys[j].price;\n                quantities[_sells.length + j] = _buys[j].quantity;\n                timeStamps[_sells.length + j] = _buys[j].timeStamp;\n            }\n        }\n\n        return (orderTypes, owners, prices, quantities, timeStamps);\n    }\n\n    function getOrderBookSells(uint256 numberOfOrders) public view returns (\n        OrderType[],\n        address[],\n        uint256[],\n        uint256[],\n        uint256[]\n    ) {\n\n        uint256 max = getUnmatchedSellsCount() < numberOfOrders ? getUnmatchedSellsCount() : numberOfOrders;\n\n        if (max > 10) {\n            max = 10;\n        }\n\n        uint256[] memory sortedIndexes = getPriceTimeSellOrders();\n\n        OrderType[] memory orderTypes = new OrderType[](max);\n        address[] memory owners = new address[](max);\n        uint256[] memory prices = new uint256[](max);\n        uint256[] memory quantities = new uint256[](max);\n        uint256[] memory timeStamps = new uint256[](max);\n\n        for(uint256 i = 0; i < max; i++) {\n            orderTypes[i] = _sells[sortedIndexes[i]].orderType;\n            owners[i] = _sells[sortedIndexes[i]].owner;\n            prices[i] = _sells[sortedIndexes[i]].price;\n            quantities[i] = _sells[sortedIndexes[i]].quantity;\n            timeStamps[i] = _sells[sortedIndexes[i]].timeStamp;\n        }\n\n        return (orderTypes, owners, prices, quantities, timeStamps);\n    }\n\n    function getOrderBookBuys(uint256 numberOfOrders) public view returns (\n        OrderType[],\n        address[],\n        uint256[],\n        uint256[],\n        uint256[]\n    ) {\n\n        uint256 max = getUnmatchedBuysCount() < numberOfOrders ? getUnmatchedBuysCount() : numberOfOrders;\n\n        if (max > 10) {\n            max = 10;\n        }\n\n        uint256[] memory sortedIndexes = getPriceTimeBuyOrders();\n\n        OrderType[] memory orderTypes = new OrderType[](max);\n        address[] memory owners = new address[](max);\n        uint256[] memory prices = new uint256[](max);\n        uint256[] memory quantities = new uint256[](max);\n        uint256[] memory timeStamps = new uint256[](max);\n\n        for(uint256 i = 0; i < max; i++) {\n            orderTypes[i] = _buys[sortedIndexes[i]].orderType;\n            owners[i] = _buys[sortedIndexes[i]].owner;\n            prices[i] = _buys[sortedIndexes[i]].price;\n            quantities[i] = _buys[sortedIndexes[i]].quantity;\n            timeStamps[i] = _buys[sortedIndexes[i]].timeStamp;\n        }\n\n        return (orderTypes, owners, prices, quantities, timeStamps);\n    }\n\n    function lowestSell() public view returns(address, uint256, uint256, uint256) {\n        if (getUnmatchedSellsCount() > 0) {\n            uint256[] memory sortedIndexes = getPriceTimeSellOrders();\n\n            uint i = sortedIndexes[0];\n            return (_sells[i].owner, _sells[i].price, _sells[i].quantity, _sells[i].timeStamp);\n        }\n\n        return (address(0), 0, 0, 0);\n    }\n\n    function highestBuy() public view returns(address, uint256, uint256, uint256) {\n        if (getUnmatchedBuysCount() > 0) {\n            uint256[] memory sortedIndexes = getPriceTimeBuyOrders();\n\n            uint i = sortedIndexes[0];\n            return (_buys[i].owner, _buys[i].price, _buys[i].quantity, _buys[i].timeStamp);\n        }\n\n        return (address(0), 0, 0, 0);\n    }\n\n    function getPriceTimeSellOrders() internal view returns(uint256[]) {\n        uint256 count = getUnmatchedSellsCount();\n\n        uint256[] memory prices = new uint256[](count);\n        uint256[] memory indexes = new uint256[](count);\n\n        if (count == 0) {\n            return indexes;\n        }\n\n        uint j = 0;\n        for (uint i = 0; i < _sells.length; i++) {\n            if (_sells[i].matchedTimeStamp == 0) {\n                prices[j] = _sells[i].price;\n                indexes[j] = i;\n                j += 1;\n            }\n        }\n\n        uint256[] memory sortedIndexes = sortWithIndex(prices, indexes);\n        return sortedIndexes;\n    }\n\n    function getPriceTimeBuyOrders() internal view returns(uint256[]) {\n        uint256 count = getUnmatchedBuysCount();\n\n        uint256[] memory prices = new uint256[](count);\n        uint256[] memory indexes = new uint256[](count);\n\n        if (count == 0) {\n            return indexes;\n        }\n\n        uint j = 0;\n        for (uint i = 0; i < _buys.length; i++) {\n            if (_buys[i].matchedTimeStamp == 0) {\n                prices[j] = _buys[i].price;\n                indexes[j] = i;\n                j += 1;\n            }\n        }\n\n        uint256[] memory sortedIndexes = reverseSortWithIndex(prices, indexes);\n        return sortedIndexes;\n    }\n\n    function getSellsCount() public view returns (uint) {\n        return _sells.length;\n    }\n\n    function getUnmatchedSellsCount() internal view returns (uint) {\n        uint count = 0;\n        for (uint i = 0; i < _sells.length; i++) {\n            if (_sells[i].matchedTimeStamp == 0) {\n                count++;\n            }\n        }\n\n        return count;\n    }\n\n    function getBuysCount() public view returns (uint) {\n        return _buys.length;\n    }\n\n    function getUnmatchedBuysCount() internal view returns (uint) {\n        uint count = 0;\n        for (uint i = 0; i < _buys.length; i++) {\n            if (_buys[i].matchedTimeStamp == 0) {\n                count++;\n            }\n        }\n\n        return count;\n    }\n\n    event OrderAdded(address _stats);\n    event Matched(address indexed owner, uint256 price, uint256 quantity);\n}",
  "sourcePath": "/Users/mattb/Code/waterledger/contracts/contracts/OrderBook.sol",
  "compiler": {
    "name": "solc",
    "version": "0.4.24+commit.e67f0147.Emscripten.clang"
  },
  "schemaVersion": "3.0.19",
  "updatedAt": "2019-11-19T19:29:26.675Z",
  "devdoc": {
    "methods": {}
  },
  "userdoc": {
    "methods": {}
  }
}