{
  "contractName": "Roles",
  "abi": [
    {
      "constant": false,
      "inputs": [],
      "name": "renounceOwnership",
      "outputs": [],
      "payable": false,
      "stateMutability": "nonpayable",
      "type": "function"
    },
    {
      "constant": true,
      "inputs": [],
      "name": "owner",
      "outputs": [
        {
          "name": "",
          "type": "address"
        }
      ],
      "payable": false,
      "stateMutability": "view",
      "type": "function"
    },
    {
      "constant": true,
      "inputs": [],
      "name": "isOwner",
      "outputs": [
        {
          "name": "",
          "type": "bool"
        }
      ],
      "payable": false,
      "stateMutability": "view",
      "type": "function"
    },
    {
      "constant": false,
      "inputs": [
        {
          "name": "newOwner",
          "type": "address"
        }
      ],
      "name": "transferOwnership",
      "outputs": [],
      "payable": false,
      "stateMutability": "nonpayable",
      "type": "function"
    },
    {
      "inputs": [
        {
          "name": "userContractAddress",
          "type": "address"
        }
      ],
      "payable": false,
      "stateMutability": "nonpayable",
      "type": "constructor"
    },
    {
      "anonymous": false,
      "inputs": [
        {
          "indexed": true,
          "name": "previousOwner",
          "type": "address"
        }
      ],
      "name": "OwnershipRenounced",
      "type": "event"
    },
    {
      "anonymous": false,
      "inputs": [
        {
          "indexed": true,
          "name": "previousOwner",
          "type": "address"
        },
        {
          "indexed": true,
          "name": "newOwner",
          "type": "address"
        }
      ],
      "name": "OwnershipTransferred",
      "type": "event"
    },
    {
      "constant": false,
      "inputs": [
        {
          "name": "roleName",
          "type": "string"
        },
        {
          "name": "assigneeUser",
          "type": "uint256"
        }
      ],
      "name": "assignRole",
      "outputs": [],
      "payable": false,
      "stateMutability": "nonpayable",
      "type": "function"
    },
    {
      "constant": false,
      "inputs": [
        {
          "name": "roleName",
          "type": "string"
        },
        {
          "name": "assigneeUser",
          "type": "uint256"
        }
      ],
      "name": "revokeRole",
      "outputs": [],
      "payable": false,
      "stateMutability": "nonpayable",
      "type": "function"
    },
    {
      "constant": true,
      "inputs": [
        {
          "name": "roleName",
          "type": "string"
        },
        {
          "name": "assigneeUser",
          "type": "uint256"
        }
      ],
      "name": "hasRoleById",
      "outputs": [
        {
          "name": "",
          "type": "bool"
        }
      ],
      "payable": false,
      "stateMutability": "view",
      "type": "function"
    },
    {
      "constant": true,
      "inputs": [
        {
          "name": "roleName",
          "type": "string"
        },
        {
          "name": "assigneeUserAddress",
          "type": "address"
        }
      ],
      "name": "hasRoleByAddress",
      "outputs": [
        {
          "name": "",
          "type": "bool"
        }
      ],
      "payable": false,
      "stateMutability": "view",
      "type": "function"
    }
  ],
  "bytecode": "0x608060405234801561001057600080fd5b506040516020806111d083398101806040528101908080519060200190929190505050336000806101000a81548173ffffffffffffffffffffffffffffffffffffffff021916908373ffffffffffffffffffffffffffffffffffffffff16021790555080600160006101000a81548173ffffffffffffffffffffffffffffffffffffffff021916908373ffffffffffffffffffffffffffffffffffffffff1602179055505061110c806100c46000396000f30060806040526004361061008e576000357c0100000000000000000000000000000000000000000000000000000000900463ffffffff1680636a769c2914610093578063715018a61461010657806386f153821461011d5780638da5cb5b146101a85780638f32d59b146101ff578063a5b749d91461022e578063f2fde38b146102cf578063ff1484ca14610312575b600080fd5b34801561009f57600080fd5b50610104600480360381019080803590602001908201803590602001908080601f016020809104026020016040519081016040528093929190818152602001838380828437820191505050505050919291929080359060200190929190505050610385565b005b34801561011257600080fd5b5061011b6106a0565b005b34801561012957600080fd5b5061018e600480360381019080803590602001908201803590602001908080601f0160208091040260200160405190810160405280939291908181526020018383808284378201915050505050509192919290803590602001909291905050506107e9565b604051808215151515815260200191505060405180910390f35b3480156101b457600080fd5b506101bd610934565b604051808273ffffffffffffffffffffffffffffffffffffffff1673ffffffffffffffffffffffffffffffffffffffff16815260200191505060405180910390f35b34801561020b57600080fd5b5061021461095d565b604051808215151515815260200191505060405180910390f35b34801561023a57600080fd5b506102b5600480360381019080803590602001908201803590602001908080601f0160208091040260200160405190810160405280939291908181526020018383808284378201915050505050509192919290803573ffffffffffffffffffffffffffffffffffffffff1690602001909291905050506109b4565b604051808215151515815260200191505060405180910390f35b3480156102db57600080fd5b50610310600480360381019080803573ffffffffffffffffffffffffffffffffffffffff169060200190929190505050610ae2565b005b34801561031e57600080fd5b50610383600480360381019080803590602001908201803590602001908080601f016020809104026020016040519081016040528093929190818152602001838380828437820191505050505050919291929080359060200190929190505050610b90565b005b6060600061039161095d565b151561042b576040517f08c379a00000000000000000000000000000000000000000000000000000000081526004018080602001828103825260268152602001807f4f6e6c7920746865206f776e65722063616e20706572666f726d20746869732081526020017f616374696f6e000000000000000000000000000000000000000000000000000081525060400191505060405180910390fd5b60026000848152602001908152602001600020805480602002602001604051908101604052809291908181526020016000905b8282101561051a578382906000526020600020018054600181600116156101000203166002900480601f0160208091040260200160405190810160405280929190818152602001828054600181600116156101000203166002900480156105065780601f106104db57610100808354040283529160200191610506565b820191906000526020600020905b8154815290600101906020018083116104e957829003601f168201915b50505050508152602001906001019061045e565b505050509150600090505b815181101561069a57836040518082805190602001908083835b602083101515610564578051825260208201915060208101905060208303925061053f565b6001836020036101000a03801982511681845116808217855250505050505090500191505060405180910390206000191682828151811015156105a357fe5b906020019060200201516040518082805190602001908083835b6020831015156105e257805182526020820191506020810190506020830392506105bd565b6001836020036101000a038019825116818451168082178552505050505050905001915050604051809103902060001916141561068d5781600160026000868152602001908152602001600020805490500381518110151561064057fe5b90602001906020020151828281518110151561065857fe5b906020019060200201819052506002600084815260200190815260200160002080548091906001900361068b9190610f9b565b505b8080600101915050610525565b50505050565b6106a861095d565b1515610742576040517f08c379a00000000000000000000000000000000000000000000000000000000081526004018080602001828103825260268152602001807f4f6e6c7920746865206f776e65722063616e20706572666f726d20746869732081526020017f616374696f6e000000000000000000000000000000000000000000000000000081525060400191505060405180910390fd5b6000809054906101000a900473ffffffffffffffffffffffffffffffffffffffff1673ffffffffffffffffffffffffffffffffffffffff167ff8df31144d9c2f0f6b59d69b8b98abd5459d07f2742c4df920b25aae33c6482060405160405180910390a260008060006101000a81548173ffffffffffffffffffffffffffffffffffffffff021916908373ffffffffffffffffffffffffffffffffffffffff160217905550565b600080600090505b600260008481526020019081526020016000208054905081101561092857836040518082805190602001908083835b6020831015156108455780518252602082019150602081019050602083039250610820565b6001836020036101000a038019825116818451168082178552505050505050905001915050604051809103902060001916600260008581526020019081526020016000208281548110151561089657fe5b9060005260206000200160405180828054600181600116156101000203166002900480156108fb5780601f106108d95761010080835404028352918201916108fb565b820191906000526020600020905b8154815290600101906020018083116108e7575b5050915050604051809103902060001916141561091b576001915061092d565b80806001019150506107f1565b600091505b5092915050565b60008060009054906101000a900473ffffffffffffffffffffffffffffffffffffffff16905090565b60008060009054906101000a900473ffffffffffffffffffffffffffffffffffffffff1673ffffffffffffffffffffffffffffffffffffffff163373ffffffffffffffffffffffffffffffffffffffff1614905090565b6000806000600160009054906101000a900473ffffffffffffffffffffffffffffffffffffffff1673ffffffffffffffffffffffffffffffffffffffff1663989e5ea9856040518263ffffffff167c0100000000000000000000000000000000000000000000000000000000028152600401808273ffffffffffffffffffffffffffffffffffffffff1673ffffffffffffffffffffffffffffffffffffffff1681526020019150506040805180830381600087803b158015610a7557600080fd5b505af1158015610a89573d6000803e3d6000fd5b505050506040513d6040811015610a9f57600080fd5b810190808051906020019092919080519060200190929190505050915091508015610ad557610ace85836107e9565b9250610ada565b600092505b505092915050565b610aea61095d565b1515610b84576040517f08c379a00000000000000000000000000000000000000000000000000000000081526004018080602001828103825260268152602001807f4f6e6c7920746865206f776e65722063616e20706572666f726d20746869732081526020017f616374696f6e000000000000000000000000000000000000000000000000000081525060400191505060405180910390fd5b610b8d81610e12565b50565b600080610b9b61095d565b1515610c35576040517f08c379a00000000000000000000000000000000000000000000000000000000081526004018080602001828103825260268152602001807f4f6e6c7920746865206f776e65722063616e20706572666f726d20746869732081526020017f616374696f6e000000000000000000000000000000000000000000000000000081525060400191505060405180910390fd5b600160009054906101000a900473ffffffffffffffffffffffffffffffffffffffff1673ffffffffffffffffffffffffffffffffffffffff1663ac7ed194846040518263ffffffff167c0100000000000000000000000000000000000000000000000000000000028152600401808281526020019150506040805180830381600087803b158015610cc557600080fd5b505af1158015610cd9573d6000803e3d6000fd5b505050506040513d6040811015610cef57600080fd5b81019080805190602001909291908051906020019092919050505091509150600082118015610d22575060011515811515145b1515610dbc576040517f08c379a00000000000000000000000000000000000000000000000000000000081526004018080602001828103825260268152602001807f41737369676e65652075736572206973206e6f7420612072656769737465726581526020017f642075736572000000000000000000000000000000000000000000000000000081525060400191505060405180910390fd5b60026000848152602001908152602001600020849080600181540180825580915050906001820390600052602060002001600090919290919091509080519060200190610e0a929190610fc7565b505050505050565b600073ffffffffffffffffffffffffffffffffffffffff168173ffffffffffffffffffffffffffffffffffffffff1614151515610edd576040517f08c379a00000000000000000000000000000000000000000000000000000000081526004018080602001828103825260278152602001807f596f752063616e6e6f74207472616e7366657220746f20746865207a65726f2081526020017f616464726573730000000000000000000000000000000000000000000000000081525060400191505060405180910390fd5b8073ffffffffffffffffffffffffffffffffffffffff166000809054906101000a900473ffffffffffffffffffffffffffffffffffffffff1673ffffffffffffffffffffffffffffffffffffffff167f8be0079c531659141344cd1fd0a4f28419497f9722a3daafe3b4186f6b6457e060405160405180910390a3806000806101000a81548173ffffffffffffffffffffffffffffffffffffffff021916908373ffffffffffffffffffffffffffffffffffffffff16021790555050565b815481835581811115610fc257818360005260206000209182019101610fc19190611047565b5b505050565b828054600181600116156101000203166002900490600052602060002090601f016020900481019282601f1061100857805160ff1916838001178555611036565b82800160010185558215611036579182015b8281111561103557825182559160200191906001019061101a565b5b5090506110439190611073565b5090565b61107091905b8082111561106c57600081816110639190611098565b5060010161104d565b5090565b90565b61109591905b80821115611091576000816000905550600101611079565b5090565b90565b50805460018160011615610100020316600290046000825580601f106110be57506110dd565b601f0160209004906000526020600020908101906110dc9190611073565b5b505600a165627a7a72305820d080d1212d64a522258d4823a66851892b82fd0f299c027891cb034b70791b7f0029",
  "source": "pragma solidity ^0.4.24;\n\nimport \"./Ownable.sol\";\nimport \"./Users.sol\";\n\n/// @title Maintains application-wide role assignments \n/// @author Civic Ledger\ncontract Roles is Ownable {\n\n    Users _usersContract;\n    mapping(uint256 => string[]) _rolesNamesAssigned;\n\n    constructor(address userContractAddress) public {\n        _usersContract = Users(userContractAddress);\n    }\n\n    /// @dev Assigns a role to an address\n    /// @param roleName The name of the role, constrained to 32 bytes\n    /// @param assigneeUser The user id of the role assignee\n    function assignRole(string roleName, uint256 assigneeUser) public onlyOwner {\n        (uint256 userId, bool userExists) = _usersContract.userById(assigneeUser);\n        require(userId > 0 && userExists == true, \"Assignee user is not a registered user\");\n        _rolesNamesAssigned[assigneeUser].push(roleName);\n    }\n\n    /// @dev Revokes a role from an address\n    /// @param roleName The name of the role, constrained to 32 bytes\n    /// @param assigneeUser The user id of the role assignee to revoke\n    function revokeRole(string roleName, uint256 assigneeUser) public onlyOwner {\n        string[] memory userRoles = _rolesNamesAssigned[assigneeUser];\n        for (uint i = 0; i < userRoles.length; i++){\n            if(keccak256(bytes(userRoles[i])) == keccak256(bytes(roleName))) {\n                userRoles[i] = userRoles[_rolesNamesAssigned[assigneeUser].length-1];\n                _rolesNamesAssigned[assigneeUser].length--;\n            }\n        }\n    }\n\n    /// @dev Checks a user has a particular role\n    /// @param roleName The name of the role, constrained to 32 bytes\n    /// @param assigneeUser The user id of the role assignee\n    /// @return bool - true if they have the role, false if they do not have the role\n    function hasRoleById(string roleName, uint256 assigneeUser) public view returns(bool) {\n        for (uint i = 0; i < _rolesNamesAssigned[assigneeUser].length; i++) {\n            if(keccak256(bytes(_rolesNamesAssigned[assigneeUser][i])) == keccak256(bytes(roleName))) {\n                return true;\n            }\n        }\n        return false;\n    }\n\n    /// @dev Checks an address has a particular role\n    /// @param roleName The name of the role, constrained to 32 bytes\n    /// @param assigneeUserAddress The user address of the role assignee\n    /// @return bool - true if they have the role, false if they do not have the role\n    function hasRoleByAddress(string roleName, address assigneeUserAddress) public view returns(bool) {\n        (uint256 userId, bool userExists) = _usersContract.userByAddress(assigneeUserAddress);\n        if(userExists) {\n            return hasRoleById(roleName, userId);\n        }\n        return false;\n    }\n}",
  "sourcePath": "/Users/mattb/Code/waterledger/contracts/contracts/Roles.sol",
  "compiler": {
    "name": "solc",
    "version": "0.4.24+commit.e67f0147.Emscripten.clang"
  },
  "schemaVersion": "3.0.19",
  "updatedAt": "2019-11-19T19:29:26.687Z",
  "devdoc": {
    "author": "Civic Ledger",
    "methods": {
      "assignRole(string,uint256)": {
        "details": "Assigns a role to an address",
        "params": {
          "assigneeUser": "The user id of the role assignee",
          "roleName": "The name of the role, constrained to 32 bytes"
        }
      },
      "hasRoleByAddress(string,address)": {
        "details": "Checks an address has a particular role",
        "params": {
          "assigneeUserAddress": "The user address of the role assignee",
          "roleName": "The name of the role, constrained to 32 bytes"
        },
        "return": "bool - true if they have the role, false if they do not have the role"
      },
      "hasRoleById(string,uint256)": {
        "details": "Checks a user has a particular role",
        "params": {
          "assigneeUser": "The user id of the role assignee",
          "roleName": "The name of the role, constrained to 32 bytes"
        },
        "return": "bool - true if they have the role, false if they do not have the role"
      },
      "revokeRole(string,uint256)": {
        "details": "Revokes a role from an address",
        "params": {
          "assigneeUser": "The user id of the role assignee to revoke",
          "roleName": "The name of the role, constrained to 32 bytes"
        }
      }
    },
    "title": "Maintains application-wide role assignments "
  },
  "userdoc": {
    "methods": {}
  }
}