{
  "contractName": "Stats",
  "abi": [
    {
      "constant": true,
      "inputs": [],
      "name": "_parentContract",
      "outputs": [
        {
          "name": "",
          "type": "address"
        }
      ],
      "payable": false,
      "stateMutability": "view",
      "type": "function"
    },
    {
      "constant": true,
      "inputs": [],
      "name": "_lastTradePrice",
      "outputs": [
        {
          "name": "",
          "type": "uint256"
        }
      ],
      "payable": false,
      "stateMutability": "view",
      "type": "function"
    },
    {
      "constant": false,
      "inputs": [],
      "name": "renounceOwnership",
      "outputs": [],
      "payable": false,
      "stateMutability": "nonpayable",
      "type": "function"
    },
    {
      "constant": true,
      "inputs": [],
      "name": "_yesterdayAverageBid",
      "outputs": [
        {
          "name": "",
          "type": "uint256"
        }
      ],
      "payable": false,
      "stateMutability": "view",
      "type": "function"
    },
    {
      "constant": true,
      "inputs": [],
      "name": "owner",
      "outputs": [
        {
          "name": "",
          "type": "address"
        }
      ],
      "payable": false,
      "stateMutability": "view",
      "type": "function"
    },
    {
      "constant": true,
      "inputs": [],
      "name": "isOwner",
      "outputs": [
        {
          "name": "",
          "type": "bool"
        }
      ],
      "payable": false,
      "stateMutability": "view",
      "type": "function"
    },
    {
      "constant": true,
      "inputs": [],
      "name": "_yesterdayMinBid",
      "outputs": [
        {
          "name": "",
          "type": "uint256"
        }
      ],
      "payable": false,
      "stateMutability": "view",
      "type": "function"
    },
    {
      "constant": true,
      "inputs": [],
      "name": "_volumeAvailable",
      "outputs": [
        {
          "name": "",
          "type": "uint256"
        }
      ],
      "payable": false,
      "stateMutability": "view",
      "type": "function"
    },
    {
      "constant": true,
      "inputs": [],
      "name": "_inTransitAmount",
      "outputs": [
        {
          "name": "",
          "type": "uint256"
        }
      ],
      "payable": false,
      "stateMutability": "view",
      "type": "function"
    },
    {
      "constant": true,
      "inputs": [],
      "name": "_yesterdayMaxBid",
      "outputs": [
        {
          "name": "",
          "type": "uint256"
        }
      ],
      "payable": false,
      "stateMutability": "view",
      "type": "function"
    },
    {
      "constant": false,
      "inputs": [
        {
          "name": "newOwner",
          "type": "address"
        }
      ],
      "name": "transferOwnership",
      "outputs": [],
      "payable": false,
      "stateMutability": "nonpayable",
      "type": "function"
    },
    {
      "inputs": [
        {
          "name": "volume",
          "type": "uint256"
        },
        {
          "name": "inTransit",
          "type": "uint256"
        },
        {
          "name": "avg",
          "type": "uint256"
        },
        {
          "name": "min",
          "type": "uint256"
        },
        {
          "name": "max",
          "type": "uint256"
        }
      ],
      "payable": false,
      "stateMutability": "nonpayable",
      "type": "constructor"
    },
    {
      "anonymous": false,
      "inputs": [],
      "name": "StatsChanged",
      "type": "event"
    },
    {
      "anonymous": false,
      "inputs": [
        {
          "indexed": false,
          "name": "from",
          "type": "address"
        },
        {
          "indexed": false,
          "name": "parent",
          "type": "address"
        },
        {
          "indexed": false,
          "name": "found",
          "type": "bool"
        }
      ],
      "name": "WriterRequested",
      "type": "event"
    },
    {
      "anonymous": false,
      "inputs": [
        {
          "indexed": true,
          "name": "previousOwner",
          "type": "address"
        }
      ],
      "name": "OwnershipRenounced",
      "type": "event"
    },
    {
      "anonymous": false,
      "inputs": [
        {
          "indexed": true,
          "name": "previousOwner",
          "type": "address"
        },
        {
          "indexed": true,
          "name": "newOwner",
          "type": "address"
        }
      ],
      "name": "OwnershipTransferred",
      "type": "event"
    },
    {
      "constant": false,
      "inputs": [
        {
          "name": "lastTradePrice",
          "type": "uint256"
        }
      ],
      "name": "setLastTradePrice",
      "outputs": [],
      "payable": false,
      "stateMutability": "nonpayable",
      "type": "function"
    },
    {
      "constant": false,
      "inputs": [
        {
          "name": "volume",
          "type": "uint256"
        }
      ],
      "name": "setVolumeAvailable",
      "outputs": [],
      "payable": false,
      "stateMutability": "nonpayable",
      "type": "function"
    },
    {
      "constant": false,
      "inputs": [
        {
          "name": "volume",
          "type": "uint256"
        }
      ],
      "name": "updateVolumeAvailable",
      "outputs": [],
      "payable": false,
      "stateMutability": "nonpayable",
      "type": "function"
    },
    {
      "constant": false,
      "inputs": [
        {
          "name": "volume",
          "type": "uint256"
        }
      ],
      "name": "reduceVolumeAvailable",
      "outputs": [],
      "payable": false,
      "stateMutability": "nonpayable",
      "type": "function"
    },
    {
      "constant": false,
      "inputs": [
        {
          "name": "inTransit",
          "type": "uint256"
        }
      ],
      "name": "setInTransitAmount",
      "outputs": [],
      "payable": false,
      "stateMutability": "nonpayable",
      "type": "function"
    },
    {
      "constant": false,
      "inputs": [
        {
          "name": "volume",
          "type": "uint256"
        },
        {
          "name": "inTransit",
          "type": "uint256"
        },
        {
          "name": "avg",
          "type": "uint256"
        },
        {
          "name": "min",
          "type": "uint256"
        },
        {
          "name": "max",
          "type": "uint256"
        }
      ],
      "name": "setStats",
      "outputs": [],
      "payable": false,
      "stateMutability": "nonpayable",
      "type": "function"
    },
    {
      "constant": true,
      "inputs": [],
      "name": "getAllStats",
      "outputs": [
        {
          "name": "volume",
          "type": "uint256"
        },
        {
          "name": "inTransit",
          "type": "uint256"
        },
        {
          "name": "avg",
          "type": "uint256"
        },
        {
          "name": "min",
          "type": "uint256"
        },
        {
          "name": "max",
          "type": "uint256"
        }
      ],
      "payable": false,
      "stateMutability": "view",
      "type": "function"
    },
    {
      "constant": false,
      "inputs": [
        {
          "name": "who",
          "type": "address"
        }
      ],
      "name": "addWriter",
      "outputs": [],
      "payable": false,
      "stateMutability": "nonpayable",
      "type": "function"
    },
    {
      "constant": false,
      "inputs": [
        {
          "name": "who",
          "type": "address"
        }
      ],
      "name": "denyWriter",
      "outputs": [],
      "payable": false,
      "stateMutability": "nonpayable",
      "type": "function"
    }
  ],
  "bytecode": "0x6080604052600060065534801561001557600080fd5b5060405160a08061185d8339810180604052810190808051906020019092919080519060200190929190805190602001909291908051906020019092919080519060200190929190505050336000806101000a81548173ffffffffffffffffffffffffffffffffffffffff021916908373ffffffffffffffffffffffffffffffffffffffff1602179055506001600860003373ffffffffffffffffffffffffffffffffffffffff1673ffffffffffffffffffffffffffffffffffffffff16815260200190815260200160002060006101000a81548160ff02191690831515021790555033600760006101000a81548173ffffffffffffffffffffffffffffffffffffffff021916908373ffffffffffffffffffffffffffffffffffffffff160217905550846001819055508360028190555082600381905550816004819055508060058190555050505050506116ed806101706000396000f300608060405260043610610112576000357c0100000000000000000000000000000000000000000000000000000000900463ffffffff168063027b753f1461011757806316b764b11461016e5780631f556bea1461019957806359ebfd51146101ee57806361a8da0514610231578063715018a61461025e5780638b46a38d146102755780638da5cb5b146102a05780638f32d59b146102f757806396455e1314610326578063aa0dc65c14610353578063b593ff8514610380578063c01d3b92146103c7578063cb86d0a9146103f2578063cc77f71a1461041f578063da2824a81461044a578063db325d461461048d578063dc1f2949146104b8578063ea340d5c146104e5578063f2fde38b14610510575b600080fd5b34801561012357600080fd5b5061012c610553565b604051808273ffffffffffffffffffffffffffffffffffffffff1673ffffffffffffffffffffffffffffffffffffffff16815260200191505060405180910390f35b34801561017a57600080fd5b50610183610579565b6040518082815260200191505060405180910390f35b3480156101a557600080fd5b506101ec600480360381019080803590602001909291908035906020019092919080359060200190929190803590602001909291908035906020019092919050505061057f565b005b3480156101fa57600080fd5b5061022f600480360381019080803573ffffffffffffffffffffffffffffffffffffffff1690602001909291905050506106de565b005b34801561023d57600080fd5b5061025c600480360381019080803590602001909291905050506107db565b005b34801561026a57600080fd5b506102736109d2565b005b34801561028157600080fd5b5061028a610b1b565b6040518082815260200191505060405180910390f35b3480156102ac57600080fd5b506102b5610b21565b604051808273ffffffffffffffffffffffffffffffffffffffff1673ffffffffffffffffffffffffffffffffffffffff16815260200191505060405180910390f35b34801561030357600080fd5b5061030c610b4a565b604051808215151515815260200191505060405180910390f35b34801561033257600080fd5b5061035160048036038101908080359060200190929190505050610ba1565b005b34801561035f57600080fd5b5061037e60048036038101908080359060200190929190505050610d98565b005b34801561038c57600080fd5b50610395610fc8565b604051808681526020018581526020018481526020018381526020018281526020019550505050505060405180910390f35b3480156103d357600080fd5b506103dc610ff0565b6040518082815260200191505060405180910390f35b3480156103fe57600080fd5b5061041d60048036038101908080359060200190929190505050610ff6565b005b34801561042b57600080fd5b506104346111d9565b6040518082815260200191505060405180910390f35b34801561045657600080fd5b5061048b600480360381019080803573ffffffffffffffffffffffffffffffffffffffff1690602001909291905050506111df565b005b34801561049957600080fd5b506104a26112dc565b6040518082815260200191505060405180910390f35b3480156104c457600080fd5b506104e3600480360381019080803590602001909291905050506112e2565b005b3480156104f157600080fd5b506104fa61144d565b6040518082815260200191505060405180910390f35b34801561051c57600080fd5b50610551600480360381019080803573ffffffffffffffffffffffffffffffffffffffff169060200190929190505050611453565b005b600760009054906101000a900473ffffffffffffffffffffffffffffffffffffffff1681565b60065481565b6040805190810160405280601d81526020017f4f6e6c7920777269746572732063616e206368616e676520737461747300000081525060011515600860003373ffffffffffffffffffffffffffffffffffffffff1673ffffffffffffffffffffffffffffffffffffffff16815260200190815260200160002060009054906101000a900460ff16151514819015156106b2576040517f08c379a00000000000000000000000000000000000000000000000000000000081526004018080602001828103825283818151815260200191508051906020019080838360005b8381101561067757808201518184015260208101905061065c565b50505050905090810190601f1680156106a45780820380516001836020036101000a031916815260200191505b509250505060405180910390fd5b508560018190555084600281905550836003819055508260048190555081600581905550505050505050565b6106e6610b4a565b1515610780576040517f08c379a00000000000000000000000000000000000000000000000000000000081526004018080602001828103825260268152602001807f4f6e6c7920746865206f776e65722063616e20706572666f726d20746869732081526020017f616374696f6e000000000000000000000000000000000000000000000000000081525060400191505060405180910390fd5b6000600860008373ffffffffffffffffffffffffffffffffffffffff1673ffffffffffffffffffffffffffffffffffffffff16815260200190815260200160002060006101000a81548160ff02191690831515021790555050565b6040805190810160405280601b81526020017f4f6e6c7920777269746572732063616e2073657420766f6c756d65000000000081525060011515600860003373ffffffffffffffffffffffffffffffffffffffff1673ffffffffffffffffffffffffffffffffffffffff16815260200190815260200160002060009054906101000a900460ff161515148190151561090e576040517f08c379a00000000000000000000000000000000000000000000000000000000081526004018080602001828103825283818151815260200191508051906020019080838360005b838110156108d35780820151818401526020810190506108b8565b50505050905090810190601f1680156109005780820380516001836020036101000a031916815260200191505b509250505060405180910390fd5b50600082111515610987576040517f08c379a00000000000000000000000000000000000000000000000000000000081526004018080602001828103825260208152602001807f566f6c756d65206d7573742062652067726561746572207468616e207a65726f81525060200191505060405180910390fd5b61099c8260015461150190919063ffffffff16565b6001819055507f850fbf45342febf8f5f9c73fafd2f5f25889cc67a0b40da065d971a77cbbdbc760405160405180910390a15050565b6109da610b4a565b1515610a74576040517f08c379a00000000000000000000000000000000000000000000000000000000081526004018080602001828103825260268152602001807f4f6e6c7920746865206f776e65722063616e20706572666f726d20746869732081526020017f616374696f6e000000000000000000000000000000000000000000000000000081525060400191505060405180910390fd5b6000809054906101000a900473ffffffffffffffffffffffffffffffffffffffff1673ffffffffffffffffffffffffffffffffffffffff167ff8df31144d9c2f0f6b59d69b8b98abd5459d07f2742c4df920b25aae33c6482060405160405180910390a260008060006101000a81548173ffffffffffffffffffffffffffffffffffffffff021916908373ffffffffffffffffffffffffffffffffffffffff160217905550565b60035481565b60008060009054906101000a900473ffffffffffffffffffffffffffffffffffffffff16905090565b60008060009054906101000a900473ffffffffffffffffffffffffffffffffffffffff1673ffffffffffffffffffffffffffffffffffffffff163373ffffffffffffffffffffffffffffffffffffffff1614905090565b6040805190810160405280601b81526020017f4f6e6c7920777269746572732063616e2073657420766f6c756d65000000000081525060011515600860003373ffffffffffffffffffffffffffffffffffffffff1673ffffffffffffffffffffffffffffffffffffffff16815260200190815260200160002060009054906101000a900460ff1615151481901515610cd4576040517f08c379a00000000000000000000000000000000000000000000000000000000081526004018080602001828103825283818151815260200191508051906020019080838360005b83811015610c99578082015181840152602081019050610c7e565b50505050905090810190601f168015610cc65780820380516001836020036101000a031916815260200191505b509250505060405180910390fd5b50600082111515610d4d576040517f08c379a00000000000000000000000000000000000000000000000000000000081526004018080602001828103825260208152602001807f566f6c756d65206d7573742062652067726561746572207468616e207a65726f81525060200191505060405180910390fd5b610d628260015461151a90919063ffffffff16565b6001819055507f850fbf45342febf8f5f9c73fafd2f5f25889cc67a0b40da065d971a77cbbdbc760405160405180910390a15050565b606060405190810160405280602a81526020017f4f6e6c7920777269746572732063616e2073657420746865206c61737420747281526020017f616465642070726963650000000000000000000000000000000000000000000081525060011515600860003373ffffffffffffffffffffffffffffffffffffffff1673ffffffffffffffffffffffffffffffffffffffff16815260200190815260200160002060009054906101000a900460ff1615151481901515610ef2576040517f08c379a00000000000000000000000000000000000000000000000000000000081526004018080602001828103825283818151815260200191508051906020019080838360005b83811015610eb7578082015181840152602081019050610e9c565b50505050905090810190601f168015610ee45780820380516001836020036101000a031916815260200191505b509250505060405180910390fd5b50600082111515610f91576040517f08c379a00000000000000000000000000000000000000000000000000000000081526004018080602001828103825260258152602001807f5472616465207072696365206d7573742062652067726561746572207468616e81526020017f207a65726f00000000000000000000000000000000000000000000000000000081525060400191505060405180910390fd5b816006819055507f850fbf45342febf8f5f9c73fafd2f5f25889cc67a0b40da065d971a77cbbdbc760405160405180910390a15050565b6000806000806000600154600254600354600454600554945094509450945094509091929394565b60045481565b6040805190810160405280601b81526020017f4f6e6c7920777269746572732063616e2073657420766f6c756d65000000000081525060011515600860003373ffffffffffffffffffffffffffffffffffffffff1673ffffffffffffffffffffffffffffffffffffffff16815260200190815260200160002060009054906101000a900460ff1615151481901515611129576040517f08c379a00000000000000000000000000000000000000000000000000000000081526004018080602001828103825283818151815260200191508051906020019080838360005b838110156110ee5780820151818401526020810190506110d3565b50505050905090810190601f16801561111b5780820380516001836020036101000a031916815260200191505b509250505060405180910390fd5b506000821115156111a2576040517f08c379a00000000000000000000000000000000000000000000000000000000081526004018080602001828103825260208152602001807f566f6c756d65206d7573742062652067726561746572207468616e207a65726f81525060200191505060405180910390fd5b816001819055507f850fbf45342febf8f5f9c73fafd2f5f25889cc67a0b40da065d971a77cbbdbc760405160405180910390a15050565b60015481565b6111e7610b4a565b1515611281576040517f08c379a00000000000000000000000000000000000000000000000000000000081526004018080602001828103825260268152602001807f4f6e6c7920746865206f776e65722063616e20706572666f726d20746869732081526020017f616374696f6e000000000000000000000000000000000000000000000000000081525060400191505060405180910390fd5b6001600860008373ffffffffffffffffffffffffffffffffffffffff1673ffffffffffffffffffffffffffffffffffffffff16815260200190815260200160002060006101000a81548160ff02191690831515021790555050565b60025481565b6040805190810160405280601d81526020017f4f6e6c7920777269746572732063616e206368616e676520737461747300000081525060011515600860003373ffffffffffffffffffffffffffffffffffffffff1673ffffffffffffffffffffffffffffffffffffffff16815260200190815260200160002060009054906101000a900460ff1615151481901515611415576040517f08c379a00000000000000000000000000000000000000000000000000000000081526004018080602001828103825283818151815260200191508051906020019080838360005b838110156113da5780820151818401526020810190506113bf565b50505050905090810190601f1680156114075780820380516001836020036101000a031916815260200191505b509250505060405180910390fd5b50816002819055507f850fbf45342febf8f5f9c73fafd2f5f25889cc67a0b40da065d971a77cbbdbc760405160405180910390a15050565b60055481565b61145b610b4a565b15156114f5576040517f08c379a00000000000000000000000000000000000000000000000000000000081526004018080602001828103825260268152602001807f4f6e6c7920746865206f776e65722063616e20706572666f726d20746869732081526020017f616374696f6e000000000000000000000000000000000000000000000000000081525060400191505060405180910390fd5b6114fe81611538565b50565b600082821115151561150f57fe5b818303905092915050565b600080828401905083811015151561152e57fe5b8091505092915050565b600073ffffffffffffffffffffffffffffffffffffffff168173ffffffffffffffffffffffffffffffffffffffff1614151515611603576040517f08c379a00000000000000000000000000000000000000000000000000000000081526004018080602001828103825260278152602001807f596f752063616e6e6f74207472616e7366657220746f20746865207a65726f2081526020017f616464726573730000000000000000000000000000000000000000000000000081525060400191505060405180910390fd5b8073ffffffffffffffffffffffffffffffffffffffff166000809054906101000a900473ffffffffffffffffffffffffffffffffffffffff1673ffffffffffffffffffffffffffffffffffffffff167f8be0079c531659141344cd1fd0a4f28419497f9722a3daafe3b4186f6b6457e060405160405180910390a3806000806101000a81548173ffffffffffffffffffffffffffffffffffffffff021916908373ffffffffffffffffffffffffffffffffffffffff160217905550505600a165627a7a7230582070ffa6ff0d5749eb04f77674750b984b2c93d0d999516a09c09fb28419fd86300029",
  "source": "pragma solidity ^0.4.24;\n\nimport \"./Ownable.sol\";\nimport \"./SafeMath.sol\";\n\ncontract Stats is Ownable {\n\n    using SafeMath for uint;\n\n    uint256 public _volumeAvailable;\n    uint256 public _inTransitAmount;\n    uint256 public _yesterdayAverageBid;\n    uint256 public _yesterdayMinBid;\n    uint256 public _yesterdayMaxBid;\n    uint256 public _lastTradePrice = 0;\n\n    address public _parentContract;\n\n    mapping(address => bool) private _allowedWriters;\n\n    constructor(uint256 volume, uint256 inTransit, uint256 avg, uint256 min, uint256 max) public {\n        _allowedWriters[msg.sender] = true;\n        _parentContract = msg.sender;\n        _volumeAvailable = volume;\n        _inTransitAmount = inTransit;\n        _yesterdayAverageBid = avg;\n        _yesterdayMinBid = min;\n        _yesterdayMaxBid = max;\n    }\n\n    function setLastTradePrice(uint256 lastTradePrice) public onlyWriters(\"Only writers can set the last traded price\") {\n        require(lastTradePrice > 0, \"Trade price must be greater than zero\");\n        _lastTradePrice = lastTradePrice;\n        emit StatsChanged();\n    }\n\n    function setVolumeAvailable(uint volume) public onlyWriters(\"Only writers can set volume\") {\n        require(volume > 0, \"Volume must be greater than zero\");\n        _volumeAvailable = volume;\n        emit StatsChanged();\n    }\n\n    function updateVolumeAvailable(uint volume) public onlyWriters(\"Only writers can set volume\") {\n        require(volume > 0, \"Volume must be greater than zero\");\n        _volumeAvailable = _volumeAvailable.add(volume);\n        emit StatsChanged();\n    }\n\n    function reduceVolumeAvailable(uint volume) public onlyWriters(\"Only writers can set volume\") {\n        require(volume > 0, \"Volume must be greater than zero\");\n        _volumeAvailable = _volumeAvailable.sub(volume);\n        emit StatsChanged();\n    }\n\n    function setInTransitAmount(uint inTransit) public onlyWriters(\"Only writers can change stats\") {\n        _inTransitAmount = inTransit;\n        emit StatsChanged();\n    }\n\n    function setStats(\n        uint256 volume,\n        uint256 inTransit,\n        uint256 avg,\n        uint256 min,\n        uint256 max\n    ) public onlyWriters(\"Only writers can change stats\") {\n        _volumeAvailable = volume;\n        _inTransitAmount = inTransit;\n        _yesterdayAverageBid = avg;\n        _yesterdayMinBid = min;\n        _yesterdayMaxBid = max;\n    }\n\n    function getAllStats() public view returns (\n        uint256 volume,\n        uint256 inTransit,\n        uint256 avg,\n        uint256 min,\n        uint256 max\n    ) {\n        return (_volumeAvailable, _inTransitAmount, _yesterdayAverageBid, _yesterdayMinBid, _yesterdayMaxBid);\n    }\n\n    function addWriter(address who) public onlyOwner {\n        _allowedWriters[who] = true;\n    }\n\n    function denyWriter(address who) public onlyOwner {\n        _allowedWriters[who] = false;\n    }\n\n    event StatsChanged();\n    event WriterRequested(address from, address parent, bool found);\n\n    modifier onlyWriters(string error) {\n        require(_allowedWriters[msg.sender] == true, error);\n        _;\n    }\n}",
  "sourcePath": "/Users/mattb/Code/waterledger/contracts/contracts/Stats.sol",
  "compiler": {
    "name": "solc",
    "version": "0.4.24+commit.e67f0147.Emscripten.clang"
  },
  "schemaVersion": "3.0.19",
  "updatedAt": "2019-11-19T19:29:26.689Z",
  "devdoc": {
    "methods": {}
  },
  "userdoc": {
    "methods": {}
  }
}