{
  "contractName": "Users",
  "abi": [
    {
      "constant": false,
      "inputs": [],
      "name": "renounceOwnership",
      "outputs": [],
      "payable": false,
      "stateMutability": "nonpayable",
      "type": "function"
    },
    {
      "constant": true,
      "inputs": [],
      "name": "owner",
      "outputs": [
        {
          "name": "",
          "type": "address"
        }
      ],
      "payable": false,
      "stateMutability": "view",
      "type": "function"
    },
    {
      "constant": true,
      "inputs": [],
      "name": "isOwner",
      "outputs": [
        {
          "name": "",
          "type": "bool"
        }
      ],
      "payable": false,
      "stateMutability": "view",
      "type": "function"
    },
    {
      "constant": false,
      "inputs": [
        {
          "name": "newOwner",
          "type": "address"
        }
      ],
      "name": "transferOwnership",
      "outputs": [],
      "payable": false,
      "stateMutability": "nonpayable",
      "type": "function"
    },
    {
      "inputs": [],
      "payable": false,
      "stateMutability": "nonpayable",
      "type": "constructor"
    },
    {
      "anonymous": false,
      "inputs": [
        {
          "indexed": true,
          "name": "previousOwner",
          "type": "address"
        }
      ],
      "name": "OwnershipRenounced",
      "type": "event"
    },
    {
      "anonymous": false,
      "inputs": [
        {
          "indexed": true,
          "name": "previousOwner",
          "type": "address"
        },
        {
          "indexed": true,
          "name": "newOwner",
          "type": "address"
        }
      ],
      "name": "OwnershipTransferred",
      "type": "event"
    },
    {
      "constant": true,
      "inputs": [
        {
          "name": "userAddress",
          "type": "address"
        }
      ],
      "name": "isUser",
      "outputs": [
        {
          "name": "",
          "type": "bool"
        }
      ],
      "payable": false,
      "stateMutability": "view",
      "type": "function"
    },
    {
      "constant": true,
      "inputs": [
        {
          "name": "userId",
          "type": "uint256"
        }
      ],
      "name": "userById",
      "outputs": [
        {
          "name": "",
          "type": "uint256"
        },
        {
          "name": "",
          "type": "bool"
        }
      ],
      "payable": false,
      "stateMutability": "view",
      "type": "function"
    },
    {
      "constant": true,
      "inputs": [],
      "name": "userCount",
      "outputs": [
        {
          "name": "",
          "type": "uint256"
        }
      ],
      "payable": false,
      "stateMutability": "view",
      "type": "function"
    },
    {
      "constant": true,
      "inputs": [
        {
          "name": "userAddress",
          "type": "address"
        }
      ],
      "name": "userByAddress",
      "outputs": [
        {
          "name": "",
          "type": "uint256"
        },
        {
          "name": "",
          "type": "bool"
        }
      ],
      "payable": false,
      "stateMutability": "view",
      "type": "function"
    },
    {
      "constant": false,
      "inputs": [
        {
          "name": "userAddress",
          "type": "address"
        }
      ],
      "name": "addUser",
      "outputs": [],
      "payable": false,
      "stateMutability": "nonpayable",
      "type": "function"
    }
  ],
  "bytecode": "0x608060405234801561001057600080fd5b50336000806101000a81548173ffffffffffffffffffffffffffffffffffffffff021916908373ffffffffffffffffffffffffffffffffffffffff160217905550600160408051908101604052806000815260200160001515815250908060018154018082558091505090600182039060005260206000209060020201600090919290919091506000820151816000015560208201518160010160006101000a81548160ff021916908315150217905550505050610a6a806100d36000396000f300608060405260043610610099576000357c0100000000000000000000000000000000000000000000000000000000900463ffffffff16806307973ccf1461009e5780634209fff1146100c9578063421b2d8b14610124578063715018a6146101675780638da5cb5b1461017e5780638f32d59b146101d5578063989e5ea914610204578063ac7ed19414610266578063f2fde38b146102b2575b600080fd5b3480156100aa57600080fd5b506100b36102f5565b6040518082815260200191505060405180910390f35b3480156100d557600080fd5b5061010a600480360381019080803573ffffffffffffffffffffffffffffffffffffffff169060200190929190505050610302565b604051808215151515815260200191505060405180910390f35b34801561013057600080fd5b50610165600480360381019080803573ffffffffffffffffffffffffffffffffffffffff16906020019092919050505061037d565b005b34801561017357600080fd5b5061017c6104e3565b005b34801561018a57600080fd5b5061019361062c565b604051808273ffffffffffffffffffffffffffffffffffffffff1673ffffffffffffffffffffffffffffffffffffffff16815260200191505060405180910390f35b3480156101e157600080fd5b506101ea610655565b604051808215151515815260200191505060405180910390f35b34801561021057600080fd5b50610245600480360381019080803573ffffffffffffffffffffffffffffffffffffffff1690602001909291905050506106ac565b60405180838152602001821515151581526020019250505060405180910390f35b34801561027257600080fd5b506102916004803603810190808035906020019092919050505061074c565b60405180838152602001821515151581526020019250505060405180910390f35b3480156102be57600080fd5b506102f3600480360381019080803573ffffffffffffffffffffffffffffffffffffffff1690602001909291905050506107eb565b005b6000600180549050905090565b600080600260008473ffffffffffffffffffffffffffffffffffffffff1673ffffffffffffffffffffffffffffffffffffffff16815260200190815260200160002054905060018181548110151561035657fe5b906000526020600020906002020160010160009054906101000a900460ff16915050919050565b6000610387610655565b1515610421576040517f08c379a00000000000000000000000000000000000000000000000000000000081526004018080602001828103825260268152602001807f4f6e6c7920746865206f776e65722063616e20706572666f726d20746869732081526020017f616374696f6e000000000000000000000000000000000000000000000000000081525060400191505060405180910390fd5b60018054905090506001604080519081016040528083815260200160011515815250908060018154018082558091505090600182039060005260206000209060020201600090919290919091506000820151816000015560208201518160010160006101000a81548160ff02191690831515021790555050505080600260008473ffffffffffffffffffffffffffffffffffffffff1673ffffffffffffffffffffffffffffffffffffffff168152602001908152602001600020819055505050565b6104eb610655565b1515610585576040517f08c379a00000000000000000000000000000000000000000000000000000000081526004018080602001828103825260268152602001807f4f6e6c7920746865206f776e65722063616e20706572666f726d20746869732081526020017f616374696f6e000000000000000000000000000000000000000000000000000081525060400191505060405180910390fd5b6000809054906101000a900473ffffffffffffffffffffffffffffffffffffffff1673ffffffffffffffffffffffffffffffffffffffff167ff8df31144d9c2f0f6b59d69b8b98abd5459d07f2742c4df920b25aae33c6482060405160405180910390a260008060006101000a81548173ffffffffffffffffffffffffffffffffffffffff021916908373ffffffffffffffffffffffffffffffffffffffff160217905550565b60008060009054906101000a900473ffffffffffffffffffffffffffffffffffffffff16905090565b60008060009054906101000a900473ffffffffffffffffffffffffffffffffffffffff1673ffffffffffffffffffffffffffffffffffffffff163373ffffffffffffffffffffffffffffffffffffffff1614905090565b6000806000600260008573ffffffffffffffffffffffffffffffffffffffff1673ffffffffffffffffffffffffffffffffffffffff16815260200190815260200160002054905060018181548110151561070257fe5b90600052602060002090600202016000015460018281548110151561072357fe5b906000526020600020906002020160010160009054906101000a900460ff169250925050915091565b600080610757610a22565b6001805490508410156107865760018481548110151561077357fe5b90600052602060002090600202016107a5565b6001600081548110151561079657fe5b90600052602060002090600202015b604080519081016040529081600082015481526020016001820160009054906101000a900460ff1615151515815250509050806000015181602001519250925050915091565b6107f3610655565b151561088d576040517f08c379a00000000000000000000000000000000000000000000000000000000081526004018080602001828103825260268152602001807f4f6e6c7920746865206f776e65722063616e20706572666f726d20746869732081526020017f616374696f6e000000000000000000000000000000000000000000000000000081525060400191505060405180910390fd5b61089681610899565b50565b600073ffffffffffffffffffffffffffffffffffffffff168173ffffffffffffffffffffffffffffffffffffffff1614151515610964576040517f08c379a00000000000000000000000000000000000000000000000000000000081526004018080602001828103825260278152602001807f596f752063616e6e6f74207472616e7366657220746f20746865207a65726f2081526020017f616464726573730000000000000000000000000000000000000000000000000081525060400191505060405180910390fd5b8073ffffffffffffffffffffffffffffffffffffffff166000809054906101000a900473ffffffffffffffffffffffffffffffffffffffff1673ffffffffffffffffffffffffffffffffffffffff167f8be0079c531659141344cd1fd0a4f28419497f9722a3daafe3b4186f6b6457e060405160405180910390a3806000806101000a81548173ffffffffffffffffffffffffffffffffffffffff021916908373ffffffffffffffffffffffffffffffffffffffff16021790555050565b60408051908101604052806000815260200160001515815250905600a165627a7a72305820e83907c60d916baf54e71f96bbdcb5a368004e7efbccc04e0df40d75d1e18e700029",
  "source": "pragma solidity ^0.4.24;\n\nimport \"./Ownable.sol\";\n\n/// @title Maintains application-wide list of users\n/// @author Civic Ledger\ncontract Users is Ownable {\n\n    struct User {\n        uint256 userId;\n        bool userExists;\n    }\n\n    User[] private _users;\n    mapping(address => uint256) private _userAddresses;\n\n    constructor() public {\n        _users.push(User(0, false));\n    }\n\n    /// @dev Tests whether the address is a registered user address\n    /// @param userAddress The address to test whether it is a user address\n    /// @return True if address is a registered user, false otherwise\n    function isUser(address userAddress) public view returns(bool) {\n        uint256 userId = _userAddresses[userAddress];\n        return _users[userId].userExists;\n    }\n\n    /// @dev Retrieves the user details given its id\n    /// @param userId Id of the user to retrieves its details\n    /// @return User details\n    function userById(uint256 userId) public view returns(uint256, bool) {\n        User memory user = (userId >= _users.length) ? _users[0] : _users[userId];\n        return (\n            user.userId,\n            user.userExists\n        );\n    }\n\n    /// @dev Returns the number of users for enumeration\n    /// @return Count of users\n    function userCount() public view returns(uint256) {\n        return _users.length;\n    }\n\n    /// @dev Retrieves the user details given its id\n    /// @param userAddress Address of the user to retrieves its details\n    /// @return User details\n    function userByAddress(address userAddress) public view returns(uint256, bool) {\n        uint256 userId = _userAddresses[userAddress];\n        return (\n            _users[userId].userId,\n            _users[userId].userExists\n        );\n    }\n\n    /// @dev Adds a new registered user\n    /// @param userAddress The address of the user\n    function addUser(address userAddress) public onlyOwner {\n        uint256 userId = _users.length;\n        _users.push(User(userId, true));\n        _userAddresses[userAddress] = userId;\n    }\n\n}",
  "sourcePath": "/Users/mattb/Code/waterledger/contracts/contracts/Users.sol",
  "compiler": {
    "name": "solc",
    "version": "0.4.24+commit.e67f0147.Emscripten.clang"
  },
  "schemaVersion": "3.0.19",
  "updatedAt": "2019-11-19T19:29:26.691Z",
  "devdoc": {
    "author": "Civic Ledger",
    "methods": {
      "addUser(address)": {
        "details": "Adds a new registered user",
        "params": {
          "userAddress": "The address of the user"
        }
      },
      "isUser(address)": {
        "details": "Tests whether the address is a registered user address",
        "params": {
          "userAddress": "The address to test whether it is a user address"
        },
        "return": "True if address is a registered user, false otherwise"
      },
      "userByAddress(address)": {
        "details": "Retrieves the user details given its id",
        "params": {
          "userAddress": "Address of the user to retrieves its details"
        },
        "return": "User details"
      },
      "userById(uint256)": {
        "details": "Retrieves the user details given its id",
        "params": {
          "userId": "Id of the user to retrieves its details"
        },
        "return": "User details"
      },
      "userCount()": {
        "details": "Returns the number of users for enumeration",
        "return": "Count of users"
      }
    },
    "title": "Maintains application-wide list of users"
  },
  "userdoc": {
    "methods": {}
  }
}