{
  "contractName": "VolumeRestriction",
  "abi": [
    {
      "constant": true,
      "inputs": [
        {
          "name": "",
          "type": "bytes32"
        }
      ],
      "name": "_maxVolumes",
      "outputs": [
        {
          "name": "volume",
          "type": "uint256"
        },
        {
          "name": "periodType",
          "type": "uint8"
        },
        {
          "name": "yearStartMonth",
          "type": "uint8"
        },
        {
          "name": "yearEndMonth",
          "type": "uint8"
        }
      ],
      "payable": false,
      "stateMutability": "view",
      "type": "function"
    },
    {
      "constant": true,
      "inputs": [
        {
          "name": "",
          "type": "bytes32"
        }
      ],
      "name": "_currentVolumes",
      "outputs": [
        {
          "name": "",
          "type": "uint256"
        }
      ],
      "payable": false,
      "stateMutability": "view",
      "type": "function"
    },
    {
      "constant": false,
      "inputs": [
        {
          "name": "keyHash",
          "type": "bytes32"
        },
        {
          "name": "maxVolume",
          "type": "uint256"
        },
        {
          "name": "periodType",
          "type": "uint8"
        }
      ],
      "name": "addMaxVolume",
      "outputs": [],
      "payable": false,
      "stateMutability": "nonpayable",
      "type": "function"
    },
    {
      "constant": false,
      "inputs": [
        {
          "name": "keyHash",
          "type": "bytes32"
        },
        {
          "name": "maxVolume",
          "type": "uint256"
        },
        {
          "name": "periodType",
          "type": "uint8"
        },
        {
          "name": "yearStartMonth",
          "type": "uint8"
        },
        {
          "name": "yearEndMonth",
          "type": "uint8"
        }
      ],
      "name": "addMaxVolumeWithCustomYear",
      "outputs": [],
      "payable": false,
      "stateMutability": "nonpayable",
      "type": "function"
    },
    {
      "constant": true,
      "inputs": [
        {
          "name": "keyHash",
          "type": "bytes32"
        }
      ],
      "name": "maxVolumeByKey",
      "outputs": [
        {
          "name": "",
          "type": "bytes32"
        },
        {
          "name": "",
          "type": "uint256"
        },
        {
          "name": "",
          "type": "uint8"
        },
        {
          "name": "",
          "type": "uint8"
        },
        {
          "name": "",
          "type": "uint8"
        }
      ],
      "payable": false,
      "stateMutability": "view",
      "type": "function"
    },
    {
      "constant": false,
      "inputs": [
        {
          "name": "keyHash",
          "type": "bytes32"
        },
        {
          "name": "volume",
          "type": "uint256"
        },
        {
          "name": "onDate",
          "type": "uint256"
        }
      ],
      "name": "incrementCurrentVolume",
      "outputs": [],
      "payable": false,
      "stateMutability": "nonpayable",
      "type": "function"
    },
    {
      "constant": true,
      "inputs": [
        {
          "name": "keyHash",
          "type": "bytes32"
        },
        {
          "name": "onDate",
          "type": "uint256"
        }
      ],
      "name": "currentVolumeByKey",
      "outputs": [
        {
          "name": "",
          "type": "uint256"
        }
      ],
      "payable": false,
      "stateMutability": "view",
      "type": "function"
    },
    {
      "constant": true,
      "inputs": [
        {
          "name": "keyHash",
          "type": "bytes32"
        },
        {
          "name": "volume",
          "type": "uint256"
        },
        {
          "name": "onDate",
          "type": "uint256"
        }
      ],
      "name": "canTrade",
      "outputs": [
        {
          "name": "",
          "type": "bool"
        }
      ],
      "payable": false,
      "stateMutability": "view",
      "type": "function"
    }
  ],
  "bytecode": "0x6080604052336000806101000a81548173ffffffffffffffffffffffffffffffffffffffff021916908373ffffffffffffffffffffffffffffffffffffffff160217905550610d71806100536000396000f30060806040526004361061008e576000357c0100000000000000000000000000000000000000000000000000000000900463ffffffff1680630eb0a71214610093578063113815d91461010757806348f932541461018a5780634ddfa816146101d95780634f6acda01461023b578063b383055414610298578063b3bd108d146102dd578063fefe5b2614610325575b600080fd5b34801561009f57600080fd5b506100c2600480360381019080803560001916906020019092919050505061036a565b604051808581526020018460028111156100d857fe5b60ff1681526020018360ff1660ff1681526020018260ff1660ff16815260200194505050505060405180910390f35b34801561011357600080fd5b5061013660048036038101908080356000191690602001909291905050506103c1565b60405180866000191660001916815260200185815260200184600281111561015a57fe5b60ff1681526020018360ff1660ff1681526020018260ff1660ff1681526020019550505050505060405180910390f35b34801561019657600080fd5b506101c3600480360381019080803560001916906020019092919080359060200190929190505050610480565b6040518082815260200191505060405180910390f35b3480156101e557600080fd5b50610239600480360381019080803560001916906020019092919080359060200190929190803560ff169060200190929190803560ff169060200190929190803560ff1690602001909291905050506104af565b005b34801561024757600080fd5b5061027e60048036038101908080356000191690602001909291908035906020019092919080359060200190929190505050610666565b604051808215151515815260200191505060405180910390f35b3480156102a457600080fd5b506102c760048036038101908080356000191690602001909291905050506106c9565b6040518082815260200191505060405180910390f35b3480156102e957600080fd5b50610323600480360381019080803560001916906020019092919080359060200190929190803560ff1690602001909291905050506106e1565b005b34801561033157600080fd5b50610368600480360381019080803560001916906020019092919080359060200190929190803590602001909291905050506107df565b005b60016020528060005260406000206000915090508060000154908060010160009054906101000a900460ff16908060010160019054906101000a900460ff16908060010160029054906101000a900460ff16905084565b6000806000806000856001600088600019166000191681526020019081526020016000206000015460016000896000191660001916815260200190815260200160002060010160009054906101000a900460ff16600160008a6000191660001916815260200190815260200160002060010160019054906101000a900460ff16600160008b6000191660001916815260200190815260200160002060010160029054906101000a900460ff169450945094509450945091939590929450565b600060026000610490858561092d565b6000191660001916815260200190815260200160002054905092915050565b6000809054906101000a900473ffffffffffffffffffffffffffffffffffffffff1673ffffffffffffffffffffffffffffffffffffffff163373ffffffffffffffffffffffffffffffffffffffff16141515610599576040517f08c379a000000000000000000000000000000000000000000000000000000000815260040180806020018281038252602c8152602001807f4f6e6c7920706172656e7420636f6e74726163742063616e206164642074726181526020017f64696e6720706572696f6473000000000000000000000000000000000000000081525060400191505060405180910390fd5b6080604051908101604052808581526020018460028111156105b757fe5b81526020018360ff1681526020018260ff168152506001600087600019166000191681526020019081526020016000206000820151816000015560208201518160010160006101000a81548160ff0219169083600281111561061557fe5b021790555060408201518160010160016101000a81548160ff021916908360ff16021790555060608201518160010160026101000a81548160ff021916908360ff1602179055509050505050505050565b6000600160008560001916600019168152602001908152602001600020600001546106be8460026000610699898861092d565b6000191660001916815260200190815260200160002054610bc590919063ffffffff16565b111590509392505050565b60026020528060005260406000206000915090505481565b6000809054906101000a900473ffffffffffffffffffffffffffffffffffffffff1673ffffffffffffffffffffffffffffffffffffffff163373ffffffffffffffffffffffffffffffffffffffff161415156107cb576040517f08c379a000000000000000000000000000000000000000000000000000000000815260040180806020018281038252602c8152602001807f4f6e6c7920706172656e7420636f6e74726163742063616e206164642074726181526020017f64696e6720706572696f6473000000000000000000000000000000000000000081525060400191505060405180910390fd5b6107da8383836001600c6104af565b505050565b6000809054906101000a900473ffffffffffffffffffffffffffffffffffffffff1673ffffffffffffffffffffffffffffffffffffffff163373ffffffffffffffffffffffffffffffffffffffff161415156108c9576040517f08c379a000000000000000000000000000000000000000000000000000000000815260040180806020018281038252602c8152602001807f4f6e6c7920706172656e7420636f6e74726163742063616e206164642074726181526020017f64696e6720706572696f6473000000000000000000000000000000000000000081525060400191505060405180910390fd5b61090082600260006108db878661092d565b6000191660001916815260200190815260200160002054610bc590919063ffffffff16565b6002600061090e868561092d565b6000191660001916815260200190815260200160002081905550505050565b60006060610939610d0b565b6000806000806000600160008b6000191660001916815260200190815260200160002060806040519081016040529081600082015481526020016001820160009054906101000a900460ff16600281111561099057fe5b600281111561099b57fe5b81526020016001820160019054906101000a900460ff1660ff1660ff1681526020016001820160029054906101000a900460ff1660ff1660ff168152505095506109e489610be3565b945094509450600060028111156109f757fe5b86602001516002811115610a0757fe5b1415610a5457898585856040516020018085600019166000191681526020018481526020018381526020018281526020019450505050506040516020818303038152906040529650610b53565b60016002811115610a6157fe5b86602001516002811115610a7157fe5b1415610ab65789858560405160200180846000191660001916815260200183815260200182815260200193505050506040516020818303038152906040529650610b52565b600280811115610ac257fe5b86602001516002811115610ad257fe5b1415610b5157849150856040015160ff16866060015160ff16109050808015610b025750856060015160ff168411155b15610b1e57610b1b600183610c1290919063ffffffff16565b91505b89826040516020018083600019166000191681526020018281526020019250505060405160208183030381529060405296505b5b5b866040518082805190602001908083835b602083101515610b895780518252602082019150602081019050602083039250610b64565b6001836020036101000a038019825116818451168082178552505050505050905001915050604051809103902097505050505050505092915050565b6000808284019050838110151515610bd957fe5b8091505092915050565b6000806000610bff6201518085811515610bf957fe5b04610c2b565b8093508194508295505050509193909250565b6000828211151515610c2057fe5b818303905092915050565b600080600080600080600080600089955062253d8c62010bd9870101945062023ab185600402811515610c5a57fe5b059350600460038562023ab10201811515610c7157fe5b058503945062164b0960018601610fa002811515610c8b57fe5b059250601f6004846105b502811515610ca057fe5b05860301945061098f85605002811515610cb657fe5b05915060508261098f02811515610cc957fe5b0585039050600b82811515610cda57fe5b05945084600c0260028301039150848360318603606402010192508298508197508096505050505050509193909250565b6080604051908101604052806000815260200160006002811115610d2b57fe5b8152602001600060ff168152602001600060ff16815250905600a165627a7a72305820b130613a7af4b3eb6bac2f98b03f7786184ee0ee9e82df07a86601a171477c9d0029",
  "source": "pragma solidity ^0.4.24;\n\nimport \"../SafeMath.sol\";\nimport \"../utils/BokkyPooBahsDateTimeLibrary.sol\";\nimport \"./TradeRestriction.sol\";\n\n/// @title Restricts trading by a set volume per period (daily, monthly, yearly)\n/// @author Civic Ledger\ncontract VolumeRestriction is TradeRestriction {\n\n    using SafeMath for uint256;\n\n    enum VolumePeriodType {\n        PerDay,\n        PerMonth,\n        PerYear\n    }   \n\n    struct VolumePeriod {\n        uint256 volume;\n        VolumePeriodType periodType;\n        // only applicable to PerYear period\n        uint8 yearStartMonth;\n        uint8 yearEndMonth;\n    }\n\n    mapping(bytes32 => VolumePeriod) public _maxVolumes;\n    mapping(bytes32 => uint256) public _currentVolumes;\n\n    /// @dev Adds a volume restriction (with default calendar year)\n    /// @param keyHash Key hash of the thing to be restricted\n    /// @param maxVolume maxVolume Maximum trade volume per period\n    /// @param periodType Period type id - PerDay, PerMonth, PerYear\n    function addMaxVolume(bytes32 keyHash, uint256 maxVolume, VolumePeriodType periodType) public onlyParentContract() {\n        addMaxVolumeWithCustomYear(keyHash, maxVolume, periodType, 1, 12); // defaults to calendar year\n    }\n\n    /// @dev Adds a volume restriction (with custom calendar, i.e financial year)\n    /// @param keyHash Key hash of the restricted thing, to retrieve restriction details\n    /// @param maxVolume Maximum trade volume per period\n    /// @param periodType Period type id - PerDay, PerMonth, PerYear\n    /// @param yearStartMonth Year calendar start month (1 === Jan)\n    /// @param yearEndMonth Year calendar end month\n    function addMaxVolumeWithCustomYear(bytes32 keyHash, uint256 maxVolume, VolumePeriodType periodType, uint8 yearStartMonth, uint8 yearEndMonth) public onlyParentContract() {\n        _maxVolumes[keyHash] = VolumePeriod(maxVolume, periodType, yearStartMonth, yearEndMonth);\n    }\n\n    /// @dev Retrieves a volume restriction by its id\n    /// @param keyHash Key hash of the restricted thing to retrieve volume restriction details about\n    /// @return Volume restriction information\n    function maxVolumeByKey(bytes32 keyHash) public view returns(bytes32, uint256, VolumePeriodType, uint8, uint8) {\n        return (\n            keyHash,\n            _maxVolumes[keyHash].volume,\n            _maxVolumes[keyHash].periodType,\n            _maxVolumes[keyHash].yearStartMonth,\n            _maxVolumes[keyHash].yearEndMonth\n        );\n    }\n\n    /// @dev Add/update the current volume traded by key hash\n    /// @param keyHash Key hash of the restricted thing to update current volume details\n    /// @param volume Value to change current trade volume to\n    /// @param onDate Specified date on which to update current volume (if monthly or yearly will only use month or year component of date)\n    function incrementCurrentVolume(bytes32 keyHash, uint256 volume, uint256 onDate) public onlyParentContract() {\n        _currentVolumes[getVolumeKey(keyHash, onDate)] = _currentVolumes[getVolumeKey(keyHash, onDate)].add(volume);\n    }\n\n    /// @dev Retrieves a current trading volume by its key hash\n    /// @param keyHash Key hash of the restricted thing to retrieve volume restriction details about\n    /// @param onDate Specified date on which to retrieve current volume (if monthly or yearly will only use month or year component of date)\n    /// @return Current trading volume\n    function currentVolumeByKey(bytes32 keyHash, uint256 onDate) public view returns(uint256) {\n        return _currentVolumes[getVolumeKey(keyHash, onDate)];\n    }\n\n    /// @dev Can they trade up to a specified volume\n    /// @param keyHash Key hash of the volume restricted thing\n    /// @param volume Specified volume to check\n    /// @param onDate Specified date on which to check\n    /// @return True if they are within their volume limits, False if they have exceeded their volume limits\n    function canTrade(bytes32 keyHash, uint256 volume, uint256 onDate) public view returns(bool) {\n        return (_currentVolumes[getVolumeKey(keyHash, onDate)].add(volume)) <= _maxVolumes[keyHash].volume;\n    }\n\n    function getVolumeKey(bytes32 keyHash, uint256 onDate) internal view returns(bytes32){\n        bytes memory key;\n\n        VolumePeriod memory volumePeriod = _maxVolumes[keyHash];\n\n        // break up the date into its components\n        (uint256 year, uint256 month, uint256 day) = BokkyPooBahsDateTimeLibrary.timestampToDate(onDate);\n        if (volumePeriod.periodType == VolumePeriodType.PerDay) {\n            key = abi.encodePacked(keyHash, year, month, day);\n        }\n        else if (volumePeriod.periodType == VolumePeriodType.PerMonth) {\n            key = abi.encodePacked(keyHash, year, month);\n        }\n        else if (volumePeriod.periodType == VolumePeriodType.PerYear) {\n            uint256 adjustedYear = year;\n            bool notCalendarYear = volumePeriod.yearEndMonth < volumePeriod.yearStartMonth;\n            if (notCalendarYear && month <= volumePeriod.yearEndMonth) {\n                adjustedYear = adjustedYear.sub(1);\n            }\n            key = abi.encodePacked(keyHash, adjustedYear);\n        }\n\n        return keccak256(key);\n    }    \n}",
  "sourcePath": "/Users/mattb/Code/waterledger/contracts/contracts/trade-restrictions/VolumeRestriction.sol",
  "compiler": {
    "name": "solc",
    "version": "0.4.24+commit.e67f0147.Emscripten.clang"
  },
  "schemaVersion": "3.0.19",
  "updatedAt": "2019-11-19T19:29:26.699Z",
  "devdoc": {
    "author": "Civic Ledger",
    "methods": {
      "addMaxVolume(bytes32,uint256,uint8)": {
        "details": "Adds a volume restriction (with default calendar year)",
        "params": {
          "keyHash": "Key hash of the thing to be restricted",
          "maxVolume": "maxVolume Maximum trade volume per period",
          "periodType": "Period type id - PerDay, PerMonth, PerYear"
        }
      },
      "addMaxVolumeWithCustomYear(bytes32,uint256,uint8,uint8,uint8)": {
        "details": "Adds a volume restriction (with custom calendar, i.e financial year)",
        "params": {
          "keyHash": "Key hash of the restricted thing, to retrieve restriction details",
          "maxVolume": "Maximum trade volume per period",
          "periodType": "Period type id - PerDay, PerMonth, PerYear",
          "yearEndMonth": "Year calendar end month",
          "yearStartMonth": "Year calendar start month (1 === Jan)"
        }
      },
      "canTrade(bytes32,uint256,uint256)": {
        "details": "Can they trade up to a specified volume",
        "params": {
          "keyHash": "Key hash of the volume restricted thing",
          "onDate": "Specified date on which to check",
          "volume": "Specified volume to check"
        },
        "return": "True if they are within their volume limits, False if they have exceeded their volume limits"
      },
      "currentVolumeByKey(bytes32,uint256)": {
        "details": "Retrieves a current trading volume by its key hash",
        "params": {
          "keyHash": "Key hash of the restricted thing to retrieve volume restriction details about",
          "onDate": "Specified date on which to retrieve current volume (if monthly or yearly will only use month or year component of date)"
        },
        "return": "Current trading volume"
      },
      "incrementCurrentVolume(bytes32,uint256,uint256)": {
        "details": "Add/update the current volume traded by key hash",
        "params": {
          "keyHash": "Key hash of the restricted thing to update current volume details",
          "onDate": "Specified date on which to update current volume (if monthly or yearly will only use month or year component of date)",
          "volume": "Value to change current trade volume to"
        }
      },
      "maxVolumeByKey(bytes32)": {
        "details": "Retrieves a volume restriction by its id",
        "params": {
          "keyHash": "Key hash of the restricted thing to retrieve volume restriction details about"
        },
        "return": "Volume restriction information"
      }
    },
    "title": "Restricts trading by a set volume per period (daily, monthly, yearly)"
  },
  "userdoc": {
    "methods": {}
  }
}