{
  "contractName": "WaterLicence",
  "abi": [
    {
      "inputs": [
        {
          "name": "usersContractAddress",
          "type": "address"
        },
        {
          "name": "rolesContractAddress",
          "type": "address"
        },
        {
          "name": "tradingZonesAddress",
          "type": "address"
        },
        {
          "name": "waterTokenAddress",
          "type": "address"
        }
      ],
      "payable": false,
      "stateMutability": "nonpayable",
      "type": "constructor"
    },
    {
      "anonymous": false,
      "inputs": [
        {
          "indexed": true,
          "name": "waterLicenceId",
          "type": "uint256"
        },
        {
          "indexed": true,
          "name": "to",
          "type": "address"
        },
        {
          "indexed": false,
          "name": "reference",
          "type": "string"
        },
        {
          "indexed": false,
          "name": "tradingZoneId",
          "type": "uint256"
        },
        {
          "indexed": false,
          "name": "startDate",
          "type": "uint256"
        },
        {
          "indexed": false,
          "name": "endDate",
          "type": "uint256"
        },
        {
          "indexed": false,
          "name": "administrativePlan",
          "type": "string"
        }
      ],
      "name": "LicenceIssued",
      "type": "event"
    },
    {
      "anonymous": false,
      "inputs": [
        {
          "indexed": true,
          "name": "waterLicenceId",
          "type": "uint256"
        },
        {
          "indexed": false,
          "name": "maxVolume",
          "type": "uint256"
        }
      ],
      "name": "AllocationAdded",
      "type": "event"
    },
    {
      "constant": true,
      "inputs": [
        {
          "name": "id",
          "type": "uint256"
        }
      ],
      "name": "getLicenceById",
      "outputs": [
        {
          "name": "",
          "type": "address"
        },
        {
          "name": "",
          "type": "string"
        },
        {
          "name": "",
          "type": "uint256"
        },
        {
          "name": "",
          "type": "uint256"
        },
        {
          "name": "",
          "type": "string"
        },
        {
          "name": "",
          "type": "string"
        },
        {
          "name": "",
          "type": "uint256"
        },
        {
          "name": "",
          "type": "uint256"
        }
      ],
      "payable": false,
      "stateMutability": "view",
      "type": "function"
    },
    {
      "constant": true,
      "inputs": [],
      "name": "getLicenceCount",
      "outputs": [
        {
          "name": "",
          "type": "uint256"
        }
      ],
      "payable": false,
      "stateMutability": "view",
      "type": "function"
    },
    {
      "constant": false,
      "inputs": [
        {
          "name": "licenseeAddress",
          "type": "address"
        },
        {
          "name": "reference",
          "type": "string"
        },
        {
          "name": "tradingZoneId",
          "type": "uint256"
        },
        {
          "name": "startDate",
          "type": "uint256"
        },
        {
          "name": "endDate",
          "type": "uint256"
        },
        {
          "name": "administrativePlan",
          "type": "string"
        },
        {
          "name": "volume",
          "type": "uint256"
        }
      ],
      "name": "issueLicenceAndAllocate",
      "outputs": [],
      "payable": false,
      "stateMutability": "nonpayable",
      "type": "function"
    },
    {
      "constant": false,
      "inputs": [
        {
          "name": "licenseeAddress",
          "type": "address"
        },
        {
          "name": "reference",
          "type": "string"
        },
        {
          "name": "tradingZoneId",
          "type": "uint256"
        },
        {
          "name": "startDate",
          "type": "uint256"
        },
        {
          "name": "endDate",
          "type": "uint256"
        },
        {
          "name": "administrativePlan",
          "type": "string"
        }
      ],
      "name": "issueLicence",
      "outputs": [],
      "payable": false,
      "stateMutability": "nonpayable",
      "type": "function"
    },
    {
      "constant": true,
      "inputs": [
        {
          "name": "licenseeAddress",
          "type": "address"
        },
        {
          "name": "reference",
          "type": "string"
        },
        {
          "name": "tradingZoneId",
          "type": "uint256"
        }
      ],
      "name": "licenceExists",
      "outputs": [
        {
          "name": "",
          "type": "bool"
        }
      ],
      "payable": false,
      "stateMutability": "view",
      "type": "function"
    },
    {
      "constant": false,
      "inputs": [
        {
          "name": "waterLicenceId",
          "type": "uint256"
        },
        {
          "name": "volume",
          "type": "uint256"
        }
      ],
      "name": "addAllocation",
      "outputs": [],
      "payable": false,
      "stateMutability": "nonpayable",
      "type": "function"
    },
    {
      "constant": true,
      "inputs": [
        {
          "name": "waterLicenceId",
          "type": "uint256"
        }
      ],
      "name": "allocationById",
      "outputs": [
        {
          "name": "",
          "type": "uint256"
        }
      ],
      "payable": false,
      "stateMutability": "view",
      "type": "function"
    },
    {
      "constant": true,
      "inputs": [
        {
          "name": "waterLicenceId",
          "type": "uint256"
        },
        {
          "name": "traderAddress",
          "type": "address"
        },
        {
          "name": "volume",
          "type": "uint256"
        }
      ],
      "name": "canTrade",
      "outputs": [
        {
          "name": "",
          "type": "bool"
        }
      ],
      "payable": false,
      "stateMutability": "view",
      "type": "function"
    }
  ],
  "bytecode": "0x608060405234801561001057600080fd5b5060405160808062002ce583398101806040528101908080519060200190929190805190602001909291908051906020019092919080519060200190929190505050836000806101000a81548173ffffffffffffffffffffffffffffffffffffffff021916908373ffffffffffffffffffffffffffffffffffffffff16021790555082600160006101000a81548173ffffffffffffffffffffffffffffffffffffffff021916908373ffffffffffffffffffffffffffffffffffffffff16021790555081600260006101000a81548173ffffffffffffffffffffffffffffffffffffffff021916908373ffffffffffffffffffffffffffffffffffffffff16021790555080600460006101000a81548173ffffffffffffffffffffffffffffffffffffffff021916908373ffffffffffffffffffffffffffffffffffffffff16021790555061015d6101c3565b604051809103906000f080158015610179573d6000803e3d6000fd5b50600360006101000a81548173ffffffffffffffffffffffffffffffffffffffff021916908373ffffffffffffffffffffffffffffffffffffffff160217905550505050506101d4565b604051610859806200248c83390190565b6122a880620001e46000396000f30060806040526004361061008e576000357c0100000000000000000000000000000000000000000000000000000000900463ffffffff1680630ce08306146100935780633a3a03c4146100be5780633c3d37f8146101ab5780637845c5b4146101ec5780639ac0d2c014610297578063b12db2a0146102ce578063d4e123371461049b578063ee0b7db614610592575b600080fd5b34801561009f57600080fd5b506100a8610601565b6040518082815260200191505060405180910390f35b3480156100ca57600080fd5b506101a9600480360381019080803573ffffffffffffffffffffffffffffffffffffffff169060200190929190803590602001908201803590602001908080601f0160208091040260200160405190810160405280939291908181526020018383808284378201915050505050509192919290803590602001909291908035906020019092919080359060200190929190803590602001908201803590602001908080601f016020809104026020016040519081016040528093929190818152602001838380828437820191505050505050919291929050505061060e565b005b3480156101b757600080fd5b506101d6600480360381019080803590602001909291905050506107f0565b6040518082815260200191505060405180910390f35b3480156101f857600080fd5b5061027d600480360381019080803573ffffffffffffffffffffffffffffffffffffffff169060200190929190803590602001908201803590602001908080601f016020809104026020016040519081016040528093929190818152602001838380828437820191505050505050919291929080359060200190929190505050610931565b604051808215151515815260200191505060405180910390f35b3480156102a357600080fd5b506102cc6004803603810190808035906020019092919080359060200190929190505050610a7e565b005b3480156102da57600080fd5b506102f960048036038101908080359060200190929190505050610c57565b604051808973ffffffffffffffffffffffffffffffffffffffff1673ffffffffffffffffffffffffffffffffffffffff16815260200180602001888152602001878152602001806020018060200186815260200185815260200184810384528b818151815260200191508051906020019080838360005b8381101561038b578082015181840152602081019050610370565b50505050905090810190601f1680156103b85780820380516001836020036101000a031916815260200191505b50848103835288818151815260200191508051906020019080838360005b838110156103f15780820151818401526020810190506103d6565b50505050905090810190601f16801561041e5780820380516001836020036101000a031916815260200191505b50848103825287818151815260200191508051906020019080838360005b8381101561045757808201518184015260208101905061043c565b50505050905090810190601f1680156104845780820380516001836020036101000a031916815260200191505b509b50505050505050505050505060405180910390f35b3480156104a757600080fd5b50610590600480360381019080803573ffffffffffffffffffffffffffffffffffffffff169060200190929190803590602001908201803590602001908080601f0160208091040260200160405190810160405280939291908181526020018383808284378201915050505050509192919290803590602001909291908035906020019092919080359060200190929190803590602001908201803590602001908080601f016020809104026020016040519081016040528093929190818152602001838380828437820191505050505050919291929080359060200190929190505050611154565b005b34801561059e57600080fd5b506105e760048036038101908080359060200190929190803573ffffffffffffffffffffffffffffffffffffffff16906020019092919080359060200190929190505050611345565b604051808215151515815260200191505060405180910390f35b6000600580549050905090565b600160009054906101000a900473ffffffffffffffffffffffffffffffffffffffff1673ffffffffffffffffffffffffffffffffffffffff1663a5b749d9336040518263ffffffff167c010000000000000000000000000000000000000000000000000000000002815260040180806020018373ffffffffffffffffffffffffffffffffffffffff1673ffffffffffffffffffffffffffffffffffffffff1681526020018281038252600e8152602001807f5761746572417574686f7269747900000000000000000000000000000000000081525060200192505050602060405180830381600087803b15801561070457600080fd5b505af1158015610718573d6000803e3d6000fd5b505050506040513d602081101561072e57600080fd5b810190808051906020019092919050505015156107d9576040517f08c379a000000000000000000000000000000000000000000000000000000000815260040180806020018281038252602f8152602001807f4f6e6c7920776174657220617574686f7269746965732063616e20697373756581526020017f207761746572206c6963656e636573000000000000000000000000000000000081525060400191505060405180910390fd5b6107e78686868686866116ac565b50505050505050565b6000600460009054906101000a900473ffffffffffffffffffffffffffffffffffffffff1673ffffffffffffffffffffffffffffffffffffffff166370a0823160058481548110151561083f57fe5b906000526020600020906005020160000160009054906101000a900473ffffffffffffffffffffffffffffffffffffffff166040518263ffffffff167c0100000000000000000000000000000000000000000000000000000000028152600401808273ffffffffffffffffffffffffffffffffffffffff1673ffffffffffffffffffffffffffffffffffffffff168152602001915050602060405180830381600087803b1580156108ef57600080fd5b505af1158015610903573d6000803e3d6000fd5b505050506040513d602081101561091957600080fd5b81019080805190602001909291905050509050919050565b600060066000858585604051602001808473ffffffffffffffffffffffffffffffffffffffff1673ffffffffffffffffffffffffffffffffffffffff166c0100000000000000000000000002815260140183805190602001908083835b6020831015156109b3578051825260208201915060208101905060208303925061098e565b6001836020036101000a03801982511681845116808217855250505050505090500182815260200193505050506040516020818303038152906040526040518082805190602001908083835b602083101515610a2457805182526020820191506020810190506020830392506109ff565b6001836020036101000a03801982511681845116808217855250505050505090500191505060405180910390206000191660001916815260200190815260200160002060009054906101000a900460ff1690509392505050565b600160009054906101000a900473ffffffffffffffffffffffffffffffffffffffff1673ffffffffffffffffffffffffffffffffffffffff1663a5b749d9336040518263ffffffff167c010000000000000000000000000000000000000000000000000000000002815260040180806020018373ffffffffffffffffffffffffffffffffffffffff1673ffffffffffffffffffffffffffffffffffffffff1681526020018281038252600e8152602001807f5761746572417574686f7269747900000000000000000000000000000000000081525060200192505050602060405180830381600087803b158015610b7457600080fd5b505af1158015610b88573d6000803e3d6000fd5b505050506040513d6020811015610b9e57600080fd5b81019080805190602001909291905050501515610c49576040517f08c379a000000000000000000000000000000000000000000000000000000000815260040180806020018281038252602f8152602001807f4f6e6c7920776174657220617574686f7269746965732063616e20697373756581526020017f207761746572206c6963656e636573000000000000000000000000000000000081525060400191505060405180910390fd5b610c538282612038565b5050565b60006060600080606080600080610c6c612191565b606060008060058d815481101515610c8057fe5b906000526020600020906005020160a060405190810160405290816000820160009054906101000a900473ffffffffffffffffffffffffffffffffffffffff1673ffffffffffffffffffffffffffffffffffffffff1673ffffffffffffffffffffffffffffffffffffffff168152602001600182018054600181600116156101000203166002900480601f016020809104026020016040519081016040528092919081815260200182805460018160011615610100020316600290048015610d895780601f10610d5e57610100808354040283529160200191610d89565b820191906000526020600020905b815481529060010190602001808311610d6c57829003601f168201915b505050505081526020016002820154815260200160038201548152602001600482018054600181600116156101000203166002900480601f016020809104026020016040519081016040528092919081815260200182805460018160011615610100020316600290048015610e3f5780601f10610e1457610100808354040283529160200191610e3f565b820191906000526020600020905b815481529060010190602001808311610e2257829003601f168201915b5050505050815250509350600260009054906101000a900473ffffffffffffffffffffffffffffffffffffffff1673ffffffffffffffffffffffffffffffffffffffff1663ea24436185606001516040518263ffffffff167c010000000000000000000000000000000000000000000000000000000002815260040180828152602001915050600060405180830381600087803b158015610edf57600080fd5b505af1158015610ef3573d6000803e3d6000fd5b505050506040513d6000823e3d601f19601f820116820180604052506040811015610f1d57600080fd5b810190808051640100000000811115610f3557600080fd5b82810190506020810184811115610f4b57600080fd5b8151856001820283011164010000000082111715610f6857600080fd5b505092919060200180519060200190929190505050509250600360009054906101000a900473ffffffffffffffffffffffffffffffffffffffff1673ffffffffffffffffffffffffffffffffffffffff166356b9bbc58e60405160200180807f57617465724c6963656e63650000000000000000000000000000000000000000815250600c018281526020019150506040516020818303038152906040526040518082805190602001908083835b60208310151561103b5780518252602082019150602081019050602083039250611016565b6001836020036101000a038019825116818451168082178552505050505050905001915050604051809103902060006040518363ffffffff167c0100000000000000000000000000000000000000000000000000000000028152600401808360001916600019168152602001828152602001925050506040805180830381600087803b1580156110ca57600080fd5b505af11580156110de573d6000803e3d6000fd5b505050506040513d60408110156110f457600080fd5b81019080805190602001909291908051906020019092919050505091509150836000015184602001518560400151866060015186886080015187878696508292509b509b509b509b509b509b509b509b5050505050919395975091939597565b6000600160009054906101000a900473ffffffffffffffffffffffffffffffffffffffff1673ffffffffffffffffffffffffffffffffffffffff1663a5b749d9336040518263ffffffff167c010000000000000000000000000000000000000000000000000000000002815260040180806020018373ffffffffffffffffffffffffffffffffffffffff1673ffffffffffffffffffffffffffffffffffffffff1681526020018281038252600e8152602001807f5761746572417574686f7269747900000000000000000000000000000000000081525060200192505050602060405180830381600087803b15801561124c57600080fd5b505af1158015611260573d6000803e3d6000fd5b505050506040513d602081101561127657600080fd5b81019080805190602001909291905050501515611321576040517f08c379a000000000000000000000000000000000000000000000000000000000815260040180806020018281038252602f8152602001807f4f6e6c7920776174657220617574686f7269746965732063616e20697373756581526020017f207761746572206c6963656e636573000000000000000000000000000000000081525060400191505060405180910390fd5b61132f8888888888886116ac565b905061133b8183612038565b5050505050505050565b6000806005805490508510151561135f57600091506116a4565b8460405160200180807f57617465724c6963656e63650000000000000000000000000000000000000000815250600c018281526020019150506040516020818303038152906040526040518082805190602001908083835b6020831015156113dc57805182526020820191506020810190506020830392506113b7565b6001836020036101000a0380198251168184511680821785525050505050509050019150506040518091039020905060058581548110151561141a57fe5b906000526020600020906005020160000160009054906101000a900473ffffffffffffffffffffffffffffffffffffffff1673ffffffffffffffffffffffffffffffffffffffff168473ffffffffffffffffffffffffffffffffffffffff1614801561155e5750600360009054906101000a900473ffffffffffffffffffffffffffffffffffffffff1673ffffffffffffffffffffffffffffffffffffffff16637174feb682426040518363ffffffff167c010000000000000000000000000000000000000000000000000000000002815260040180836000191660001916815260200182815260200192505050602060405180830381600087803b15801561152257600080fd5b505af1158015611536573d6000803e3d6000fd5b505050506040513d602081101561154c57600080fd5b81019080805190602001909291905050505b80156116a1575082600460009054906101000a900473ffffffffffffffffffffffffffffffffffffffff1673ffffffffffffffffffffffffffffffffffffffff166370a082316005888154811015156115b357fe5b906000526020600020906005020160000160009054906101000a900473ffffffffffffffffffffffffffffffffffffffff166040518263ffffffff167c0100000000000000000000000000000000000000000000000000000000028152600401808273ffffffffffffffffffffffffffffffffffffffff1673ffffffffffffffffffffffffffffffffffffffff168152602001915050602060405180830381600087803b15801561166357600080fd5b505af1158015611677573d6000803e3d6000fd5b505050506040513d602081101561168d57600080fd5b810190808051906020019092919050505010155b91505b509392505050565b600080600080600073ffffffffffffffffffffffffffffffffffffffff168a73ffffffffffffffffffffffffffffffffffffffff161415151561177d576040517f08c379a000000000000000000000000000000000000000000000000000000000815260040180806020018281038252602f8152602001807f4d757374207370656369667920616e206164647265737320746f20697373756581526020017f20746865206c6963656e636520746f000000000000000000000000000000000081525060400191505060405180910390fd5b8587108061178b5750600086145b1515611825576040517f08c379a000000000000000000000000000000000000000000000000000000000815260040180806020018281038252602a8152602001807f4c6963656e63652073746172742064617465206d757374206265206265666f7281526020017f6520656e6420646174650000000000000000000000000000000000000000000081525060400191505060405180910390fd5b600260009054906101000a900473ffffffffffffffffffffffffffffffffffffffff1673ffffffffffffffffffffffffffffffffffffffff166365340b4c896040518263ffffffff167c010000000000000000000000000000000000000000000000000000000002815260040180828152602001915050602060405180830381600087803b1580156118b657600080fd5b505af11580156118ca573d6000803e3d6000fd5b505050506040513d60208110156118e057600080fd5b8101908080519060200190929190505050151561198b576040517f08c379a00000000000000000000000000000000000000000000000000000000081526004018080602001828103825260308152602001807f54726164696e67207a6f6e65206964206973206e6f742061207265676973746581526020017f7265642074726164696e67207a6f6e650000000000000000000000000000000081525060400191505060405180910390fd5b6000809054906101000a900473ffffffffffffffffffffffffffffffffffffffff1673ffffffffffffffffffffffffffffffffffffffff1663989e5ea9336040518263ffffffff167c0100000000000000000000000000000000000000000000000000000000028152600401808273ffffffffffffffffffffffffffffffffffffffff1673ffffffffffffffffffffffffffffffffffffffff1681526020019150506040805180830381600087803b158015611a4657600080fd5b505af1158015611a5a573d6000803e3d6000fd5b505050506040513d6040811015611a7057600080fd5b81019080805190602001909291908051906020019092919050505092509250811515611b2a576040517f08c379a00000000000000000000000000000000000000000000000000000000081526004018080602001828103825260288152602001807f576174657220617574686f72697479206973206e6f742061207265676973746581526020017f726564207573657200000000000000000000000000000000000000000000000081525060400191505060405180910390fd5b600560a0604051908101604052808c73ffffffffffffffffffffffffffffffffffffffff1681526020018b81526020018581526020018a8152602001878152509080600181540180825580915050906001820390600052602060002090600502016000909192909190915060008201518160000160006101000a81548173ffffffffffffffffffffffffffffffffffffffff021916908373ffffffffffffffffffffffffffffffffffffffff1602179055506020820151816001019080519060200190611bf89291906121d7565b5060408201518160020155606082015181600301556080820151816004019080519060200190611c299291906121d7565b505050506001600660008c8c8c604051602001808473ffffffffffffffffffffffffffffffffffffffff1673ffffffffffffffffffffffffffffffffffffffff166c0100000000000000000000000002815260140183805190602001908083835b602083101515611caf5780518252602082019150602081019050602083039250611c8a565b6001836020036101000a03801982511681845116808217855250505050505090500182815260200193505050506040516020818303038152906040526040518082805190602001908083835b602083101515611d205780518252602082019150602081019050602083039250611cfb565b6001836020036101000a03801982511681845116808217855250505050505090500191505060405180910390206000191660001916815260200190815260200160002060006101000a81548160ff0219169083151502179055506001600580549050039050600360009054906101000a900473ffffffffffffffffffffffffffffffffffffffff1673ffffffffffffffffffffffffffffffffffffffff1663e5c7c8898260405160200180807f57617465724c6963656e63650000000000000000000000000000000000000000815250600c018281526020019150506040516020818303038152906040526040518082805190602001908083835b602083101515611e405780518252602082019150602081019050602083039250611e1b565b6001836020036101000a038019825116818451168082178552505050505050905001915050604051809103902089896040518463ffffffff167c01000000000000000000000000000000000000000000000000000000000281526004018084600019166000191681526020018381526020018281526020019350505050600060405180830381600087803b158015611ed757600080fd5b505af1158015611eeb573d6000803e3d6000fd5b505050508973ffffffffffffffffffffffffffffffffffffffff16817f23421142e89a165d022c89dfedbba35fddf65aaa52a7450ff1a458df21d47b4e8b8b8b8b8b604051808060200186815260200185815260200184815260200180602001838103835288818151815260200191508051906020019080838360005b83811015611f83578082015181840152602081019050611f68565b50505050905090810190601f168015611fb05780820380516001836020036101000a031916815260200191505b50838103825284818151815260200191508051906020019080838360005b83811015611fe9578082015181840152602081019050611fce565b50505050905090810190601f1680156120165780820380516001836020036101000a031916815260200191505b5097505050505050505060405180910390a38093505050509695505050505050565b600460009054906101000a900473ffffffffffffffffffffffffffffffffffffffff1673ffffffffffffffffffffffffffffffffffffffff1663b78b52df60058481548110151561208557fe5b906000526020600020906005020160000160009054906101000a900473ffffffffffffffffffffffffffffffffffffffff16836040518363ffffffff167c0100000000000000000000000000000000000000000000000000000000028152600401808373ffffffffffffffffffffffffffffffffffffffff1673ffffffffffffffffffffffffffffffffffffffff16815260200182815260200192505050600060405180830381600087803b15801561213d57600080fd5b505af1158015612151573d6000803e3d6000fd5b50505050817f843968ebd6bfde464d70642d9ffebf6f386e916ee0c54177032a608b937a8b3d826040518082815260200191505060405180910390a25050565b60a060405190810160405280600073ffffffffffffffffffffffffffffffffffffffff168152602001606081526020016000815260200160008152602001606081525090565b828054600181600116156101000203166002900490600052602060002090601f016020900481019282601f1061221857805160ff1916838001178555612246565b82800160010185558215612246579182015b8281111561224557825182559160200191906001019061222a565b5b5090506122539190612257565b5090565b61227991905b8082111561227557600081600090555060010161225d565b5090565b905600a165627a7a72305820efe04997ebc7b8277c3f22b738c44788cd7ebc8c6602c5a953280a3a27de58f700296080604052336000806101000a81548173ffffffffffffffffffffffffffffffffffffffff021916908373ffffffffffffffffffffffffffffffffffffffff160217905550610806806100536000396000f30060806040526004361061006d576000357c0100000000000000000000000000000000000000000000000000000000900463ffffffff168063129c6c68146100725780633ee15bd1146100c157806356b9bbc5146101065780637174feb61461015c578063e5c7c889146101af575b600080fd5b34801561007e57600080fd5b506100bf60048036038101908080356000191690602001909291908035906020019092919080359060200190929190803590602001909291905050506101f4565b005b3480156100cd57600080fd5b506100f06004803603810190808035600019169060200190929190505050610408565b6040518082815260200191505060405180910390f35b34801561011257600080fd5b5061013f600480360381019080803560001916906020019092919080359060200190929190505050610430565b604051808381526020018281526020019250505060405180910390f35b34801561016857600080fd5b506101956004803603810190808035600019169060200190929190803590602001909291905050506104b2565b604051808215151515815260200191505060405180910390f35b3480156101bb57600080fd5b506101f2600480360381019080803560001916906020019092919080359060200190929190803590602001909291905050506105d1565b005b6000809054906101000a900473ffffffffffffffffffffffffffffffffffffffff1673ffffffffffffffffffffffffffffffffffffffff163373ffffffffffffffffffffffffffffffffffffffff161415156102de576040517f08c379a000000000000000000000000000000000000000000000000000000000815260040180806020018281038252602c8152602001807f4f6e6c7920706172656e7420636f6e74726163742063616e206164642074726181526020017f64696e6720706572696f6473000000000000000000000000000000000000000081525060400191505060405180910390fd5b808210806102ec5750600081145b1515610386576040517f08c379a00000000000000000000000000000000000000000000000000000000081526004018080602001828103825260228152602001807f53746172742064617465206d757374206265206265666f726520656e6420646181526020017f746500000000000000000000000000000000000000000000000000000000000081525060400191505060405180910390fd5b81600160008660001916600019168152602001908152602001600020848154811015156103af57fe5b90600052602060002090600202016000018190555080600160008660001916600019168152602001908152602001600020848154811015156103ed57fe5b90600052602060002090600202016001018190555050505050565b6000600160008360001916600019168152602001908152602001600020805490509050919050565b6000806001600085600019166000191681526020019081526020016000208381548110151561045b57fe5b9060005260206000209060020201600001546001600086600019166000191681526020019081526020016000208481548110151561049557fe5b906000526020600020906002020160010154915091509250929050565b60008060008091505b600160008660001916600019168152602001908152602001600020805490508210156105c45760006001600087600019166000191681526020019081526020016000208381548110151561050b57fe5b906000526020600020906002020160010154149050836001600087600019166000191681526020019081526020016000208381548110151561054957fe5b906000526020600020906002020160000154111580156105a95750836001600087600019166000191681526020019081526020016000208381548110151561058d57fe5b90600052602060002090600202016001015411806105a85750805b5b156105b757600192506105c9565b81806001019250506104bb565b600092505b505092915050565b6000809054906101000a900473ffffffffffffffffffffffffffffffffffffffff1673ffffffffffffffffffffffffffffffffffffffff163373ffffffffffffffffffffffffffffffffffffffff161415156106bb576040517f08c379a000000000000000000000000000000000000000000000000000000000815260040180806020018281038252602c8152602001807f4f6e6c7920706172656e7420636f6e74726163742063616e206164642074726181526020017f64696e6720706572696f6473000000000000000000000000000000000000000081525060400191505060405180910390fd5b808210806106c95750600081145b1515610763576040517f08c379a00000000000000000000000000000000000000000000000000000000081526004018080602001828103825260228152602001807f53746172742064617465206d757374206265206265666f726520656e6420646181526020017f746500000000000000000000000000000000000000000000000000000000000081525060400191505060405180910390fd5b6001600084600019166000191681526020019081526020016000206040805190810160405280848152602001838152509080600181540180825580915050906001820390600052602060002090600202016000909192909190915060008201518160000155602082015181600101555050505050505600a165627a7a723058207cba2a35038922ac89087b17993517faffe4f254e28a1c122e14ab6171c9c79c0029",
  "source": "pragma solidity ^0.4.24;\n\nimport \"./Users.sol\";\nimport \"./Roles.sol\";\nimport \"./TradingZones.sol\";\nimport \"./trade-restrictions/TradingPeriodRestriction.sol\";\nimport \"./Water.sol\";\n\n/// @title Allows water authorities to issue/revoke water licences and manage their entitlements/allocations.\n/// @author Civic Ledger\ncontract WaterLicence {\n\n    struct Licence {\n        address licenseeAddress;\n        string reference;\n        uint256 authorityUserId;\n        uint256 tradingZoneId;\n        string administrativePlan;\n    }\n\n    // Contract dependencies\n    Users private _usersContract;\n    Roles private _rolesContract;\n    TradingZones private _tradingZones;\n    TradingPeriodRestriction private _tradingPeriodRestriction;\n    Water private _waterTokenContract;\n\n    // Contract Events\n    event LicenceIssued(uint256 indexed waterLicenceId, address indexed to, string reference, uint256 tradingZoneId, uint256 startDate, uint256 endDate, string administrativePlan);\n    event AllocationAdded(uint256 indexed waterLicenceId, uint256 maxVolume);\n\n    // Licence storage\n    Licence[] private _licences;\n    mapping(bytes32 => bool) _licenceExists;\n\n    constructor(address usersContractAddress, address rolesContractAddress, address tradingZonesAddress, address waterTokenAddress) public {\n        _usersContract = Users(usersContractAddress);\n        _rolesContract = Roles(rolesContractAddress);\n        _tradingZones = TradingZones(tradingZonesAddress);\n        _waterTokenContract = Water(waterTokenAddress);\n\n        _tradingPeriodRestriction = new TradingPeriodRestriction();\n    }\n\n    // @dev Ensures that only a water authority can access function\n    modifier onlyWaterAuthority() {\n        require(_rolesContract.hasRoleByAddress(\"WaterAuthority\", msg.sender), \"Only water authorities can issue water licences\");\n        _;\n    }\n\n    /// @dev Retrieves a licence by its index\n    /// @param id Id of the licence to retrieve\n    /// @return Licence information\n    function getLicenceById(uint256 id) public view returns(address, string, uint256, uint256, string, string, uint256, uint256) {\n        Licence memory licence = _licences[id];\n        (string memory tradingZoneName, ) = _tradingZones.tradingZoneById(licence.tradingZoneId);\n        (uint256 startDate, uint256 endDate) = _tradingPeriodRestriction.tradingPeriodByKey(keccak256(abi.encodePacked(\"WaterLicence\", id)), uint256(0));\n        return (\n            licence.licenseeAddress,\n            licence.reference,\n            licence.authorityUserId,\n            licence.tradingZoneId,\n            tradingZoneName,\n            licence.administrativePlan,\n            startDate,\n            endDate\n        );\n    }\n\n    /// @dev Retrieves the number of licences that have been issued\n    /// @return Licence count\n    function getLicenceCount() public view returns(uint256) {\n        return _licences.length;\n    }\n\n    /// @dev Issues a new water licence to a licensee address\n    /// @param licenseeAddress The address of the licensee to issue a licence to\n    /// @param reference An authority reference for the licence\n    /// @param tradingZoneId The trading zone that they are entitled to trade within\n    /// @param startDate Licence validity start date - from this date they are able to trade\n    /// @param endDate Licence validity end date - after this date they are not able to trade (can be 0 which means no expiry)\n    /// @param volume Amount of water to allocate to the licence initially\n    function issueLicenceAndAllocate(address licenseeAddress, string reference, uint256 tradingZoneId, uint256 startDate, uint256 endDate, string administrativePlan, uint256 volume) public onlyWaterAuthority {\n        uint256 licenceId = _issueLicence(licenseeAddress, reference, tradingZoneId, startDate, endDate, administrativePlan);\n        _addAllocation(licenceId, volume);\n    }\n\n    /// @dev Issues a new water licence to a licensee address\n    /// @param licenseeAddress The address of the licensee to issue a licence to\n    /// @param reference An authority reference for the licence\n    /// @param tradingZoneId The trading zone that they are entitled to trade within\n    /// @param startDate Licence validity start date - from this date they are able to trade\n    /// @param endDate Licence validity end date - after this date they are not able to trade (can be 0 which means no expiry)\n    function issueLicence(address licenseeAddress, string reference, uint256 tradingZoneId, uint256 startDate, uint256 endDate, string administrativePlan) public onlyWaterAuthority {\n        _issueLicence(licenseeAddress, reference, tradingZoneId, startDate, endDate, administrativePlan);\n    }\n\n    function _issueLicence(address licenseeAddress, string reference, uint256 tradingZoneId, uint256 startDate, uint256 endDate, string administrativePlan) internal returns(uint256) {\n        require(licenseeAddress != address(0), \"Must specify an address to issue the licence to\");\n        require(startDate < endDate || endDate == 0, \"Licence start date must be before end date\");\n        require(_tradingZones.isTradingZone(tradingZoneId), \"Trading zone id is not a registered trading zone\");\n\n        // get the authorities user id\n        (uint256 authorityUserId, bool authorityUserExists) = _usersContract.userByAddress(msg.sender);\n        require(authorityUserExists, \"Water authority is not a registered user\");\n\n        // issue licence\n        _licences.push(Licence(licenseeAddress, reference, authorityUserId, tradingZoneId, administrativePlan));\n\n        // licence now exists\n        _licenceExists[keccak256(abi.encodePacked(licenseeAddress, reference, tradingZoneId))] = true;\n\n        // set trading period they can trade within\n        uint256 licenceId = _licences.length - 1;\n        _tradingPeriodRestriction.addTradingPeriod(keccak256(abi.encodePacked(\"WaterLicence\", licenceId)), startDate, endDate);\n\n        emit LicenceIssued(licenceId, licenseeAddress, reference, tradingZoneId, startDate, endDate, administrativePlan);\n\n        return licenceId;\n    }\n\n    /// @dev Checks whether a licence has been issued with the passed details\n    /// @param licenseeAddress The address of the licensee to check\n    /// @param reference The authority reference for the licence\n    /// @param tradingZoneId The trading zone of the licence\n    /// @return Returns true if the licence exists and false if it doesn't\n    function licenceExists(address licenseeAddress, string reference, uint256 tradingZoneId) public view returns(bool) {\n        return _licenceExists[keccak256(abi.encodePacked(licenseeAddress, reference, tradingZoneId))];\n    }\n\n    /// @dev Adds an allocation to an existing water licence\n    /// @param waterLicenceId The index of the licence to add the allocation to\n    /// @param volume Sets the volume of water they are allocated to use\n    function addAllocation(uint256 waterLicenceId, uint256 volume) onlyWaterAuthority public {\n        _addAllocation(waterLicenceId, volume);\n    }\n\n    function _addAllocation(uint256 waterLicenceId, uint256 volume) internal {\n        // mint water tokens for the water licence holder\n        _waterTokenContract.allocate(_licences[waterLicenceId].licenseeAddress, volume);\n        emit AllocationAdded(waterLicenceId, volume);\n    }\n\n    /// @dev Retrieves an allocation by id\n    /// @param waterLicenceId The id of the licence to get the allocation\n    /// @return Allocation volume per year\n    function allocationById(uint256 waterLicenceId) public view returns(uint256) {\n        return _waterTokenContract.balanceOf(_licences[waterLicenceId].licenseeAddress);\n    }\n\n    /// @dev Checks whether a licensee can trade\n    /// @param waterLicenceId The index of the licence to check trade restrictions for\n    /// @param traderAddress The address of the trader looking to trade using the licensee\n    /// @param volume The volume of water they want to trade\n    /// @return Returns true if they are able to trade, returns false if not able to trade\n    function canTrade(uint256 waterLicenceId, address traderAddress, uint256 volume) public view returns(bool) {\n        if(waterLicenceId >= _licences.length) {\n            return false;\n        }\n        bytes32 idHash = keccak256(abi.encodePacked(\"WaterLicence\", waterLicenceId));\n        return traderAddress == _licences[waterLicenceId].licenseeAddress && _tradingPeriodRestriction.canTrade(idHash, now) &&  _waterTokenContract.balanceOf(_licences[waterLicenceId].licenseeAddress) >= volume;\n    }\n\n}",
  "sourcePath": "/Users/mattb/Code/waterledger/contracts/contracts/WaterLicence.sol",
  "compiler": {
    "name": "solc",
    "version": "0.4.24+commit.e67f0147.Emscripten.clang"
  },
  "schemaVersion": "3.0.19",
  "updatedAt": "2020-01-13T18:08:58.650Z",
  "devdoc": {
    "author": "Civic Ledger",
    "methods": {
      "addAllocation(uint256,uint256)": {
        "details": "Adds an allocation to an existing water licence",
        "params": {
          "volume": "Sets the volume of water they are allocated to use",
          "waterLicenceId": "The index of the licence to add the allocation to"
        }
      },
      "allocationById(uint256)": {
        "details": "Retrieves an allocation by id",
        "params": {
          "waterLicenceId": "The id of the licence to get the allocation"
        },
        "return": "Allocation volume per year"
      },
      "canTrade(uint256,address,uint256)": {
        "details": "Checks whether a licensee can trade",
        "params": {
          "traderAddress": "The address of the trader looking to trade using the licensee",
          "volume": "The volume of water they want to trade",
          "waterLicenceId": "The index of the licence to check trade restrictions for"
        },
        "return": "Returns true if they are able to trade, returns false if not able to trade"
      },
      "getLicenceById(uint256)": {
        "details": "Retrieves a licence by its index",
        "params": {
          "id": "Id of the licence to retrieve"
        },
        "return": "Licence information"
      },
      "getLicenceCount()": {
        "details": "Retrieves the number of licences that have been issued",
        "return": "Licence count"
      },
      "issueLicence(address,string,uint256,uint256,uint256,string)": {
        "details": "Issues a new water licence to a licensee address",
        "params": {
          "endDate": "Licence validity end date - after this date they are not able to trade (can be 0 which means no expiry)",
          "licenseeAddress": "The address of the licensee to issue a licence to",
          "reference": "An authority reference for the licence",
          "startDate": "Licence validity start date - from this date they are able to trade",
          "tradingZoneId": "The trading zone that they are entitled to trade within"
        }
      },
      "issueLicenceAndAllocate(address,string,uint256,uint256,uint256,string,uint256)": {
        "details": "Issues a new water licence to a licensee address",
        "params": {
          "endDate": "Licence validity end date - after this date they are not able to trade (can be 0 which means no expiry)",
          "licenseeAddress": "The address of the licensee to issue a licence to",
          "reference": "An authority reference for the licence",
          "startDate": "Licence validity start date - from this date they are able to trade",
          "tradingZoneId": "The trading zone that they are entitled to trade within",
          "volume": "Amount of water to allocate to the licence initially"
        }
      },
      "licenceExists(address,string,uint256)": {
        "details": "Checks whether a licence has been issued with the passed details",
        "params": {
          "licenseeAddress": "The address of the licensee to check",
          "reference": "The authority reference for the licence",
          "tradingZoneId": "The trading zone of the licence"
        },
        "return": "Returns true if the licence exists and false if it doesn't"
      }
    },
    "title": "Allows water authorities to issue/revoke water licences and manage their entitlements/allocations."
  },
  "userdoc": {
    "methods": {}
  }
}